:020000040800F2
:100000001021002065010008BD080008AD080008A7
:10001000B508000811080008A90A0008000000003F
:1000200000000000000000000000000001090008BE
:100030008108000800000000F908000835090008E0
:100040007F0100087F0100087F0100087F01000890
:100050007F0100087F0100087F0100087F01000880
:100060007F0100087F0100087F0100087F01000870
:100070007F0100087F0100087F0100087F01000860
:100080007F0100087F0100087F0100087F01000850
:10009000190800087F0100087F0100087F0100089F
:1000A0007F0100087F0100087F0100087F01000830
:1000B0007F010008ED0900087F0100087F010008AA
:1000C0007F0100087F0100087F0100087F01000810
:1000D0007F0100087F0100087F0100087F01000800
:1000E0007F0100087F010008690A00087F010008FD
:1000F0007F0100087F0100087F0100080000000068
:100100007F010008000000007F0100087F01000857
:100110007F0100087F010008F50900087F01000841
:100120007F0100087F0100087F0100087F010008AF
:100130007F01000800000000000000007F010008AF
:10014000210800087F0100087F010008550A000807
:10015000DFF80CD000F0A8F900480047C93B0008C0
:10016000102100200648804706480047FEE7FEE7CA
:10017000FEE7FEE7FEE7FEE7FEE7FEE7FEE7FEE757
:10018000450900085101000840EA01039B0703D01C
:1001900009E008C9121F08C0042AFAD203E011F8C6
:1001A000013B00F8013B521EF9D27047D2B201E088
:1001B00000F8012B491EFBD270470022F6E710B56C
:1001C00013460A4604461946FFF7F0FF204610BDC5
:1001D0002DE9FE4F81EA030404F0004421F00041C0
:1001E00000944FF0000B23F0004350EA01045ED06E
:1001F00052EA03045BD0C3F30A54C1F30A552C44FA
:10020000A4F2F3340194A0FB0254C1F3130141F4AE
:100210008011C3F3130343F4801301FB024400FB7A
:10022000034E840A970A44EA815447EA8357A4FBA1
:10023000076802958D0A05FB07854FEA932C04FB9E
:100240000C542705029D4FEA065847EA1637B5EBCE
:1002500008056EEB070C870E920E47EA811742EAFB
:100260008312A7FB0201B6EB0B0164EB00042B0D1C
:1002700043EA0C335E1844EB1C50DA465146E7FB68
:100280000201C5F313044FEA0B3343EA14534FEA58
:100290000432019C43EA0603A4F10C040294009C7E
:1002A000CDE900B400F0B1F803B0BDE8F08F002054
:1002B0000146F9E730B5041E71F1000404DB4FF08C
:1002C0000044404264EB0101141E73F1000405DB9D
:1002D0001C464FF00043524263EB0403101A8B415B
:1002E00001D2012030BD002030BD30B5041E71F1B7
:1002F000000404DB4FF00044404264EB0101141E93
:1003000073F1000405DB1C464FF00043524263EBDF
:100310000403101A8B4101D3012030BD002030BDF1
:1003200000F0004230F000400AD0C10D01F56071CC
:10033000C0F3160042EA0151C2084007114370475A
:1003400000200146704701F0004330B421F0004125
:1003500050EA010206D00A0DA2F56072C1F3130142
:10036000002A02DC30BC00207047440F44EAC1047C
:10037000C100E01830BC00EBC250AFF30080002990
:10038000A8BF7047401C490008BF20F0010070471B
:1003900010B4B0FA80FC00FA0CF050EA010404BF7B
:1003A00010BC704749B1CCF1200421FA04F411FAD1
:1003B0000CF118BF012121430843A3EB0C01CB1D15
:1003C0004FEA00614FEA102042BF002010BC704786
:1003D00000EBC35010440029A4BF10BC7047401C60
:1003E000490008BF20F0010010BC704710B5141E72
:1003F00073F1000408DA401C41F1000192185B41DE
:100400001A4301D120F0010010BD2DE9F04D9246B4
:100410009B4611B1B1FA81F202E0B0FA80F22032CB
:10042000904600F053F804460F4640EA0A0041EABD
:100430000B0153465A46084313D0114653EA0100B4
:1004400019D0C8F14002504600F04FF805460E465C
:1004500050465946424600F039F8084305D001207D
:1004600004E020463946BDE8F08D0020054346EA09
:10047000E0762C4337430A986305E40AA0EB0800B2
:100480000022FD0A44EA47540A3002D50020014602
:10049000E9E7010510196941DDE9084500196941DD
:1004A000BDE8F04DA2E70000064C074D06E0E0680D
:1004B00040F0010394E8070098471034AC42F6D3AB
:1004C000FFF74AFEE865000808660008202A04DBFA
:1004D000203A00FA02F1002070479140C2F1200357
:1004E00020FA03F3194390407047202A04DB203A96
:1004F00021FA02F00021704721FA02F3D040C2F144
:10050000200291400843194670472DE9FE4F80466E
:1005100081EA0300C00F0C46009021F0004123F057
:100520000045B8EB0200A94105D24046214690465D
:100530001C460B46024623F00040104347D0270DCF
:10054000C7F30A00C3F30A510290401A01904028F1
:100550006BDAC3F3130040F4801B0098924620B17D
:100560000023D2EB030A63EB0B0B01985946C0F151
:1005700040025046FFF7AAFF06460D465046594630
:10058000019A00F015F910EB08006141002487EA98
:10059000115284EAE7731A4340D0009A62B3019A79
:1005A000012A4FEA075215DC001B61EB02014FF0F4
:1005B000004202EA0752CDE90042001C41F58011D9
:1005C00032462B46FFF721FF03B0BDE8F08F4046CF
:1005D0002146F9E7001B61EB0201001C41F5801385
:1005E00000185B412018A2F5001747EB030140EA11
:1005F000D570B6196D4111E06D084FEA360645EA2F
:10060000C0754FEA0752001B61EB0201001C41F567
:10061000801149084FEA30000019514132462B46FB
:1006200003B0BDE8F04FFFF7E1BE009801224000A3
:100630000023D0EB020263EBE073009821464FEAFF
:10064000E074B8EB000061EB0401E9E783F00043DC
:100650005BE781F0004158E72DE9F04D81EA0304A2
:1006600004F0004B21F0004514464FF0000A23F03F
:10067000004150EA050220D054EA01021DD0C5F322
:100680000A570246C5F31303C1F31300C1F30A5618
:1006900040F4801543F48013A7EB0608101BD646E0
:1006A00008F2FD3873EB050002D308F1010801E000
:1006B00092185B41B8F1000F03DA00200146BDE853
:1006C000F08D00204FF48011064684460EE0171B83
:1006D00073EB050705D3121B63EB050306434CEAD6
:1006E000010C49084FEA300092185B4150EA0107BB
:1006F000EDD152EA030012D082EA040083EA050138
:10070000084305D0101BAB4106D20122002306E0AE
:1007100000224FF0004302E06FF0010253101AEB89
:1007200006004CEB085110EB0A0041EB0B01BDE851
:10073000F04DFFF75BBE0EB5C10F80EAE0700844D4
:10074000CA07002140F233438DE80E000A460B46EB
:10075000FFF75BFE03B000BD0EB540F233410291DE
:100760000021CDE900110A460B46FFF74EFE03B00B
:1007700000BD70B5C1F30A5201F000450024C1F379
:10078000130140F2FF3341F480119A4201DA002054
:1007900070BD40F233439A42A2F2334203DC52422C
:1007A000FFF7A3FE00E090402C43F1D0404270BD23
:1007B000202A06DBCB17203A41FA02F043EAE07325
:1007C00006E041FA02F3D040C2F120029140084312
:1007D0001946704730B58C1810F8012B12F00F0332
:1007E00001D110F8013B120906D110F8012B03E0EA
:1007F00010F8015B01F8015B5B1EF9D101E001F823
:10080000013B521EFBD1A142E6D3002030BD0000C7
:1008100080B500F039F880BD80B500F0B3FB80BD35
:1008200080B500F0D5FC80BD70B5054600284FF0BE
:10083000000008BF70BD0C46032912D3A61E28462F
:10084000314600F027F8A95DC2B291421CBF0020DA
:1008500070BD611911F8011CA1EB1020B0FA80F0F5
:10086000400970BD002804BF0020704710B5044641
:1008700000F016F8E178401AB0FA80F0400910BD97
:1008800080B500F001F880BD72B6012080F31088B9
:1008900000F020F880B589B201F0BCF980BD0000FD
:1008A00080B5032101F0DCF980BD000080B5FFF7C1
:1008B000EBFF80BD80B5FFF7E7FF80BD80B5FFF798
:1008C000E3FF80BD4EF623510001CEF20001087017
:1008D000704700004EF60C50CEF20000BFF34F8F71
:1008E0000168042201F4E061C0F2FA521143016090
:1008F000BFF34F8FFEE7000080B5FFF7C5FF80BD57
:1009000080B5FFF7C1FF80BDB0B501380024B4EB5E
:10091000106F1CBF0120B0BD4EF21005CEF20005D5
:1009200068600F20FFF7CEFF0720AC6028602046EC
:10093000B0BD000041F2BC20C2F2000001680131EC
:100940000160704780B582B04EF68851CEF200014A
:100950000A6841F2040042F47002C4F202000A6024
:1009600050F8041C41F0010140F8041C016841F0FA
:100970008001016000210191019A4F2A06D800BF31
:10098000019A01320192019A502AF9D3026842F089
:1009900090020260019101994F2905D80199013116
:1009A000019101995029F9D301684FF6FF7221F0A6
:1009B0000301016050F8041CCEF6F622114040F805
:1009C000041C4FF47F01416000210160816250F8F6
:1009D000041C21F4802140F8041C03F0EFFB4FF0CD
:1009E0000060002103F0A8F902B080BD80B504F0DA
:1009F000C1F880BDB0B541F20004C4F20004204645
:100A0000012103F001FD012823D12046012103F03B
:100A1000F7FC01F01BFF41F2C025C2F20005286877
:100A200000F048FDFA2805D104F57C40182101F0BA
:100A3000CDF9B0BD286800F03DFDB0F5FA7F38BFB4
:100A4000B0BD04F57C40182101F0C2F900F03AFD78
:100A50002860B0BD80B541F2C820C2F2000004F0A9
:100A600007FE04F00BFA80BD80B541F2C820C2F247
:100A70000000C07990B1FFF765FF41F60C50C2F25B
:100A80000000006803F0B8FA40F20C5003F084FA5A
:100A900041F2C820C2F2000003F054FD4FF4802060
:100AA00001F058F980BD000080B5FFF7EDFE80BD74
:100AB000D0F82804806882780A807047D0F828042B
:100AC000406842880A807047D0F82804006802789D
:100AD0000A807047B0B50C460978054601F003015D
:100AE00002290FD0E1B995F8CE00022803D095F87D
:100AF000CE00032814D16088012811D1002085F888
:100B00001A04B0BDA08895F8CE10032908D16188D9
:100B100021B940F08001C9B2802903D10020B0BDC5
:100B20000120B0BDC1B2284604F058FBD5F82C0412
:100B30002146C268284690470020B0BD90F8CE10EC
:100B400000F1CC02032909D002290FD11178B1FAA2
:100B500081F35B09002918BF012109E01378B3FA7A
:100B600083F14909002B18BF012301E00121002373
:100B7000002B1EBFC0F8D8200122C0F8E420084690
:100B80007047000070B50D460978044601F0030176
:100B9000012922D000293FD169884FF0FF3000EBB6
:100BA00011220E2A4FF0010037D8DFE802F00828A2
:100BB0001D36363636363636363636362E0004F1A3
:100BC000E40620463146FFF77FFFE988C4F8D800E5
:100BD000402904BF082030601EE0D4F82C042946C8
:100BE000C2682046904718E001F0FE00052813D89F
:100BF00004F1E402C9B2204600F050F90AE004F121
:100C0000E4012046FFF75AFF04E004F1E401204626
:100C1000FFF74EFFC4F8D8000120D4F8E41099B1D2
:100C2000EA88002A08BF70BD91420AD2B4F8D40005
:100C3000814204D3B1FBF0F202FB101028B1002076
:100C400070BD0020C4F8E42070BD012084F82504A4
:100C5000002070BD024690F8CE0003281CBF012082
:100C60007047888810F0FE0F4FF0010018BF7047E2
:100C7000D2F82C14C2F8E40001310020C2F8D810D8
:100C8000704700000A78898802F00302022A1AD00D
:100C9000012A46D0BABB90F8CE10022903D090F8B2
:100CA000CE1003292FD190F8181490F81A2441F28D
:100CB000C4230029C2F2000318BF0121002A18BF73
:100CC0008A1C1A701BE090F8CE20032A1BD1CAB2EE
:100CD00000F1CC03C2EBC20203EB820C01F07F02F5
:100CE000C2EBC20203EB82020632090658BF0CF5C2
:100CF000D572117841F2C422C2F2000211700021B3
:100D0000012262B102E00121002242B141F2C4227B
:100D1000C2F20002C0F8D8200222C0F8E42008463F
:100D2000704790F8CE2001F0FE0182F003021143DB
:100D3000B1FA81F24FEA521218BF0121002AEED017
:100D4000E4E700000120704710B58A885AB90446CC
:100D5000C88840B9488800F07F0184F8CD1094F825
:100D6000CE00032801D1012010BD204604F0C0F8B8
:100D700094F8CD00002814BF0220012084F8CE0092
:100D8000002010BDB0B50446488841F2C625C2F225
:100D9000000510F0FE0F287001D00120B0BD94F8BE
:100DA000CE1003290ED00229F7D1010611D0D4F8B4
:100DB0002C144A68C1B220469047287884F8CC00A9
:100DC000032012E0010606D094F8CC20C1B28A427A
:100DD0000FD10020B0BDD4F82C148A68C1B22046CF
:100DE0009047287884F8CC00022084F8CE000020B8
:100DF000B0BDD4F82C04826820469047D4F82C0467
:100E000029784268204684F8CC1090470020B0BD75
:100E10000020704780B50A7802F00302022A14D03D
:100E20008AB990F8CE20022A03D090F8CE20032A67
:100E300009D1498801291CBF002080BD012180F80B
:100E40001A14002080BD012080BD8A8890F8CE3021
:100E5000032B1CBF012080BD498821B942F08001CD
:100E6000C9B2802901D1002080BDD1B204F09CF923
:100E7000002080BD80B590F8CE20032A03D18A8857
:100E800012F0FE0F01D0012080BDD0F82C24126991
:100E900002B19047002080BD00207047D0F82804A0
:100EA000C06850F8210001781180704770B588B093
:100EB00046F200444FF4C060C4F2000403F06CF842
:100EC00040F2036003F068F840F2197003F064F830
:100ED0004FF4EA10012100F0DFFF04F52845284611
:100EE000482103224FF4807300F074FF2846182134
:100EF00003224FF4007300F06DFF05A9002000F0FD
:100F0000D7FC6946012000F0D3FC204600F0B8FB76
:100F1000206840F40040206020680004FCD400BF3A
:100F200060688007FCD50420ADF81E0040F6003054
:100F3000C0F2010001250026CDF8150005A92046C4
:100F4000CDF819508DF81D508DF8146000F004FC98
:100F50000E2000F07DFB4FF48030CDE90260684642
:100F6000CDE900668DF8105000F09CFB14200221A2
:100F7000002202F0A3FE2046022100F095FC08B0FA
:100F800070BD0000B0B584B0684600F00FF858B1ED
:100F900003256C4620468DF8045000F0D1F9204618
:100FA00000F004F80028F5D104B0B0BD46F2B85204
:100FB0004FF6546CC4F20002CFF6FF7C52F80C10CE
:100FC00011F0030124D052F8083C5B0D036052F885
:100FD000043C03F00F0343711368837113681B0A09
:100FE000C37113681B0C037213681B0E43725368A2
:100FF000837253681B0AC37253681B0C03735368D4
:101000001B0E437352F80C0040F0200042F80C0015
:10101000002918BF01210846704700002DE9F04162
:1010200046F20843C4F200031F687F0110D41F6812
:1010300001243F0113D41F6817F0805784EA177802
:101040004FF0020408BF0324B8F1000F41D10BE0B8
:101050004FF000080024B8F1000F3AD104E04FF03F
:101060000008B8F1000F34D103F5BC77400547EA1A
:101070000417386003F5BE7040EA0410066802F0F9
:101080000F0226F0BF0606600668A3F1080532438A
:101090000260086803F5C07242EA041210604868F2
:1010A00003F5C27141EA0411086038684FF6FF7613
:1010B00040F0010038604FF47A7700BF284621469F
:1010C00000F044FC16FA87F7B9B2B94201D0002803
:1010D000F4D088F00100BDE8F081000070B588B060
:1010E00046F600044FF4C060C4F2000402F054FF5E
:1010F00040F2036002F050FF40F21A7002F04CFF21
:101100004025C0F220052846002100F0C5FE2846F3
:10111000012100F0C1FE04F524452846202100F0FD
:1011200055FE2846402100F051FE28464821032262
:10113000202300F04FFE284618210322402300F010
:1011400049FE05A9002000F0B3FB6946012000F02C
:10115000AFFB204600F094FA206840F40040206085
:1011600020680004FCD400BF60688007FCD5042020
:10117000ADF81E0040F60030C0F201000125002647
:10118000CDF8150005A92046CDF819508DF81D5051
:101190008DF8146000F0E0FA0E2000F059FA4FF4D8
:1011A000803003904FF4702002906846CDE90066CD
:1011B0008DF8105000F076FA40200221012202F052
:1011C0007DFD2046022100F06FFB08B070BD0000DD
:1011D000B0B584B0684600F00FF858B101256C46F0
:1011E00020468DF8045001F071FC204600F004F810
:1011F0000028F5D104B0B0BD46F6B8124FF6546CD5
:10120000C4F20002CFF6FF7C52F80C1011F003017B
:1012100024D052F8083C5B0D036052F8043C03F004
:101220000F0343711368837113681B0AC37113683A
:101230001B0C037213681B0E43725368837253684E
:101240001B0AC37253681B0C037353681B0E437352
:1012500052F80C0040F0200042F80C00002918BFA2
:1012600001210846704700002DE9F04146F60803C9
:10127000C4F200031F687F0110D41F6801243F01DE
:1012800013D41F6817F0805784EA17784FF00204D0
:1012900008BF0324B8F1000F41D10BE04FF0000864
:1012A0000024B8F1000F3AD104E04FF00008B8F183
:1012B000000F34D103F5BC77400547EA04173860C6
:1012C00003F5BE7040EA0410066802F00F0226F033
:1012D000BF0606600668A3F108053243026008688D
:1012E00003F5C07242EA04121060486803F5C27147
:1012F00041EA0411086038684FF6FF7640F00100BB
:1013000038604FF47A7700BF2846214600F01EFB74
:1013100016FA87F7B9B2B94201D00028F4D088F0A4
:101320000100BDE8F081000080B5014651F8060BD0
:101330000822FFF799FF002818BF012080BD000098
:1013400010B541F6F814C2F20004012102682181AF
:101350000021A1810221628121826169D0F80A20E5
:10136000D0F806004A600860204602F05DFCE069A3
:10137000218C00F061F910BDB0B540F2036002F0BD
:101380000BFE40F60044C4F201042046042103226F
:101390000223022500F01EFD41F68410C2F2000077
:1013A000C0E90045B0BD000080B5032200F0FAF8A6
:1013B00080BD000010B540F2036002F0EDFD40F684
:1013C0000044C4F20104204610210322182300F037
:1013D00001FD40F20020C0F23000012100F05CFD70
:1013E0002046182100F0F2FC10BD0000B0B541F617
:1013F000F814C2F2000441F6184141F6AC3200255F
:10140000C2F20001C2F20002204618236561E561C4
:1014100001F0DEF941F6AC2141F6402204F124004E
:10142000C2F20001C2F200021823A563256401F094
:10143000CFF9B0BD10B5002808BF10BD044600BFED
:101440004FF47A70013C00F003F8002CF8D110BD85
:10145000B0B54EF2180E40F20401CEF2000EC2F208
:101460000001DEF80020096844F6D353C1F262039C
:10147000A1FB03344DF68363C4F21B33A1FB0313BA
:101480004FEA941C9B0C00210CE000BF3EBF21449E
:10149000891A6144B1FBF3F4051B86BF04FB1311E9
:1014A0002846B0BD1446DEF800209442EED921440F
:1014B000891AEFE741F2BC21C2F200010968081A5B
:1014C0007047000041F2BC20C2F200000068704783
:1014D00010B584B040F20400C2F20000006844F687
:1014E000D351C1F26201A0FB01018809FFF70CFA98
:1014F00008B100BFFEE70220FFF7E4F94FF4E06017
:1015000002F04AFD4FF0804002F062FE6C46204639
:1015100002F086FF7720009000204FF6FF71ADF8B3
:1015200004000291ADF80C004FF08040214602F01B
:10153000FDFE4FF0804002F0F3FE04B010BD00004D
:10154000B0B584B040F2047002F026FD36200321CD
:10155000012202F0B3FB41F20004C4F20004204671
:1015600002F036FE6D46284602F05AFF77200090C2
:10157000002040F2E731ADF804000291ADF80C0014
:101580002046294602F0D2FE2046012102F038FF13
:101590002046012102F030FF204602F0C1FE04B0D7
:1015A000B0BD000070B541F6F8160D46C2F2000657
:1015B0001446B6F846106A1E92B28A4213D2014609
:1015C00041F64020C2F200002A46FEF7DDFD06F19A
:1015D0002400294602F0C2FBB08D012803D1204629
:1015E00000F004F870BD002070BD000080B584B02C
:1015F0008DF8040041F6F8100021C2F200008DF8C9
:101600000510C18D806B0091D0E90001CDF8060076
:101610006846CDF80A1000F003F804B080BD000061
:1016200080B5014651F8060B0822FFF7F7FC0028A9
:1016300018BF012080BD000080B541F60A52C2F2F9
:1016400000021278012A08BF03F006F8012080BDCD
:1016500046F20061C4F200010A6800F03F0042F067
:1016600001020A600A6822F47C520A600A6842EAAF
:1016700000200860086820F0010008607047000042
:1016800010B546F20041C4F2000140F21A4488420B
:1016900008BF40F21944204602F09EFC204602F0AA
:1016A0008BFC10BDB0B546F20061C4F20001448964
:1016B0000A684FF0010C42F001020A60CB690CFA93
:1016C00004F5AB43CB61C3896FEA050C012B10D045
:1016D00023BBCB6803EA0C03CB60B0F806E0438879
:1016E00043EA0E434FEAC40E01EBC40423640346ED
:1016F0000DE0CB682B43CB60B0F800E0438843EAB1
:101700000E434FEAC40E01EBC4042364831D848896
:101710001B8843EA044301EB0E04636483894C682D
:10172000002B44EA050208BF04EA0C024A60028961
:101730004B69002A43EA050408BF03EA0C044C6124
:10174000007C012802D1C8692843C861086820F0DC
:1017500001000860B0BD00002DE9F041026840F2D0
:10176000010C22F0020202600268CFF6FF7C42F018
:1017700001026346026000BF426823B112F0010219
:1017800003F10103F8D04268D20704BF0020BDE88E
:10179000F081036ADA0724D143F0010202620A7879
:1017A00091F801E08C789207CD7804F00F0804F0EE
:1017B00070046EF31C624E8942EA841205F007073A
:1017C00005F0180542EA0842013E42EA85226FF31D
:1017D0009F2642EA07523244C26123F001020262AC
:1017E0001DE00A7891F801E08F789207CE7807F033
:1017F0000F0507F070076EF31C624B8942EA8712EF
:1018000006F0070406F0180642EA0542013B42EAE8
:1018100086226FF39F2342EA04521A44C26102688F
:101820000B7922F080024F798E79CD79012B08BF98
:10183000803202600268012F22F0400208BF40326D
:1018400002600268012E22F0200208BF20320260EE
:101850000268012D22F0100218BF103202600A7ACD
:101860000368012A23F0080318BF08330360497A8C
:101870000268012922F0040208BF043202600168F4
:1018800021F00101016000BF42686146BCF1000F18
:1018900004D012F0010201F1010CF5D1002918BFAA
:1018A00001210846BDE8F08142691143416170475A
:1018B00091B1042812D8B0B50C46DFE800F003104F
:1018C000192A35004FF08060A060002060604FF45E
:1018D00000302060B0BD00BFFEE700BFFEE7002083
:1018E0004FF480312074E16020606060A060B0BD82
:1018F0004FF48060A0824FF4007020820120A07419
:1019000000204FF48071A0702180C4E90100E060E4
:10191000B0BD04F10B004321FEF74FFC0020C4F8DA
:101920000700C4E90000B0BD002504F10B00402110
:1019300084F84E50A4F84C50FEF73FFC84F84B500E
:10194000C4E90055C4F80750B0BD0000022906D80C
:1019500049B213A252F821108068084000E000202C
:1019600040F2FF21C0F60001884209DC002804BFD4
:10197000022070470321C0F2004188420BD00CE0E6
:1019800040F20031C0F60001884204D00021C1F2CB
:101990000301884201D1012070470020704700BF39
:1019A00003000004000300080000031010B58121AB
:1019B000044603F073FB2046032103F06FFB20462F
:1019C000822103F06BFB002010BD000080B501F008
:1019D0007F02C2EBC20200EB8203D3F8DC2062B1CB
:1019E000B3F8D4C0B2FBFCF303FB1C222AB90022DB
:1019F000002303F085FB002080BDD0F830040121D6
:101A00000170002080BD0000B0B546F22135C0F65F
:101A1000000505F13C01044603F08CFB05F135019E
:101A2000204603F087FB05F12501204603F082FBE9
:101A300041F20471C2F2000140F20110088000205E
:101A40004FF47A32C1E91302A1F85400082081F85A
:101A500056000020C4F83014B0BD0000C1EBC10135
:101A600000EB8101D0F830240120D1F884125070AD
:101A70000020D164704700004B78D0F83024212B2F
:101A80000ED0202B1AD1C988D0F82CC4C0F88812E7
:101A900002F14201C0F87C1200208CF8013070473E
:101AA000116D42F8421F917CB2F813301171072179
:101AB000A2F80530C0F8D820C0F8E4100020704724
:101AC000D0F82C144A78FF2A0ED0D0F83004D0F881
:101AD0004220B0F84730026590F84620A0F8553013
:101AE00080F85420FF2048700020704780B50178AE
:101AF000A52905D1FEF7B6FE00281CBF002080BD39
:101B0000022080BD80B5B0EE001AB4EE410AF1EEBD
:101B100010FA0DDB9FED071AB4EE410AF1EE10FA50
:101B2000C8BF80BD024610EE101A152002F092FACE
:101B300080BD00BF0000204280B5024620200E215B
:101B400002F088FA80BD000080B502461F20042103
:101B500002F080FA80BD00002DE9F04381B040F230
:101B60004809054641F26028C2F200094FF461704D
:101B7000C2F2000811FB009301FB00F70C46D8F8F5
:101B80002C2039F8071003F559763046904702208B
:101B9000FFF750FC0B202946224602F05BFA022098
:101BA000FFF748FCD8F8302039F807103046904746
:101BB0000220FFF73FFC01B0BDE8F08380B502468C
:101BC00012204FF0804102F045FA80BD80B50246F8
:101BD00013204FF0785102F03DFA80BD80B5B6EE8B
:101BE000001AB4EE410AF1EE10FA02460ADB9FED4C
:101BF000082AB0EE401AB4EE420AF1EE10FAC8BF5D
:101C0000B0EE421A11EE101A142002F023FA80BD31
:101C10000000B442B0B541F65C12C2F20002127884
:101C20000C46002A054608BF00F078FD002D4FF64F
:101C3000FF7018BF002C11D041F25C7C691E00229D
:101C4000C2F2000C11F8013F85B2C0B258403CF816
:101C500010000132A24280EA1520F3D380B2B0BD59
:101C600080B5024600284FF0000018BF002911D0AF
:101C700046F2D24C013A0020C0F6000C002300BF0F
:101C800012F801EFC0B280EA0E001CF80000013328
:101C90008B42F5D380BD0000006800EE100A70474B
:101CA000006870470068704740F2084CC4F2010CAD
:101CB0005CF8083C012923EA00034CF8083C5CF876
:101CC000043C23EA00034CF8043CDCF8003023EA2F
:101CD0000003CCF80030DCF8043023EA0003CCF831
:101CE000043019D021B95CF8081C01434CF8081CD9
:101CF000022A18D0012A6FEA000118D0002A18BF62
:101D00007047DCF800201043CCF80000DCF8040039
:101D10000840CCF8040070475CF8041C01434CF800
:101D2000041C022AE6D1DCF80010014302E0DCF8D2
:101D300000201140CCF80010DCF804100843CCF867
:101D40000400704740F20041C4F201010A681043E8
:101D50000860704740F21441C4F201010860704706
:101D600010EE101A0160704710EE101A01607047F3
:101D700046F22031C0F6000191F800C0BCF1000F1E
:101D80001DD040F24801C2F200014FF4617210FB15
:101D9000021000F5147246F28C30C0F60000431CAD
:101DA000002107E00131614502F1040203F1020361
:101DB00028BF704718780828F4D11068704770471A
:101DC0000C2101EB800080B2704700004161704738
:101DD000016170472DE9F047CF0601F00F0C09D5DE
:101DE000042A05D1C26B4CF0030C1A43C26301E014
:101DF0004CEA020C00F1100E00F1140A00244FF01E
:101E000001094FF00F0800270EE000BF166008FA26
:101E100004F225EA02020CFA04F52A4302600137B3
:101E2000082F04F104040CD009FA07F212EA0306A1
:101E3000F5D0056828295246E8D04829E7D17246EE
:101E4000E4E7082400254FF001094FF00F080FE0E8
:101E5000176008FA05F226EA02020CFA05F6324388
:101E600042600134102C05F1040508BFBDE8F0877D
:101E700009FA04F212EA0307F3D046682829524609
:101E8000E6D04829E5D17246E2E7000080680840C4
:101E900018BF012070470000B0B50422C4F201024F
:101EA000134602F1180E002848BF73461C6800F460
:101EB0004013B3F5401F1FFA80FC06D1156824F0CB
:101EC000E06325F0E064146015E0C3020AD46FF00B
:101ED0000F0303EA50430CFA03F324EA030343F02D
:101EE000E06308E0C0F30343032505FA03F324EAA3
:101EF000030343F0E0636FF00F0404EA5044002949
:101F00000CFA04F518BF2B43002848BF7246136033
:101F1000B0BD000070B582B005460020CDE90000DC
:101F2000A81D0C46FFF7BEFE024601A8694600F058
:101F3000A5FB019E072E34D8DFE806F0040C151E21
:101F4000262E3F0405F10A00FFF7ACFEA0640B2E1D
:101F500030D328E005F10A00FFF79EFE84ED0C0A5D
:101F60000B2E27D31FE005F10A00FFF795FE84ED45
:101F70000D0A0B2E1ED316E005F10A00FFF790FEA6
:101F8000A0630B2E16D30EE005F10A00FFF788FEC2
:101F9000E0630B2E0ED306E005F10A00FFF780FE8A
:101FA00020640B2E06D305F10A00FFF779FE04EB3F
:101FB00086014862012002B070BD05F10A00FFF7FA
:101FC0006BFE84ED110A0B2EF4D3ECE7B0B504469A
:101FD000084600212246002500F040FB2046C4F8B8
:101FE0000A50C4F8065000F0A3FDB0BD2DE9F0433F
:101FF00083B0026805460C4602A801A900F038FB30
:10200000029F2688B74240F0D780019801381228F5
:1020100000F2D280DFE800F00A0F141A2026323EC8
:102020004A565C627C8F9BA7B3BFCB00211D28461C
:1020300000F0FAF9C0E0211D2846FFF76BFFBBE076
:10204000A81DFFF729FE84ED010AB5E0A81DFFF7E2
:1020500023FE84ED020AAFE0A81DFFF71DFE84ED0C
:10206000030AA9E0A81DFFF717FE05F10A0084ED99
:10207000070AFFF711FE84ED040A9DE0A81DFFF793
:102080000BFE05F10A0084ED080AFFF705FE84ED5A
:10209000050A91E0A81DFFF7FFFD05F10A0084ED98
:1020A000090AFFF7F9FD84ED060A85E0A81DFFF790
:1020B000F3FD05F10A0084ED0A0AFFF7EDFD84ED5A
:1020C0000B0A79E004F51471284600F077FA73E002
:1020D00004F51471284600F071FA6DE005F1060868
:1020E0004046FFF7DFFDA4F850034046FFF7DAFD56
:1020F000000C0A35A4F852032846FFF7D3FDA4F8D4
:1021000054032846FFF7CEFD000CA4F8560353E015
:10211000A81D04F1320904F13008FFF7C3FD02469F
:102120004846414601F016FE05F10A00FFF7B4FDEE
:1021300084ED040A40E0A81DFFF7AEFD05F10A009A
:1021400084ED070AFFF7A8FD84ED040A34E0A81D1A
:10215000FFF7A2FD05F10A0084ED080AFFF79CFDD8
:1021600084ED050A28E0A81DFFF796FD05F10A0099
:1021700084ED090AFFF790FD84ED060A1CE0A81D16
:10218000FFF78AFD05F10A0084ED0A0AFFF784FDD6
:1021900084ED0B0A10E0A81DFFF784FDC4F8580376
:1021A00005F10A00FFF77EFDC4F85C0304E0A81DFA
:1021B000FFF778FDC4F86003B81BB0FA80F040095F
:1021C00003B0BDE8F083000010B582B004460846B5
:1021D0000121224600F042FA01A9052000F044FA4C
:1021E0000198A11D02F026F90020C4F80A0020463B
:1021F00000F09EFC02B010BD10B582B00446084647
:102200000121224600F02AFA01A9062000F02CFA4A
:102210000198A11D02F00EF90020C4F80A00204622
:1022200000F086FC02B010BD10B582B0044608462E
:102230000121224600F012FA01A9082000F014FA48
:102240000198A11D02F0F6F80020C4F80A0020460B
:1022500000F06EFC02B010BD10B582B00446084616
:102260000121224600F0FAF901A9072000F0FCF94B
:102270000198A11D02F0DEF80020C4F80A002046F3
:1022800000F056FC02B010BDB0B582B0044608465E
:102290000121224600F0E2F901A90020002500F00A
:1022A000E3F90198A11D02F0C5F82046C4F80A50D0
:1022B00000F03EFC02B0B0BD10B582B00446084646
:1022C0000121224600F0CAF901A9012000F0CCF951
:1022D0000198A11D02F0AEF80020C4F80A002046C3
:1022E00000F026FC02B010BD10B582B004460846CE
:1022F0000121224600F0B2F901A9042000F0B4F94E
:102300000198A11D02F096F80020C4F80A002046AA
:1023100000F00EFC02B010BD10B582B004460846B5
:102320000121224600F09AF901A9032000F09CF94E
:102330000198A11D02F07EF80020C4F80A00204692
:1023400000F0F6FB02B010BD10B5044608460921A6
:10235000224600F083F90020C4F80A00C4F8060001
:10236000204600F0E5FB10BD10B5044608460821E4
:10237000224600F073F90020C4F80A00C4F80600F1
:10238000204600F0D5FB10BD10B5044608461221CA
:10239000224600F063F90020C4F80A00C4F80600E1
:1023A000204600F0C5FB10BD10B5044608461321B9
:1023B000224600F053F90020C4F80A00C4F80600D1
:1023C000204600F0B5FB10BD10B5044608460621B6
:1023D000224600F043F90020C4F80A00C4F80600C1
:1023E000204600F0A5FB10BD10B5044608460721A5
:1023F000224600F033F90020C4F80A00C4F80600B1
:10240000204600F095FB10BD10B5044608460C218F
:10241000224600F023F90020C4F80A00C4F80600A0
:10242000204600F085FB10BD70B582B00546002047
:10243000CDE90000A81D0C46FFF734FC024601A8B8
:10244000694600F01BF9019808284CD8DFE800F035
:10245000050B19282D3C414B46000098002842D11D
:102460000120E0853FE00098E8BB05F10A00FFF796
:1024700013FC0020C4E90100022084ED000AE0857D
:1024800031E0009878BB05F10A0004F12E062C34E7
:10249000FFF708FC02463046214601F05BFC22E0D3
:1024A000009800BB0020A0851DE00098D8B905F178
:1024B0000A0004F12E062C34FFF7F4FB02463046E6
:1024C000214601F047FC0EE0009860B90320E0854A
:1024D00009E0009838B90120E08504E00098002860
:1024E00004BF0120E085012002B070BD10B52DEDC4
:1024F000028B0446084605212246B0EE408A00F0D1
:10250000ADF8A01DB0EE480AFFF72AFC0020C4F881
:102510000A00204600F00CFBBDEC028B10BD000051
:1025200010B52DED028B0446084603212246B0EE7D
:10253000408A00F093F8A01DB0EE480AFFF710FCA7
:102540000020C4F80A00204600F0F2FABDEC028B2D
:1025500010BD000010B52DED028B04460846042185
:102560002246B0EE408A00F079F8A01DB0EE480A8D
:10257000FFF7F6FB0020C4F80A00204600F0D8FA66
:10258000BDEC028B10BD0000B0B582B0054614460C
:1025900008460B212A4600F061F801A9204600F008
:1025A00063F80198A91D01F045FF0020C5F80A0055
:1025B000284600F0BDFA02B0B0BD00002DE9F041A0
:1025C00082B00546002606308846CDE90066FFF752
:1025D00069FB024601A8694600F050F8019F46F2E7
:1025E0008C340A35C0F6000407E02846FFF758FB94
:1025F00048F826000136212E12D004EB4600407820
:102600008742F7D114F816000028EED00128F1D146
:102610002846FFF741FB08EB860080ED000AE9E75A
:10262000002002B0BDE8F08170B582B006461546C4
:1026300008460A2132461C4600F010F801A9284637
:1026400000F012F80198B11D01F0F4FE2068C6F800
:102650000A00304600F06CFA02B070BD00F00F00C6
:1026600040EA01101060704780B2086070470000B7
:1026700002F00F03036010090860704793B2036013
:10268000100C08607047000010B541F66014C2F2EB
:1026900000042060084600F00BF800BF2068002806
:1026A000FCD140F20040C4F2000001F033FE10BD46
:1026B000B0B584B040F20044C4F2000405462046A0
:1026C00001F028FE2046012101F090FE42F6DF6075
:1026D000022D08BF0B20029041F2B420C2F200008C
:1026E00000886946ADF800000020CDF80200ADF882
:1026F0000C008DF80E00204601F018FE2046012146
:1027000001F07EFE204601F05DFD2046012101F032
:1027100073FE204601F004FE04B0B0BD70B541F672
:102720005C1CC2F2000C9CF80000002818BF70BDB1
:1027300041F25C7E00214AF20102C2F2000E00BFAB
:1027400088B20023002400BF80EA03061D4682EA07
:102750005303F60708BF6B084008072C04F1010477
:10276000F2D32EF811300131B1F5807FE8D101208C
:102770008CF8000070BD000080B54369002B1CBFC1
:10278000012080BD802A84BF042080BD4282920047
:10279000416108461146FDF710FD002080BD000094
:1027A00070B50546006800281CBF012070BD802060
:1027B00014460E46FFF704FBA0423CBF042070BD48
:1027C00030462146EC802E60FDF7F7FC002070BDFE
:1027D000F0B581B01D4614460F460646FFF79EFF32
:1027E000304639462A46FFF7C7FF10B1012001B035
:1027F000F0BD28461C36FFF7E3FA02463046214674
:10280000FFF7CEFF002818BF012001B0F0BD000087
:102810000860704710B5002A08BF10BD02394FF09C
:10282000370C4FF0000E00BF0CEB1074B0F1204FCE
:102830004FEA107338BF03F1300401F8024F000172
:10284000013A81F801E0EFD110BD0000B0B582B0CF
:1028500041F68415C2F2000595E81F00009400F0CF
:102860003FF8012806D1A88941097C299CBF013085
:10287000A88105E0E88941097C299CBF0130E881F5
:10288000A88940F2DC51884207D3A87A012811D1E7
:1028900002206881002028740BE014280AD3A87A4B
:1028A00040B9287C01216328A9729CBF013028749B
:1028B0000020E881E889B0F5FA7F06D3287C60B172
:1028C000E8720020287402B0B0BD0C2805D3A87AA5
:1028D00000281EBF0020A872A88102B0B0BD000071
:1028E00080B5FFF7D3FAB0FA80F0400980BD000050
:1028F0002DE9F04F81B040F24800C2F2000041F6ED
:10290000A84C41F6B84E41F6884841F6E84941F6F0
:10291000F84A41F6C84B41F664169FED2E0A9FED2A
:102920002E1A9FED2E2A41F6D84718300021C2F208
:10293000000CC2F2000EC2F20008C2F20009C2F29C
:10294000000AC2F2000BC2F20006C2F2000700BF8A
:10295000A0F114041CCC10ED023A4CF8012009EB54
:10296000010290ED004A82ED003A0BEB010282ED8C
:10297000004A721892ED005A50F8045C25EE005A95
:1029800024EE014A34EE054A4EF8013048F8014081
:102990004AF8015082ED004A7A18043123EE023AD7
:1029A000102900F5617082ED003AD1D10024002594
:1029B000E0B200F037F8022808BF0135032C04F11B
:1029C0000104F5D3280618BF00F096F901B0BDE860
:1029D000F08F00BF6666263F3433B33E0000B44339
:1029E00070B5044600250026E8B200F01BF8022866
:1029F00008BF0136032D05F10105F5D3F0B2042817
:102A000003D1E0B200F064F970BDE0B200F096F8D6
:102A100070BD000080B5FFF7ABF9002818BF01209A
:102A200080BD000040F24801C2F200014FF4617223
:102A300010FB021090F832007047000080B541F69C
:102A40008411C2F20001C87A18B10022CA72FFF7DD
:102A5000C7FFFFF74DFF80BD2DE9F04141F260282F
:102A600040F24805C2F20008C2F20005D8F828205A
:102A70002988044605F5597090470220FEF7DAFCD4
:102A800046F22030C0F600000678002E08BFBDE8F0
:102A9000F0814FF4617014FB005746F28C30C0F6A1
:102AA000000007F55974451E012E98BF012600BF8E
:102AB000D8F85030398815F8022F20469847022060
:102AC000FEF7B8FC013EF3D1BDE8F081F0B591B05E
:102AD00090E886000DF1040C8CE886000DF1140CD2
:102AE0008CE886000DF1240C8CE8860040F2480743
:102AF000C368C2F2000701AC3946049304F1100523
:102B0000089304F120060C93FFF770FA07F5617142
:102B10002046FFF76BFA07F5E1612846FFF766FAF2
:102B200007F68C213046FFF761FA002011B0F0BDA6
:102B300080B5FEF7F9FB002080BD00002DE9F041D3
:102B40000138052800F2C280DFE800F0033E64820D
:102B500090A940F2480841F260260024C2F2000821
:102B6000C2F2000600274546B26A298805F5597069
:102B700090470220FEF75EFCF8B2FEF7DDFF022070
:102B8000FEF758FC0137042F05F56175ECD1092CCF
:102B900004F10104E6D30025ECB22046FEF7D4FF91
:102BA0000220FEF747FC2046FFF708F80220FEF758
:102BB00041FC2046FFF70AF80220FEF73BFC032CFD
:102BC00005F10105E8D381E040F2480641F26027B3
:102BD0000025C2F20006C2F200070EE0FA6A318850
:102BE00006F5597090470220FEF724FC0135042DAC
:102BF00006F5617608BFBDE8F081ECB22046FFF72C
:102C000011FF0228EAD02046FFF704FF0028EAD08F
:102C10003A6BE4E740F2480541F260260024C2F234
:102C20000005C2F2000600BFE0B2FFF7FBFE03287A
:102C30000CBF326CF26B298805F559709047022061
:102C4000FEF7F8FB0134042C05F56175ECD13DE08D
:102C5000002500BFECB22046FFF7FEFE0220FEF783
:102C6000E9FB032C05F10105F4D32FE041F26025C7
:102C700040F248060024C2F20005C2F2000600BF7E
:102C80006A6C3019315B00F5597090470220FEF7ED
:102C9000D1FB04F56174B4F5616FF1D116E041F236
:102CA000602540F248060024C2F20005C2F2000688
:102CB000AA6C3019315B00F5597090470220FEF77D
:102CC000B9FB04F56174B4F5616FF1D1BDE8F08131
:102CD00080B5811E0A2908D241F60851C2F20001CE
:102CE00008700220FEF7A6FB80BD0128F9D1022062
:102CF000FFF724FF0120EFE72DE9F04F81B02DED24
:102D0000088B86B041F60850C2F200000078811EA0
:102D1000092900F23B87DFE811F00A006000AB00F0
:102D20002F016E01D3019A020603D5032D0341F64C
:102D30000951C2F200010978814240F0EA8340F271
:102D4000480441F6D84641F698479FED7C8A9FEDAE
:102D50007C9A9FED7CAA41F26029C2F20004002512
:102D6000C2F20006C2F200070FF65468C2F2000970
:102D700006E000BF0435102D04F5617400F00687ED
:102D8000701990ED001A781990ED000A31EE401A92
:102D9000B0EEC12AB4EE482AF1EE10FAEADDB4EE44
:102DA000492AF1EE10FAE5DCB5EE401A4146F1EEA3
:102DB00010FAC8BF043191ED001AD9F8042030EEA2
:102DC000011A81EE0A0A218880ED001A04F5597073
:102DD00090470220FEF72EFBCCE741F60950C2F2E5
:102DE00000000078032840F0C9839FEDE70B40F214
:102DF00048005BEC108B9FEDE60BC2F2000041F245
:102E0000602AA0F561756FF0030457EC106BC2F2F5
:102E1000000A00BF41F6E840C2F2000020444068CA
:102E2000FDF77EFA42465B46FDF7D2F932463B4655
:102E3000FDF7CEF941EC100B02F042FD51EC100B06
:102E4000FDF781FA00EE100ADAF80820B5F88413CD
:102E500005F5DD6030EE000A05F561799047022046
:102E6000FEF7E8FA04340C2C4D46D3D100F08EBEA8
:102E700041F60950C2F200000078042840F0B48303
:102E800040F2480441F6641A41F6D84841F69847A2
:102E900041F6741941F260269FED2A9AC2F20004AD
:102EA0000025C2F2000AB2EE0E8AC2F20008C2F297
:102EB0000007C2F20009C2F20006B2EE04AA1AE04C
:102EC00009EB050191ED001A30EE010A80ED000AD0
:102ED000781990ED000A726880EE090A218804F5DD
:102EE000597090470220FEF7A5FA0435102D04F51D
:102EF000617400F04B860AEB050090ED000AB0EE1D
:102F0000C00AB4EE480AF1EE10FA1DDD08EB050028
:102F100090ED000A781990ED001AB4EE410AF1EE36
:102F200010FACDDBB4EE410AF1EE10FAD0DD09EB78
:102F3000050191ED001A30EE410AC7E7000070422A
:102F40000000F0420000B443B4EE4A0AF1EE10FA79
:102F5000BEDDB4EE480AF1EE10FAB9DA781990ED58
:102F6000000A08EB050090ED001A09EB050030EEB1
:102F7000410AB0EEC00AA9E741F60950C2F20000CA
:102F80000078052800F0028641F6E840C2F2000011
:102F9000071F41F69840C2F200009FED7F8A1FEDA7
:102FA00017AA061F0025B2EE0E9A00BFECB204204D
:102FB0002146FEF7D1FD0220FEF73CFAB0EE480AAA
:102FC0002046FEF70BFE0220FEF734FAB0EE490A67
:102FD0002046FEF797FD0220FEF72CFA97ED010A36
:102FE000013520EE0A0A043786ED010A0436042D65
:102FF000DCD100F0CBBD41F60950C2F200000078F0
:10300000062840F025839FED660B40F2480641F606
:10301000D84841F6984941F6D01A41F2602BC2F2E5
:1030200000060027C2F20008C2F2000955EC104B5E
:10303000C2F2000AB0EE008AC2F2000BB8EE009AAB
:1030400013E000BF82ED001ADBF80830318892ED02
:10305000000A06F5597098470220FEF7EBF904378D
:10306000102F06F5617600F0918508EB070090EDD2
:10307000000A09EB070090ED001A31EE400A10EE4D
:10308000100AFDF74DF922462B46FDF7A1F8FDF792
:103090005AF900EE100AB4EE480A0AEB0702F1EE04
:1030A00010FAB0EE481A4AF80700CBDCB4EE490A31
:1030B000F1EE10FAB0EE491AB8BF82ED001AC3E77C
:1030C00041F60950C2F200000078072840F0018361
:1030D0009FED350B40F2480A51EC100B9FED300B81
:1030E000CDE9041051EC100B9FED310B41F6E01BC4
:1030F000C2F2000AC2F2000BB1EE049ACDE902104E
:1031000051EC100B0024CDE900100AE00220FEF77C
:1031100091F904340AF5617A102C0BF1020B00F0DE
:10312000358541F6F840C2F20000204490ED00AA37
:103130001AEE100A20F00040FDF7F2F8064641F6BC
:10314000E810C2F20000051995ED008A0F4618EE4E
:10315000100A20F00040FDF7E3F8DDE90432804674
:103160008946FDF735F832463B46FDF7BEF838BBD9
:10317000BBF800000021B1EB902F85ED00AA40D1F3
:1031800001303CE000BF00BF1F85EB51B81E094075
:1031900000000000000018409A99993F00BF00BF4E
:1031A0009A9999999999C93F9A9999999999F13FB9
:1031B000CDCCCCCCCCCCEC3F00000C420000B443D6
:1031C000DDE9003240464946FDF702F832463B460B
:1031D000FDF770F8A8B9BBF8000005280BD341F241
:1031E0006020C2F200008268BAF800100AF5597037
:1031F000B0EE480A9047BBF8000010B10138ABF8B8
:10320000000041F6C840C2F20000204490ED000AE0
:10321000B0EEC00AB4EE490AF1EE10FA7FF776AFCD
:103220002868FDF77DF8DDE90232FCF7D1FFFDF7F4
:103230008AF800EE100A286041F26020C2F2000015
:103240008268BAF800100AF5597090475EE741F6B7
:103250000950C2F200000078082840F07E8241F652
:10326000E846C2F2000696ED000A96ED011A41F614
:10327000A817C2F2000741F2602540F2480430EE80
:10328000410A97ED001AC2F20005C2F20004AA68D2
:10329000218830EE010ABBEE0E8A20EE080A04F502
:1032A000597090470220FEF7C5F896ED000A96ED9A
:1032B000011A97ED002A30EE410AAA68B4F8841387
:1032C00032EE000AB1EE049A20EE090A04F5DD6040
:1032D00090470220FEF7AEF896ED020A96ED031A2B
:1032E00041F6B417C2F2000730EE410A97ED001A1A
:1032F000AA68B4F8081730EE010A20EE080A04F6AE
:103300006C2090470220FEF795F896ED020A96EDA4
:10331000031A97ED002AAA68B4F88C1A30EE410A15
:1033200032EE000AC5E041F60950C2F20000007812
:10333000092840F0618241F6E84441F69815C2F24E
:103340000004C2F2000594ED000A95ED001A30EE7B
:10335000411AB5EE401AF1EE10FA80F2708394ED46
:10336000011A41F6AC1031EE400AC2F2000080EDC5
:10337000000A7DE341F60950C2F2000000780B28F4
:1033800040F0BB8241F6E846C2F2000641F6C017A3
:1033900096ED000A96ED011AC2F2000797ED003A89
:1033A00041F6CC1896ED032A30EE411AC2F200081D
:1033B00031EE031A98ED003A41F2602940F24804D8
:1033C00030EE420AC2F20009C2F2000430EE430AB3
:1033D000D9F80820218831EE000ABBEE0E8A20EED3
:1033E000080A04F5597090470220FEF723F896ED7D
:1033F000000A96ED011A97ED003A41F6C41796EDD2
:10340000022A31EE400AC2F2000730EE430A97ED7D
:10341000003A31EE421A31EE031AD9F80820B4F816
:10342000841330EE010AB9EE049A20EE090A04F57D
:10343000DD6090470220FDF7FDFF41F6C81596EDCF
:10344000021A96ED032AC2F2000595ED003A96EDB8
:10345000010A31EE422A32EE032A97ED003A31EEAC
:10346000400A30EE430AD9F80820B4F8081732EEC3
:10347000000A20EE080A04F66C2090470220FDF7AF
:10348000D9FF96ED021A96ED032A95ED003A96EDD6
:10349000000A32EE411A31EE431A98ED003A32EE4C
:1034A000400AD9F80820B4F88C1A30EE030A31EE3D
:1034B000000A20EE090A04F55F6090470220FDF73C
:1034C000B9FF63E341F60950C2F2000000780A2810
:1034D00040F0768241F6E84441F6A015C2F20004BD
:1034E000C2F2000594ED000A95ED001A30EE411A83
:1034F000B5EE401AF1EE10FA80F2D48294ED011A82
:1035000041F6B81031EE400AC2F2000080ED000A28
:10351000E9E241F6E840C2F20000071F41F6984098
:10352000C2F200001FEDDC8A1FEDDCAA061F002599
:10353000B3EE099AECB204202146FEF70DFB0220FF
:10354000FDF778FFB0EE490A2046FEF747FB022060
:10355000FDF770FFB0EE480A2046FEF7D3FA0220CE
:10356000FDF768FF97ED010A013520EE0A0A0437DE
:1035700086ED010A0436042DDCD107E341F6E8406C
:10358000C2F20000071F41F69840C2F200001FED92
:10359000F5AA061F0025B3EE048AB3EE099A00BF10
:1035A000ECB202202146FEF7D7FA0220FDF742FFD7
:1035B000B0EE480A2046FEF711FB0220FDF73AFF65
:1035C000B0EE490A2046FEF79DFA0220FDF732FFD1
:1035D00097ED010A013520EE0A0A043786ED010A4B
:1035E0000436042DDCD1D1E241F6E840C2F20000FD
:1035F000071F41F69840C2F200009FEDEF9A061FA8
:103600000025B3EE0E8A00BFECB204202146FEF77F
:10361000A3FA0220FDF70EFFB0EE480A2046FEF79F
:10362000DDFA0220FDF706FFB0EE480A2046FEF75D
:1036300069FA0220FDF7FEFE97ED010A013520EE42
:10364000090A043786ED010A0436042DDCD19DE217
:1036500041F6E840C2F20000061F41F69840C2F26F
:103660000000A0F1040941F6D010C2F200009FED65
:10367000D2AA051F4FF00008B2EE048AB3EE0E9AEC
:10368000002700BFFCB202202146FEF765FA0220A7
:10369000FDF7D0FEB0EE480A2046FEF79FFA022062
:1036A000FDF7C8FEB0EE490A2046FEF72BFA0220CD
:1036B000FDF7C0FE96ED010A013720EE0A0A043636
:1036C00089ED010A09F1040945F8048F042FD9D1C5
:1036D0005CE241F6E840C2F20000061F41F6984065
:1036E000C2F20000A0F1040A41F6E810C2F20000A4
:1036F0009FEDB19A41F6E018051F4FF00009B3EEB7
:103700000E8AC2F200080027FCB202202146FEF712
:1037100023FA0220FDF78EFEB0EE480A2046FEF79F
:103720005DFA0220FDF786FEB0EE480A2046FEF75D
:10373000E9F90220FDF77EFE96ED010A28F81790C0
:1037400020EE090A013704368AED010A0AF1040A5B
:1037500045F8049F042FD7D118E241F6E84841F616
:103760009840C2F20008C2F200009FED948A9FEDDB
:1037700092AAA8F10405071F0026B3EE0E9A00BF17
:10378000F4B202202146FEF7E7F90220FDF752FECF
:10379000B0EE480A2046FEF721FA0220FDF74AFE65
:1037A000B0EE490A2046FEF7ADF90220FDF742FED1
:1037B00095ED010A013620EE0A0A043587ED010A6B
:1037C0000437042EDCD198ED000A98ED011A41F679
:1037D000A81098ED022A98ED033A31EE400AC2F2A1
:1037E000000080ED000A41F6B41033EE420AC2F246
:1037F000000080ED000AC9E102200021FEF7ACF9CB
:103800000220FDF717FE9FEDEC8A0020B0EE480A7B
:10381000FEF7E4F90220FDF70DFEB3EE0E9AB0EECE
:10382000490A0020FEF76EF90220FDF703FE04208E
:103830000121FEF791F90220FDF7FCFDB2EE04AA8A
:10384000B0EE4A0A0120FEF7C9F90220FDF7F2FDA9
:10385000B2EE0EBAB0EE4B0A0120FEF753F9022089
:10386000FDF7E8FD41F6E844C2F2000494ED000AD9
:1038700094ED011A41F6AC1031EE400AC2F200009C
:1038800080ED000A02200221FEF766F90220FDF712
:10389000D1FDB0EE480A0220FEF7A0F90220FDF7A4
:1038A000C9FDB0EE490A0220FEF72CF90220FDF70F
:1038B000C1FD04200321FEF74FF90220FDF7BAFDF8
:1038C000B0EE4A0A0320FEF789F90220FDF7B2FDA7
:1038D000B0EE4B0A0320FEF715F90220FDF7AAFD12
:1038E00094ED020A94ED031A41F6B01031EE400A4D
:1038F000C2F2000080ED000A48E141F6E84841F6D6
:103900009840C2F20008C2F200009FEDAB8A9FED22
:10391000ABAAA8F10405071F0026B3EE0E9A00BF5C
:10392000F4B202202146FEF717F90220FDF782FDCE
:10393000B0EE480A2046FEF751F90220FDF77AFD65
:10394000B0EE490A2046FEF7DDF80220FDF772FDD1
:1039500095ED010A013620EE0A0A043587ED010AC9
:103960000437042EDCD198ED000A98ED011A41F6D7
:10397000C01098ED022A31EE404AC2F2000080EDFC
:10398000004A41F6C41098ED033A32EE411AC2F2F1
:10399000000080ED001A41F6C81033EE421AC2F260
:1039A000000080ED001A41F6CC1030EE430AC2F25E
:1039B000000080ED000AE9E00000B4430000484246
:1039C0009FED7D8A0025B3EE0E9A00BFECB2022077
:1039D0002146FEF7C1F80220FDF72CFDB0EE480AA3
:1039E0002046FEF7FBF80220FDF724FDB0EE490A61
:1039F0002046FEF787F80220FDF71CFD032C05F199
:103A00000105E3D341F6E840C2F2000090ED000A60
:103A100090ED011A90ED022A90ED033A41F6B810AC
:103A200031EE400AC2F2000080ED000A41F6BC10FF
:103A300033EE420AC2F2000080ED000AA6E041F235
:103A40006020C2F2000041F6AC11426840F248002A
:103A5000C2F20001C2F2000091ED001AB0F8841326
:103A600030EE010A00F5DD6090470220FDF7E2FC30
:103A700041F69C16C2F2000694ED020A96ED001A79
:103A8000206830EE411AB5EE401AF1EE10FA2860C7
:103A900045DA94ED031A41F6B01031EE400AC2F255
:103AA000000039E041F2602041F6B813C2F2000094
:103AB00094ED011AC2F20003826840F2480093EDCF
:103AC000002AC2F2000030EE410AB0F8841332EE50
:103AD000000AB1EE041A20EE010A00F5DD609047FD
:103AE0000220FDF7A7FC41F6A416C2F2000694EDF1
:103AF000020A96ED001A206830EE411AB5EE401A1F
:103B0000F1EE10FA28601EDA94ED031A41F6BC10AB
:103B100031EE400AC2F2000080ED000A34E041F2CA
:103B20006020C2F2000041F6B011426840F2480045
:103B3000C2F20001C2F2000091ED001AB0F88C1A36
:103B400030EE010A1AE041F2602041F6BC13C2F2E5
:103B5000000094ED031AC2F20003826840F24800AC
:103B600093ED002AC2F2000030EE410AB0F88C1A40
:103B700032EE000AB1EE041A20EE010A00F55F6091
:103B800090470220FDF756FCA068306041F60952CC
:103B900041F60850C2F20002C2F20000117800782B
:103BA000814218BF10700220FDF744FC06B0BDEC46
:103BB000088B01B0BDE8F08F000048420000B4431C
:103BC0000000F0C20000F0424FF4A06000F0AAF83C
:103BD0004FF4C06000F0E0F9FDF77AFCFDF706FC59
:103BE00000F02CFF00F0B2FF41F2C82040F2380292
:103BF00040F20803C2F20000C2F20002C2F2000367
:103C0000012101F04FFB00F0E1FEFDF74FF9FDF758
:103C100065FAFDF7CFFBFDF793FCFDF7ADFB00BFA9
:103C2000FEF70CFFFCE7000070B50446008AA521F2
:103C300080006080E06921700170A078E1694870BF
:103C4000E078E1698870E069FCF72AFEE16920719B
:103C5000C870207AE1690871607AE1694871A07AD8
:103C6000E1698871E07AE169C871207BE1690872D5
:103C7000607BE1694872208A618A884284BF04209F
:103C800070BD8200E06961690A3092B2FCF77CFA8B
:103C9000268A0A2000EB8601E0698DB22946FCF7EE
:103CA000F9FDE16920834855607EE1696A1C88540A
:103CB0000C2000EB86002084002070BD70B51546F6
:103CC0004EF60C52CEF2000212680E4602F4E0618B
:103CD000A1F54071B1F5A06F044601D2080A04E0D5
:103CE0004FF4A06000F01EF8022006FA00F1C0F1C7
:103CF00004000F2222FA00F0284008434EF200117F
:103D0000CEF20001000144EA010282F8000304F04F
:103D10001F00012202FA00F01C2202EAD4025050D5
:103D200070BD000040F080604EF60C5140F0FD7018
:103D3000CEF20001086070474FF68072C1F6FF7244
:103D4000114008434EF60851CEF200010860BFF35F
:103D50004F8F7047130C03800A807047B0B504463C
:103D6000C0690D46FDF7C2FE00281CBF0220B0BD91
:103D7000E06901782170B0F801106180C2788B0889
:103D8000227101F10C0291B2A9422284238202D84D
:103D9000628C914201D90420B0BDFCF745FD98B179
:103DA000E16988882081C88860810A896069A28168
:103DB00062880A31FCF7E8F96088E1690A3080B26C
:103DC000085A20830020B0BD0320B0BDB0B547F233
:103DD0000003C4F200031A6841F67C4E22F003028D
:103DE0001A60D3F800C04EF2100240EA0C00CEF286
:103DF00000021860D2F8000D41F6784C40F0040043
:103E0000C2F8000D1068C2F2000CCCF80000D2F825
:103E1000F000C2F2000ECEF80000D2F8F43041F605
:103E20008040C2F200000360D2F8F84041F68443BB
:103E3000C2F200031C6014680425C0F201052C4086
:103E400014604FF63D04CFF67F74C2F870416FF4F2
:103E5000E064C2F874414FF0FF34C2F8784119B100
:103E600040BF20BF20BF00E030BFDCF80010116071
:103E7000DEF80010C2F8F0100068C2F8F40018680C
:103E8000C2F8F800D2F8000D20F00400C2F8000DCE
:103E9000B0BD000010B541F20402C4F20202116884
:103EA00001F00C01082941F20021C0F27A013FD152
:103EB0001368DB0304D440F6001CC0F23D0C21E083
:103EC000936AD2F828C05B0046F60043C0F2DC23B8
:103ED00058BF0B465FEACC310ED5916AC1F3031C83
:103EE000916A0CF1010CC1F30321B3FBFCF3023125
:103EF000112908BF14214B43916A01F00F010131D0
:103F0000B3FBF1FC13681168C3F3834E102303EA7B
:103F10005161714401230F2938BF02230B440F2B39
:103F200011BF03FB0CF10CEB4C01490001EB5C01F0
:103F30001368D2F800C0146803280DD8C3F3031324
:103F40000FA2D25C0FF2480E21FA02F3DFE800F074
:103F50001502070F184610BD0021084610BDCCF30E
:103F600002201EF8000023FA00F1084610BDC4F339
:103F7000C2201EF8000023FA00F1084610BD00BF61
:103F80000000000000000000010203040607080909
:103F9000000000000102030441F2000300F01F01D1
:103FA0008009C4F202034FF0010CC2580CFA01F16F
:103FB0001143C1507047000041F2000300F01F019F
:103FC0008009C4F202034FF0010CC2580CFA01F14F
:103FD00022EA0101C150704741F2000300F01F01C5
:103FE0008009C4F202034FF0010CC2580CFA01F12F
:103FF0001143C1507047000041F20401C4F20201B4
:104000000A6822F44002104308607047B0B50446C5
:104010000078062809D142F20010C4F202000068BC
:10402000002818BFC4F80200B0BD4FF2E871C1F615
:10403000FF7108688A68801808BFB0BD4D68A11C70
:104040000822FEF7E7FB04F1120128460422FEF7DE
:10405000E1FBB0BD2DE9F04F81B02DED028B82B0B8
:1040600046F22033C0F600031F780091D7B3804694
:1040700000984FF4617108EE100A40F24800C2F255
:10408000000012FB010B46F28C30C0F600000BF56D
:10409000597A461C0DF10409012F98BF012712E03F
:1040A00000984946FEF7B4FB41F26020C2F20000DE
:1040B000C56CBBF80010504622464B46A847013F4E
:1040C00006F102060ED034784445F8D116F8010CFA
:1040D0000028E5D00128E7D1B0EE480A4846FDF7B0
:1040E00043FEE1E702B0BDEC028B01B0BDE8F08F0A
:1040F00041F20400C4F2020050F8041C41F4803183
:1041000040F8041C4FF6FE7150F8043C4A1E8A42E7
:1041100003D213F400311146F6D050F8041C890381
:1041200001D400BFFEE742F20001C4F202010A68B6
:10413000032363F302020A6001684FF6FF72016015
:104140000168CDF6C3720160016841F480610160CD
:1041500001681140016001684FF2000241F0005116
:1041600041F454110160816ACBF6FE721140816204
:10417000816A41F4843141F01901816250F8041CD4
:1041800041F0806140F8041C50F8041C0901FBD583
:1041900050F8041C41F0807140F8041C50F8041CD5
:1041A0008901FBD5016821F003010160016841F03C
:1041B0000201016001680907FCD5704780B5FFF76F
:1041C00097FF80BD016841F08001016070470000E9
:1041D00010B541F6FF31C4F2000188421BDC40F605
:1041E000FF31C4F20001884230DD41F2FF31C4F2F8
:1041F0000001884251DC40F60041C4F200018842CF
:104200006AD041F20001C4F20001884240F081808E
:1042100040F2044477E043F2FF31C4F201018842E6
:1042200026DD44F6FF71C4F20101884244DC43F20A
:104230000041C4F20101884251D044F60041C4F269
:104240000101884265D140F213345CE0B0F1804F47
:1042500048D040F20041C4F20001884245D040F607
:104260000001C4F20001884253D140F202444AE006
:1042700041F60041C4F20001884239D042F2000107
:10428000C4F20001884236D042F60041C4F2010176
:1042900088423ED140F20B3435E041F20041C4F295
:1042A000000188422AD041F60001C4F20001884290
:1042B0002FD140F2064426E045F20001C4F201018C
:1042C00088421ED045F20041C4F20101884218BF65
:1042D00010BD40F2153416E040F2034413E040F202
:1042E0000D3410E04FF480640DE040F201440AE028
:1042F00040F2074407E04FF4816404E040F20544D3
:1043000001E04FF445742046FFF766FE2046FFF7B4
:1043100053FE10BD016821F00101016070470000EB
:10432000016841F0010101607047000080B50A8812
:1043300043F2004C826240F6FF32C4F20002904227
:10434000C4F2010C0FDCB0F1804F1AD040F20043F0
:10435000C4F20003984214D040F60003C4F20003F4
:1043600098420ED01DE040F60043C4F2000398428C
:1043700007D0604505D042F60043C4F201039842DD
:104380000FD1036823F0700303604B88026803F0C9
:1043900060031A4302608A88036802F010021A431D
:1043A000026041F20002D1F808E020F48063C4F218
:1043B00000029342C0F82CE009D0026822F4407257
:1043C00002608A89036802F440721A430260604501
:1043D00005D042F60042C4F20102904201D1897B2D
:1043E0000163416941F00101416180BDC26822EA77
:1043F0000101C16070470000C2681143C16070478D
:10440000C943016170470000C26800690A40084062
:1044100018BF0120002A18BF012210407047000079
:1044200000214FF6FF72016081808260818181737B
:10443000704700000860704770B50C4605460020C4
:104440000221012A287169702A701CBF012070BDE9
:1044500040F200464FF48162C5F200064FF0A041E1
:104460006A804FF48172E87106F58060E960A5F812
:104470000520C4E9001004F10C006C21A660FBF7D4
:104480009CFE06F14000A06704F17C003C21FBF794
:1044900094FE06F52060C4F8B800E87890B1EA68A8
:1044A000E87804F1200102F53062012898BF01206C
:1044B000A2F5007341F8042F013802F1200241F8FF
:1044C000183CF5D1A87890B1EB68A878211F03F5C6
:1044D000A06203F58053012898BF01200A64C1F847
:1044E000803004312032013803F58053F6D10020AA
:1044F00070BD000070B541F2C825C2F2000505F19B
:10450000100495F8EC602046102100F08FFC06F0B6
:104510000F0004EB8000C368406A0021FF2219618C
:104520009A600368B3F1FF3F4FF0000302DC0368B9
:1045300043F0904303600161826028694FF4801169
:10454000416170BDC17951B141698968C90708BF2E
:104550007047D0F8C800016821F00301016070477E
:1045600070B5049C0D4601F47F412068B1F5807F51
:10457000C5F3074617D1816B21F4803181631EB1E9
:10458000816B41F480118163C1684FF6BF72CFF631
:10459000DF721140C160C16821F48011C160204602
:1045A00000F028F817E0C16841F04001C1602046E2
:1045B00000F020F82068816B41F450218163816B09
:1045C00041F4001181631EB1816B41F4801181635C
:1045D000142000F01DFAE8B2012808D12068816893
:1045E00021F01E018160816841F02A018160002074
:1045F00070BD000080B50068016941F001010161F2
:104600000169C907FCD1032000F032FC80BD000025
:10461000416B1822C6F208020A610279012A18BF0A
:10462000704700F21C404861086840F08020086034
:10463000704700000068C26822F0C042C26029B121
:10464000012918BF70474FF0005101E04FF0804141
:10465000C2681143C1607047F0B581B041F2C8240F
:10466000C2F20004D4F8305494F8CE20032A30D19A
:104670000246287818B1FFF73DFF002621E00B46DF
:104680002046812100F03CFD002600272878B8B99B
:10469000204600F053F9701CD4F8305447F1000163
:1046A000B6F5807277F1000206460F46EED341F66A
:1046B0000A50C2F2000000260670FFF71BFF00E060
:1046C00001260020287041F2C820C2F2000000F04C
:1046D00035F906F0010001B0F0BD00004069416805
:1046E00021F00201416070474069416841F00201D8
:1046F000416070474069026822F4FE62026002680D
:1047000042EA0111016070472DE9F04381B0814612
:10471000D0F8C8004FF00008C0F80080D9F81400A5
:1047200009F11005016821F4C051016001680160C0
:10473000016821F00301016099F80010012912D1EC
:10474000016841F003010160284600F0D5F9002717
:1047500029A600BF36F81720F9B2284600F0D0F994
:104760000137042FF6D12846102100F05FFB2846C0
:1047700000F0A6F9D9F814004FF0FF31C0F810800E
:10478000C0F814808161C0F81C8099F8031039B317
:1047900099F8031009F11C02FF230026012998BF94
:1047A000012106E0013902F104023D603E61BB6077
:1047B00016D0176800253C68B4F1FF3F4FF00004A5
:1047C00002DC3C6844F090443C603D61BB6097690A
:1047D0003C68B4F1FF3FE5DC3D6845F09045E1E71A
:1047E000016941F010010161484600F009F800201C
:1047F00001B0BDE8F08300BF400080000000000071
:1048000001694FF0FF324A606FF080424A6140F622
:104810000002C8F200028A61007918B9886940F084
:1048200010008861886943F20802C0F23C0202432A
:1048300000208A61704700002DE9F04F83B0C1EB82
:10484000C10200EB820C654635F8D42F00F1100947
:104850002F462C4657F8083F54F80C6F09EB810B94
:104860009B1B5BF80C6F9342029088BF1346B269A2
:10487000033392B2B2EB930F03D2012003B0BDE831
:10488000F08F012088400CF1D806C0435FFA81FA0E
:10489000019008E0DBF8000008F10301806980B2B4
:1048A000B0EB910FE9D3206839688142E5D92A88B5
:1048B000A1EB0008904588BF904631681FFA88F345
:1048C0004846524600F0C0FA3068396840443060CB
:1048D0002068404488422060DCD102984069416BE6
:1048E000019A11404163D5E70068816821F0010118
:1048F000816070470068816841F001018160704704
:1049000040698169C069084000F03F0070470000BD
:1049100040698169C069084000F03F0070470000AD
:10492000426900EB81001369526BC06922FA01F100
:10493000C901C9B280681943084070472DE9F043A6
:1049400081B00446FFF7DCFFE0B3054600274FF0D7
:1049500080084FF00109002607E000BFB7EB550FB4
:104960004FEA550506F101062CD0E807F6D0F1B262
:104970002046FFF7D5FF00900098C0070CD10098A3
:104980000006EBD520463146FFF756FF04EB8600C4
:10499000C069C0F80880E1E704EB8600C0693146D1
:1049A000C0F80890204600F033FC002EE7D12079B3
:1049B0000128E4D194F824040528E0D12046FFF72B
:1049C00027FEDCE7012001B0BDE8F08380B54FF49D
:1049D000A060FFF7A7F9432002210022FFF76EF93C
:1049E00040F21C70FFF7D8FA4FF48020FDF7B2F9BF
:1049F0004FF4802000210022FDF756F94FF480206B
:104A0000FDF7A0F92A2001210022FFF757F980BD08
:104A100080B50121FDF738FE80BD00004069816945
:104A2000C0690840C0F305407047000000EB8101F9
:104A3000496B8968406940690840704780B500202B
:104A4000FFF728FA4DF2FF71C0F2B851884241F6E3
:104A50000C51C2F200010EDC46F60042C0F2DC222C
:104A6000904218D04AF20022C0F24A4290421FD12E
:104A70000020052216E04DF60002C0F2B852904226
:104A80000DD040F60062C0F22772904210D14FF470
:104A90000000092206E04FF48000032202E04FF4F8
:104AA0004000072241F2B423C2F200031A800860DA
:104AB0000868FFF7A1FA40F20C50FFF76DFA80BDCD
:104AC00080B50068102101610169C906FCD403208A
:104AD00000F0CEF9002080BD03320023B3EB920F2B
:104AE00008D0C36F9208081F1968013A40F8041FE4
:104AF000FAD1011D08467047006880214162704765
:104B000010B5D0F800C0DCF82400D1B1DCF82830B2
:104B1000B1F1010E00EB13430CD00021002000BFC7
:104B20000CEB8101D1F804410130C1B28E4503EB99
:104B30001443F5D843EA02400CEB8E01C1F804019E
:104B400010BD40EA0240CCF8280010BD80B54FF0FF
:104B500000600021FFF7F0F84FF4A060FFF7E2F8E3
:104B60001D2001210022FFF7A9F840F20170FFF794
:104B700013FA80BD10B540F20044C4F20004204690
:104B80000121FFF741FC002808BF10BD204601218C
:104B9000FFF736FC41F66010C2F20000016819B15F
:104BA00001680139016010BD2046FFF7B3FB10BD5D
:104BB00080B581B00022009291F90020B2F1FF3F50
:104BC00002F00F0E08DD00EB8E02536B0EF1100C9D
:104BD000012202FA0CF205E000EB8E03DB690122F0
:104BE00002FA0EF200921A68120427D4D3F800C019
:104BF0004FF60002CFF6334202EA0C02BEF1000F7C
:104C00001A6002D0B1F804C009E04269926802F06B
:104C1000060C46F27632C0F6000212F80CC01A6892
:104C200042EA0C021A6049781A6842EA8E5242EA55
:104C3000814141F0805141F400411960009942697D
:104C4000D06901430020D16101B080BD91F90020FD
:104C5000B2F1FF3F02F00F0200EB8200CCBF406BCD
:104C6000C069026822F400120260497801F0FE0176
:104C7000022903D1016841F0805101600020704792
:104C800091F90010B1F1FF3F01F00F0100EB81023B
:104C900002DD526B103100E0D269136823F4004347
:104CA000136042690120D369884023EA0001002093
:104CB000D1617047B0B582B00A7800F1100E02F0F1
:104CC0000F020EEB8203DC682368019323690093D3
:104CD000009B03F060430093CB6853B16AB1B1F815
:104CE00004C06344013BB3FBFCFC009B43EACC43A0
:104CF0000DE0009B43F4002316E0B1F804C06345C7
:104D000038BF9C46C1F80CC0009B43F400230093BD
:104D1000D1F80CC0009B43EA0C0300934B78012BA5
:104D200003D1009B43F000530093009B236191F853
:104D300001C0BCF1010F09D143699D68019BED05DC
:104D400054BF43F0005343F0805301930379012B88
:104D500004BF8D696561019D45F004450195019D84
:104D6000256093B9BCF1010F07D1D1F808C08B8938
:104D70007046614600F068F807E0C96829B14069EB
:104D80000121436B914019434163002002B0B0BD43
:104D900010B50A7812F00F0200EB8202526BD2F8C3
:104DA00000C014698B8804F0604E0BD0CC684CB105
:104DB0001C44013CB4FBF3F44EEAC44E634343EAA3
:104DC0000E0303E043EA0E0343F40023136100796A
:104DD000012804BF886950614878012806D1C87845
:104DE00000280CBF4CF0805C4CF0005C4CF004419F
:104DF0000020116010BD000091F90010B1F1FF3FDB
:104E000001F00F0100EB810001DD416B08E0C16999
:104E10000868B0F1FF3F03DC086840F0804008609C
:104E2000086840F4001200200A60704780B58901CC
:104E300000682031016100BF01698906FCD40320AC
:104E400000F016F8002080BD03F1030C0023B3EB43
:104E50009C0F0AD000EB8200C06F4FEA9C0304391C
:104E600051F8042F013B0260FAD100207047000086
:104E700080B50221FDF708FC80BD0000B0B541F20D
:104E8000C820C2F20000D0F8305490F8CE000328B9
:104E90002CD1687801281BD141F60A50C2F20000DB
:104EA00001210170AC1C41F2C820C2F200000321B4
:104EB0002246402300F00AF9E86C38B1402803D8B4
:104EC00081B22046FCF770FA0020E8640020687088
:104ED0002878012818BFB0BDFFF70CFB0020287010
:104EE00041F2C820C2F20000FFF728FDB0BD00006B
:104EF00080B5FFF7FFFB80BD80B590F8CE20032A78
:104F000003D18A8812F0FE0F01D0012080BDD0F8B5
:104F10002C24D268904780BD80B5FFF7DFFB0320CB
:104F2000FFF776FD80BD000010B5D0F87C22D0F8E8
:104F300088320021044600F0C9F8D4F88802B4F899
:104F40007812042288424FF0000088BF032284F8C0
:104F5000242410BD10B5D0F8D820D0F8E4300021BA
:104F6000044600F0CDF8D4F8E400B4F8D4100222DE
:104F700088424FF0000088BF012284F8242410BD2D
:104F800010B50446062084F824042046002100229F
:104F9000002300F09BF82046FFF73AFB002010BDED
:104FA00010B50446052084F8240420460021002280
:104FB000002300F0A5F82046FFF72AFB002010BDD3
:104FC00080B5FFF791FB0320FFF722FD80BD0000B5
:104FD0002DE9F04F83B0C1EBC10200EB820C6546B6
:104FE00035F8D42F00F110092F462C4657F8083F0A
:104FF00054F80C6F09EB810B9B1B5BF80C6F934211
:10500000029088BF1346B269033392B2B2EB930F9A
:1050100002D203B0BDE8F08F012088400CF1D80621
:10502000C0435FFA81FA019009E000BFDBF800009D
:1050300008F10301806980B2B0EB910FE9D32068D9
:1050400039688142E5D92A88A1EB0008904588BFDC
:10505000904631681FFA88F348465246FFF7F4FE3F
:10506000306839684044306020684044884220609D
:10507000DCD102984069416B019A11404163D5E748
:1050800010B58021044600F08FF82046002100F082
:105090008BF82046FFF7BCFA10BD00004AB2B2F10F
:1050A000FF3F06DDC1EBC10100EB810101F51D7180
:1050B00006E001F07F01C1EBC10100EB8101D031BD
:1050C00080B5FFF7DDFD002080BD000080B501F058
:1050D0007F01C1EBC10100EB8101C1F8803203798E
:1050E0004FF0000CC1F87C22012BC1F884C208BF2C
:1050F000C1F88C2201F51D71FFF74AFE002080BD2A
:1051000080B501F07F01C1EBC10100EB8101C1F865
:10511000DC3003794FF0000CC1F8D820012BC1F826
:10512000E0C008BFC1F8E820D031FFF7C3FD002080
:1051300080BD000010B58A78B1F804C04FFA82FE35
:10514000BEF1FF3F0CDDC2EBC20200EB820393F81D
:10515000744203F51D7204F07F0483F874420AE080
:105160000EF07F02C2EBC20200EB820212F8D03FC7
:1051700043F08003137013780EF00F0403F0F00374
:1051800023441370C97846F27C3301F00301C0F662
:10519000000353F82110A2F804C051701146FFF724
:1051A00007FD002010BD00004AB2B2F1FF3F06DD4E
:1051B000C1EBC10100EB810101F51D7106E001F0B9
:1051C0007F01C1EBC10100EB8101D03180B501222B
:1051D0008A70FFF711FE002080BD00004AB2B2F1D4
:1051E000FF3F06DDC1EBC10100EB810101F51D713F
:1051F00006E001F07F01C1EBC10100EB8101D0317C
:1052000080B500228A70FFF721FD002080BD0000DC
:10521000B0B5044659B194F8CE00032805D1D4F8AE
:105220002C04C2690AB1204690470020B0BD94F812
:105230002404022815D00128F7D1B4F8D400D4F8FA
:10524000E4102279091A012AC4F8E41004D1D4F830
:10525000D8100844C4F8D8002046FFF77BFE002091
:10526000B0BD94F8250450B120460021002200234F
:105270000025FFF745FF002084F82554B0BD94F8C1
:10528000CE00032805D1D4F82C04416909B1204689
:1052900088470020C4F8E4002046FFF771FE002094
:1052A000B0BD000070B582B00446C0F82824D068B4
:1052B000C4F82C34C0680E46FEF7A8FE04F11005B1
:1052C000204629463246FFF7B7F82846FFF70CFB81
:1052D00094E80F000095FFF743F92046FFF770FEB2
:1052E00028460021FFF7A6F92046FFF70DFA2846C9
:1052F000FFF700FB2046FFF70FFE012084F8CE00E9
:1053000002B070BDD0E90421D1F808C04B6823F485
:1053100080734B604B6843F480734B60D1684FF4EB
:10532000A05321F47051D1601CF006014FF002012E
:1053300008BF03214170D06808BF4FF410531843D1
:10534000D0604FF400505061704700002DE9F047E5
:1053500082B00446FFF7DCFA00283FD005464FF044
:1053600000084FF080094FF0010A002607E000BF57
:10537000B8EB550F4FEA550506F101062ED0E807A8
:10538000F6D0F7B220463946FFF7CAFA01900198E5
:10539000C0070DD101980006EAD520463146FFF737
:1053A00017FE04EB8600C069C0F80890E0E700BF74
:1053B00004EB8600C0693946C0F808A02046FFF714
:1053C00027FF002EE6D120790128E3D194F82404A8
:1053D0000528DFD12046FFF71BF9DBE702B0BDE867
:1053E000F08700002DE9F04F83B08346FFF716FBEE
:1053F000002851D005460D274FF000084FF008094E
:105400004FF0010A002408E0B8EB550F4FEA5505AC
:1054100007F1010704F11C043ED0E807F4D0A7F11E
:105420000D00C6B258463146FFF700FB02900298C5
:10543000C0070BD102980007E6D5584600F0C4F922
:105440005BF82700C0F80890DEE700BF5BF8270094
:10545000C0F808A09BF8041001290BD10069019045
:105460000BEB0400B0F87812019A6FF3DF42891A4F
:10547000C0F884125846314600F06AF9002CD9D1A0
:105480009BF804000128D5D19BF824040628D1D12B
:105490005846FFF7BDF8CDE703B0BDE8F08F000038
:1054A00070B5416904464A68103022F001024A6032
:1054B00000210025FFF7BAFCE07860B1E078002118
:1054C000FF2200BF04EB8103DE695B6B0131814287
:1054D000B2609A60F6D360694FF0FF3181614FF09E
:1054E0000111C1610921012641610661016821F4B0
:1054F000FE6101602046FFF78BF820694FF4805170
:105500004161402004F51D71A4F878022046C4F8DA
:105510007452C4F88A52C4F88652C4F88252C4F84D
:105520007E52C4F87A52A4F88E52FFF741FB8020D5
:10553000214621F8D00F4FF48000C4F8D200204655
:10554000C4F8D650C4F8DA50C4F8DE50C4F8E250BB
:10555000C4F8E650A4F8EA50FFF72AFB84F8CE60BE
:1055600070BD000070B582B000210191044654F86E
:10557000101F8A6922F010028A61096A019101995B
:10558000019D019A019B01F00F01C3F34343062BD8
:10559000C5F30A1517D0022B2ED16DB3C1EBC10193
:1055A00000EB8106D6F87C1220462A46FFF794FAD3
:1055B000D6F87C02D6F884122844C6F87C02481932
:1055C000C6F8840218E012F4C03F15D1082D01BFBF
:1055D000C1EBC10100EB810595F8741211F00F01C8
:1055E0000AD100F21C4120460822FFF775FAD5F8CF
:1055F00084020830C5F884022068816941F01001F6
:10560000816102B070BD000010B582B00446C0795F
:105610008DF807006069806800F001008DF80600D1
:1056200094F8CE000338B0FA80F040098DF80500F8
:1056300094F8CE0084F8CF00042084F8CE009DF8C2
:10564000070078B19DF8060060B19DF8050048B1EB
:10565000D4F8C800016841F0030101600120002175
:10566000FEF7B4FB20694FF40061416102B010BD48
:10567000B0B5044600694169C90767D141698069CD
:1056800010EA010562D0280309D468030CD4280568
:105690000FD4B5F1FF3F12DD280719D421E02046D1
:1056A000FFF7A0FE6803F2D52046FFF74FFE28055E
:1056B000EFD52046FFF7A8FFB5F1FF3FECDC032054
:1056C00084F8CE0020694FF000414161280708D5D9
:1056D000D4F82C04416A09B1204688472069082182
:1056E000416141F2B82115F01000C2F200010860DA
:1056F00006D1E80409D4A8040CD4E80219D50EE0B8
:105700002046FFF72FFFE804F5D52046FFF7C8FE37
:10571000A804F2D52046FFF7F5FDE80209D5D4F834
:105720002C04816A09B12046884720694FF4801112
:105730004161A80258BFB0BDD4F82C04C16A09B1B8
:105740002046884720694FF400114161B0BD000038
:1057500010B5044659B1D4F82C04026A2AB194F861
:10576000CE00032801D120469047002010BD94F8B8
:105770002404042815D00328F7D1B4F87802D4F80B
:1057800088122279091A012AC4F8881204D1D4F89F
:105790007C120844C4F87C022046FFF7C5FB0020B9
:1057A00010BD94F8CE00032805D1D4F82C048169EB
:1057B00009B1204688470020C4F888022046FFF738
:1057C000EFFB002010BD000010B582B00446D0F8F9
:1057D0002004D4F81C14019001F0600040280091CE
:1057E00008D020280CD0B8B96946204600F02CF823
:1057F00058B914E06946204600F048F828B90EE090
:1058000069462046FFF778FB48B169462046FFF716
:1058100037FC002002B010BD01200028F5D1BDF8F2
:10582000060040B19DF90000B0F1FF3F07DD2046C2
:10583000FFF77AFBEDE72046FFF7B2FBE9E72046EA
:10584000FFF788FBE5E7000080B54A7802A353F82C
:105850002220904780BD00BF850C0008D50A0008B3
:10586000450D0008150E0008450D0008490D0008FB
:10587000850B0008110E00083D0B0008850D00087F
:10588000550C0008750E0008990E0008002070479E
:1058900003B401984100009850EAC12018BF0420C9
:1058A0004A0D18BF40F0010040F2FF72B2EB515FA9
:1058B00008BF40F00200012808BF052002B0704771
:1058C00010B52F499FED2C1B2DED020B84B00598D0
:1058D00020F000408842DCBF00209DED040B32DD4B
:1058E0002849884209D1049840B94FF0010000F0DE
:1058F0006FFC00F03DFC06B010BD05DB9DED040B18
:1059000000F02AFC06B010BD68469DED040B00F0C7
:105910003BF810F0030011D0012818D09DED021BB8
:105920009DED000B02281AD000F04AFA51EC100B42
:1059300081F0004106B041EC100B10BD9DED021B43
:105940009DED000B012000F06FFB06B010BD9DED3A
:10595000021B9DED000B00F033FA06B010BD0120D4
:1059600000F062FB51EC100B81F0004106B041ECFD
:10597000100B10BD0000000000000000000000003F
:10598000FB21E93F0000F07F2DE9F14F04462DEDAA
:10599000020B2DED088B8AB09FEDE70B80ED020B1B
:1059A000139EE74826F0004585420ADC9DED120B68
:1059B000002084ED000B0AB0BDEC088B03B0BDE8FD
:1059C000F08FE0489FEDE0AB9FEDE1BBA84247DDE3
:1059D000E14F9FEDE39B9FEDE48B9DED120B53ECAC
:1059E0001A2B51EC100B002E1CDDFAF72FFE41ECA8
:1059F000100BBD4208D053EC1B2B51EC100BFAF7E7
:105A000025FEC4E900010BE053EC192B51EC100BFF
:105A1000FAF71CFE53EC182BFAF718FEC4E9000144
:105A20000120C8E7FAF771FD41EC100BBD4208D028
:105A300053EC1B2B51EC100BFAF767FDC4E9000186
:105A40000BE053EC192B51EC100BFAF75EFD53EC05
:105A5000182BFAF75AFDC4E900014FF0FF30AAE70E
:105A6000C348A84279DB9DED120B51EC100B00F0FE
:105A7000B5FB41EC180B9FEDC00B53EC102BFAF764
:105A8000A7FB9FEDBF1B53EC112BFAF73EFDFAF776
:105A900070FE0746FAF74FFE41EC190B53EC1A2B38
:105AA000FAF796FB53EC182BFAF7D3FD41EC180BE1
:105AB00053EC1B2B51EC190BFAF78AFBDFF8C8A249
:105AC00041EC100B4FEA15580125FA4453EC102B0A
:105AD00051EC180BFAF7BAFD032DC4E900013DD0D3
