:020000040800F2
:10000000D8610020650100082107000811070008D9
:100010001907000805050008DD08000800000000B9
:100020000000000000000000000000008907000838
:100030006D0500080000000081070008BD070008EA
:100040007F0100087F0100087F0100087F01000890
:100050007F0100087F0100087F0100087F01000880
:100060007F0100087F0100087F0100087F01000870
:100070007F0100087F0100087F0100087F01000860
:100080007F0100087F010008FD0400087F010008CF
:100090000D0500087F0100087F0100087F010008AE
:1000A0007F0100087F0100087F0100087F01000830
:1000B0007F0100087D0800087F0100087F0100081B
:1000C0007F0100087F0100087F0100087F01000810
:1000D0007F0100087F0100087F01000885080008F3
:1000E0007F0100087F0100089D0800087F010008CB
:1000F0007F0100087F0100087F0100080000000068
:100100007F010008000000007F0100087F01000857
:100110007F0100087F0100087F0100087F010008BF
:100120007F0100087F0100087F0100087F010008AF
:100130007F01000800000000000000007F010008AF
:100140007F0100087F0100087F0100088D0800087A
:10015000DFF80CD000F094F9004800473D62000839
:10016000D86100200648804706480047FEE7FEE7C2
:10017000FEE7FEE7FEE7FEE7FEE7FEE7FEE7FEE757
:10018000D5070008510100082DE9F05F0546002061
:1001900092469B4688460646814640241BE02846F8
:1001A00041464746224600F0DCF853465A46C01AFC
:1001B000914110D311461846224600F0C3F82D1A7B
:1001C00067EB01084F4622460120002100F0BAF8F3
:1001D00017EB00094E41201EA4F10104DFDC484664
:1001E00031462A464346BDE8F09F2DE9F041002400
:1001F000061B254671F1000605DA01240027D0EB25
:10020000070067EB0101161E73F1000605DA0027EF
:10021000D2EB0702012567EB0303FFF7B5FF864624
:100220000E4617469C46AC4204D00025D0EB050E86
:1002300065EB010624B10020D2EB000760EB030C54
:10024000704631463A466346BDE8F08140EA010314
:100250009B0703D009E008C9121F08C0042AFAD27C
:1002600003E011F8013B00F8013B521EF9D2704740
:10027000D2B201E000F8012B491EFBD270470022E8
:10028000F6E710B513460A4604461946FFF7F0FF95
:10029000204610BD30B5041E71F1000404DB4FF0A0
:1002A0000044404264EB0101141E73F1000405DBBD
:1002B0001C464FF00043524263EB0403801A9941FD
:1002C00001D2012030BD002030BD30B40446962359
:1002D0000800214604D0B62330BC002200F05AB8F2
:1002E00020460021F8E700F0004230F000400AD03C
:1002F000C10D01F56071C0F3160042EA0151C20858
:1003000040071143704700200146704701F0004349
:1003100030B421F0004150EA010206D00A0DA2F5E6
:100320006072C1F31301002A02DC30BC0020704768
:10033000440F44EAC104C100E01830BC00EBC250D5
:1003400000F01FB8202A04DB203A00FA02F1002056
:1003500070479140C2F1200320FA03F31943904003
:100360007047202A04DB203A21FA02F0002170476E
:1003700021FA02F3D040C2F120029140084319460D
:1003800070470029A8BF7047401C490008BF20F0F3
:100390000100704710B4B0FA80FC00FA0CF050EA8B
:1003A000010404BF10BC704749B1CCF1200421FA0C
:1003B00004F411FA0CF118BF012121430843A3EB07
:1003C0000C01CB1D4FEA00614FEA102042BF002014
:1003D00010BC704700EBC35010440029A4BF10BCF0
:1003E0007047401C490008BF20F0010010BC704756
:1003F00010B541000CD0C0F3C751962908DC7E2906
:1004000009DC06DB410204D000F0004040F07E50E1
:1004100010BD002010BDC1F19604C4F1200100FA06
:1004200001F1E040FFF7ADFFA04010BDF0B400F0D7
:10043000004221F0004120F00040CE0DC30DC1F379
:10044000160141F40001C0F316004C42154640F479
:100450000000761E09E010EB440002D582F0004255
:1004600040428842F7D840005B1EB342F9DA18B127
:10047000F0BC0021FFF78EBF2846F0BC704700009B
:10048000064C074D06E0E06840F0010394E80700E1
:1004900098471034AC42F6D3FFF75EFE3092000866
:1004A0005092000870B58C1810F8015B15F0070326
:1004B00001D110F8013B2A1106D110F8012B03E0FD
:1004C00010F8016B01F8016B5B1EF9D12B0705D405
:1004D0000023521E0DD401F8013BFAE710F8013B4E
:1004E000CB1A921C03E013F8015B01F8015B521E6A
:1004F000F9D5A142D8D3002070BD000080B501F02D
:1005000061FD80BD80B500F035F880BD80B500F09C
:1005100061FF80BD70B5054600284FF0000008BFA0
:1005200070BD0C46032912D3A61E2846314600F0A2
:1005300049F8A95DC2B291421CBF002070BD61198B
:1005400011F8011CA1EB1020B0FA80F0400970BD39
:10055000002804BF0020704710B5044600F038F8AA
:10056000E178401AB0FA80F0400910BD80B500F083
:1005700001F880BD72B601F04FFD01F091FA05F06F
:1005800063FB4FF0000E41F2873C00220023002164
:10059000581C41F10004773B71F1000103462146EC
:1005A00000BFF5D31EF1010142F10003BEEB0C00C8
:1005B00072F100008E461A46E8D3012080F31088BD
:1005C00000F0BAF880B589B202F03EFA80BD0000B2
:1005D00080B5032102F05EFA80BD000080B508B34B
:1005E00045F2C411C2F200010A7850F8043C002A16
:1005F00018BF4FF000421A4214D0A0F1080CDCF8EA
:100600000010002918BF80BD23EA020140F8041C35
:1006100045F2C810C2F20000026811440160604651
:1006200006F074F880BD00002DE9F04141F2B816E3
:10063000C2F2000631680446002908BF06F02AF815
:1006400045F2C415C2F200052878002818BF4FF003
:100650000040204259D144B114F0070004F10801D0
:100660001CBF081A00F1080100E0002145F2C8187B
:10067000C2F20008D8F800004A1E824245D245F274
:10068000D010C2F2000007683C4654F8042F8A429A
:1006900011D23B685BB100BF1C4654F8042F3846AA
:1006A0001F468A4207D23B68002BF5D103E045F292
:1006B000D010C2F2000033689F4226D006683B6823
:1006C000521A112A036004D378184260216006F0A0
:1006D0001DF845F2CC112068D8F80020C2F20001C4
:1006E0000B68121A9A42C8F8002038BF0A602978AD
:1006F00006F10800226800294FF0000118BF42F0FF
:10070000004222603960BDE8F0810020BDE8F08140
:1007100080B5FFF72FFF80BD80B5FFF72BFF80BDB1
:1007200080B5FFF727FF80BD4EF623510001CEF2C2
:1007300000010870704700004EF60C50CEF2000029
:10074000BFF34F8F0168042201F4E061C0F2FA5256
:1007500011430160BFF34F8FFEE700004EF60C50CF
:10076000CEF20000BFF34F8F0168042201F4E06174
:10077000C0F2FA5211430160BFF34F8FFEE7000051
:1007800080B5FFF7F7FE80BD80B5FFF7F3FE80BDB3
:10079000B0B501380024B4EB106F1CBF0120B0BD10
:1007A0004EF21005CEF2000568600F20FFF7BCFF87
:1007B0000720AC6028602046B0BD000040F2D05059
:1007C000C2F20000D0E90012013142F10002C0E99A
:1007D0000012704780B582B04EF68851CEF200010B
:1007E0000A6841F2040042F47002C4F202000A6096
:1007F00050F8041C41F0010140F8041C016841F06C
:100800008001016000210191019A4F2A06D800BFA2
:10081000019A01320192019A502AF9D3026842F0FA
:1008200090020260019101994F2905D80199013187
:10083000019101995029F9D301684FF6FF7221F017
:100840000301016050F8041CCEF6F622114040F876
:10085000041C4FF47F01416000210160816250F867
:10086000041C21F4802140F8041C06F06BFA4FF0C0
:100870000060002105F098FD02B080BD80B507F052
:10088000C9F980BD80B501F08FFD80BD80B540F213
:100890006860C2F2000007F03BFF80BD80B540F207
:1008A0006860C2F20000C07990B1FFF793FF45F293
:1008B000C010C2F20000006806F042F840F20C508E
:1008C00006F00EF840F26860C2F2000006F08EFEFC
:1008D0004FF4802002F010FA80BD000080B5FFF7D1
:1008E00049FE80BDC00F7047D0F828048068827828
:1008F0000A807047D0F82804406842880A80704710
:10090000D0F82804006802780A807047B0B50C4619
:100910000978054601F0030102290FD0E1B995F8E5
:10092000CE00022803D095F8CE00032814D16088A9
:10093000012811D1002085F81A04B0BDA08895F8CF
:10094000CE10032908D1618821B940F08001C9B2D5
:10095000802903D10020B0BD0120B0BDC1B228461E
:1009600007F08CFCD5F82C042146C2682846904735
:100970000020B0BD90F8CE1000F1CC02032909D0C0
:1009800002290FD11178B1FA81F35B09002918BF50
:10099000012109E01378B3FA83F14909002B18BF4C
:1009A000012301E001210023002B1EBFC0F8D82045
:1009B0000122C0F8E42008467047000070B50D46DB
:1009C0000978044601F00301012922D000293FD112
:1009D00069884FF0FF3000EB11220E2A4FF0010022
:1009E00037D8DFE802F008281D3636363636363678
:1009F000363636362E0004F1E40620463146FFF73F
:100A00007FFFE988C4F8D800402904BF082030607F
:100A10001EE0D4F82C042946C2682046904718E00E
:100A200001F0FE00052813D804F1E402C9B2204603
:100A300000F050F90AE004F1E4012046FFF75AFF04
:100A400004E004F1E4012046FFF74EFFC4F8D800AB
:100A50000120D4F8E41099B1EA88002A08BF70BDDB
:100A600091420AD2B4F8D400814204D3B1FBF0F22F
:100A700002FB101028B1002070BD0020C4F8E42053
:100A800070BD012084F82504002070BD024690F856
:100A9000CE0003281CBF01207047888810F0FE0F8D
:100AA0004FF0010018BF7047D2F82C14C2F8E400D0
:100AB00001310020C2F8D810704700000A788988F8
:100AC00002F00302022A1AD0012A46D0BABB90F8DB
:100AD000CE10022903D090F8CE1003292FD190F820
:100AE000181490F81A2440F258630029C2F2000347
:100AF00018BF0121002A18BF8A1C1A701BE090F849
:100B0000CE20032A1BD1CAB200F1CC03C2EBC20231
:100B100003EB820C01F07F02C2EBC20203EB820204
:100B20000632090658BF0CF5D572117840F25862AA
:100B3000C2F2000211700021012262B102E0012123
:100B4000002242B140F25862C2F20002C0F8D8203E
:100B50000222C0F8E4200846704790F8CE2001F049
:100B6000FE0182F003021143B1FA81F24FEA521200
:100B700018BF0121002AEED0E4E7000001207047F1
:100B800010B58A885AB90446C88840B9488800F028
:100B90007F0184F8CD1094F8CE00032801D1012004
:100BA00010BD204607F0F4F994F8CD00002814BFDA
:100BB0000220012084F8CE00002010BDB0B504460C
:100BC000488840F25A65C2F2000510F0FE0F287006
:100BD00001D00120B0BD94F8CE1003290ED0022917
:100BE000F7D1010611D0D4F82C144A68C1B22046BE
:100BF0009047287884F8CC00032012E0010606D044
:100C000094F8CC20C1B28A420FD10020B0BDD4F8F4
:100C10002C148A68C1B220469047287884F8CC000A
:100C2000022084F8CE000020B0BDD4F82C048268E5
:100C300020469047D4F82C0429784268204684F84E
:100C4000CC1090470020B0BD0020704780B50A78D6
:100C500002F00302022A14D08AB990F8CE20022AA8
:100C600003D090F8CE20032A09D1498801291CBF5E
:100C7000002080BD012180F81A14002080BD0120D1
:100C800080BD8A8890F8CE30032B1CBF012080BD28
:100C9000498821B942F08001C9B2802901D10020E0
:100CA00080BDD1B207F0D0FA002080BD80B590F8A9
:100CB000CE20032A03D18A8812F0FE0F01D0012032
:100CC00080BDD0F82C24126902B19047002080BD6D
:100CD00000207047D0F82804C06850F8210001783F
:100CE00011807047816841F00801816081680907BF
:100CF000FCD4816841F00401816000BF816849072C
:100D0000FCD4704780B5012908D0022918BF80BDE6
:100D10004FF4401E6FF4401C382304E04FF4700E73
:100D20006FF4700C2C23195801EA0C0119500EEBCA
:100D300002511A5801EA0E011143195080BD0000FA
:100D40008268002922F4006218BF02F50062826006
:100D50007047000010B542F20041C4F20101884220
:100D600009D042F60001C4F20101884218BF10BD4B
:100D700040F20A3401E040F20934204605F0D0FD8B
:100D8000204605F0BDFD10BD816841F48071816091
:100D9000704700008168C90718BF7047816841F03B
:100DA0000101816070470000002A01F0010203D0B8
:100DB0007AB9890713D470471AB1826822F4801275
:100DC0008260890758BF7047816821F400418160C3
:100DD0007047826842F4801282608907EBD581688F
:100DE00041F4004181607047012905D0022918BFF4
:100DF00070476FF4E04101E06FF4602183681940AF
:100E000081608168114381607047000080B5D0F82F
:100E100038C0D0F838E0CCF3015CA1EB0C0101EB59
:100E2000810101F10F0C1F2101FA0CF12EEA010ED4
:100E300002FA0CF141EA0E01092A816304D800F19B
:100E4000100C02EB420107E0112A88BF80BD02EBC3
:100E5000420100F10C0C1E39DCF80020072088400C
:100E600022EA000003FA01F10843CCF8000080BD3B
:100E700003298EBF002000EB8100C06B80B2704759
:100E8000CA0703D0426842F0400242608A0703D595
:100E9000426842F020024260490758BF70474168EB
:100EA00041F0800141607047026822EA010101605F
:100EB0007047000042F20441C4F201010A6822F4C2
:100EC00070220A600A6810430860704710B505294F
:100ED00004D800F1340C01EB810E10E00B2906D888
:100EE00001EB810100F1300CA1F11E0E07E00F298A
:100EF00010D801EB810100F12C0CA1F13C0EDCF8C3
:100F000000101F2404FA0EF4A14302FA0EF4214348
:100F1000CCF80010092A03D8103002EB420106E099
:100F2000112A88BF10BD02EB42010C301E39026845
:100F300007248C40A24303FA01F11143016010BD64
:100F4000CA0703D0826842F480028260890758BFD2
:100F50007047816841F4001181607047002A01F4F4
:100F6000807205D0BAB94A051BD489071FD47047CF
:100F70001AB1426822F4807242604A0503D5426881
:100F800022F480624260890758BF7047816821F06F
:100F9000020181607047426842F4807242604A05F3
:100FA000E3D5426842F4806242608907DFD58168F8
:100FB00041F0020181607047B0B540F2026005F077
:100FC0008FFC40F2096005F08BFC002005F0CCFBA3
:100FD00042F20044C4F20104A4F5E0552846002181
:100FE0000422082301F0E8FF2846002104220123FF
:100FF00001F0E2FF284600210422022301F0DCFF79
:101000002046FFF7A7FE4FF4A020FFF753FF20462E
:1010100002210122FFF7A2FF20464FF48071012236
:10102000FFF79CFF20460021FFF78AFE20460121A2
:101030000122FFF767FE2046002103220123FFF76C
:1010400045FF204602210222FFF75CFE20460021D8
:1010500000220123FFF7DAFE2046012101220123AD
:10106000FFF7D4FE204601214FF46022FFF7BCFEBB
:10107000204601210122FFF797FE204602214FF46E
:101080008052FFF7B1FE204602210122FFF78CFEBD
:1010900012200021002205F049F920460421FFF723
:1010A00003FF20460421FFF7EBFE2046FFF772FE08
:1010B0000120002101F026F82046FFF713FE20460C
:1010C000FFF762FE20460121FFF73AFFB0BD0000A6
:1010D00010B540F2026005F003FC40F20A6005F032
:1010E000FFFB42F60004C4F20104A4F50050002105
:1010F0000422042301F060FF2046FFF72BFE204668
:101100000021FFF71DFE204602210122FFF7FAFD14
:101110002046002102220123FFF778FE204602210B
:101120004FF4E042FFF760FE204602210122FFF764
:101130003BFE2046FFF72EFE0120002100F0E2FFDB
:101140002046FFF7CFFD20460221FFF7F9FE10BD34
:101150002DE9F04188B0002740F20260079705F0C2
:10116000BFFB4FF4C06005F0BBFB40F20C6005F024
:10117000B7FB40F60004C4F20104204610214FF0F2
:10118000100801F017FF204610210322102301F060
:1011900013FF204618210322A02301F00DFF204653
:1011A00004210322402301F007FF04F520552846BF
:1011B00005F00EFC6E46304605F04EFC4FF4827092
:1011C00000904FF400600290012005904FF40070F1
:1011D000039008200690284631460197049705F0B1
:1011E00021FC284605F0E8FB07A8C4F8108000F0B1
:1011F00003F808B0BDE8F0812DE9F04381B043F277
:10120000000540F610098046C4F20105C4F2010948
:10121000102042F21174C9F8040000BF28460221D0
:1012200005F0FAFB064620B9013CF7D14FF0FF3438
:1012300000E00024284643F6FF7105F0C7FB42F2A8
:10124000117700BF2846012105F0E6FB26B118B949
:10125000013FF7D14FF0FF34284605F0B3FB1021D2
:10126000002CC9F8001004BF6FF39F30C8F80000CD
:10127000B4FA84F0400901B0BDE8F08380B506F00F
:101280002DFC06F0B3FC40F2686040F2380240F2F8
:101290000803C2F20000C2F20002C2F20003012100
:1012A00007F050F806F0E6FB00F0E0FB00F006F86F
:1012B00001F026F800F094F980BD000070B588B008
:1012C00046F2004440F21970C4F2000405F008FB35
:1012D00040F2036005F004FB4FF4C06005F000FB32
:1012E0004FF4EB10002101F0C9FE4FF4EA10002189
:1012F00001F0C4FE4FF4EA10012101F0BFFE04F535
:10130000284528464FF4807101F052FE28464FF4DC
:10131000007101F04DFE2846482103224FF48073EE
:1013200001F04AFE2846182103224FF4007301F011
:1013300043FE05A9002001F033FA6946012001F0BF
:101340002FFA204601F0B4F8206840F400402060F5
:1013500020680004FCD400BF60688007FCD504202E
:10136000ADF81E0040F60030C0F201000125002655
:10137000CDF8150005A92046CDF819508DF81D505F
:101380008DF8146001F060F94FF48030CDE902600F
:101390006846CDE900668DF8105001F09BF80E20EC
:1013A00001F06EF8002000210222002301F0ECF889
:1013B000002000210022002301F0E6F81420032180
:1013C000012204F0B3FF2046022101F0E5F908B044
:1013D00070BD000010B584B001208DF8040068468F
:1013E00000F00CF840B16C46204600F0D3FC2046DB
:1013F00000F004F80028F7D104B010BD46F2B8524E
:101400004FF6546CC4F20002CFF6FF7C52F80C1079
:1014100011F0030124D052F8083C5B0D036052F830
:10142000043C03F00F0343711368837113681B0AB4
:10143000C37113681B0C037213681B0E437253684D
:10144000837253681B0AC37253681B0C037353687F
:101450001B0E437352F80C0040F0200042F80C00C1
:10146000002918BF01210846704700002DE9F0410E
:1014700046F20841C4F200010A68520110D40A6819
:101480000124120113D40A6812F0805284EA1278FF
:101490004FF0020408BF0324B8F1000F41D10BE064
:1014A0004FF000080024B8F1000F3AD104E04FF0EB
:1014B0000008B8F1000F34D1026801F5BC73520581
:1014C00043EA04131A6001F5BE7242EA0412176877
:1014D000A1F1080527F0BF07176017684FF6FF76E0
:1014E00047F008071760D0F8062001F5C07747EAF3
:1014F00004173A60D0F80A0001F5C27242EA0412F9
:1015000010601868402740F0010018602846214606
:1015100001F094F916FA87F7B9B2B94201D0002860
:10152000F4D088F00100BDE8F081000080B584B0FF
:10153000009048680968CDF80A006846CDF80610A2
:10154000ADF80E20FFF792FF04B080BD4FF2F071AE
:10155000C1F6FF71096881604FF2EC71C1F6FF714D
:10156000096841604FF2E871C1F6FF7109680160D6
:1015700070470000B0B588B04FF4A06005F0B0F936
:101580000024C4F2020420460021002501F0DCFA08
:1015900042F24C40C4F20100019040F25C60C2F2A1
:1015A00000004FF480710390012002914FF480619C
:1015B000ADF81D00CDE904104FF40050069001AACB
:1015C000204600218DF81C5001F0DCFA2046002155
:1015D00001F0A8FA2046002101F080FA08B0B0BD61
:1015E0002DE9F04788B04FF4A06005F079F90024A8
:1015F000C4F2020420460121012601F0A5FA01AD42
:10160000284601F015FBA4F5DA308DF81E6000269F
:101610004FF08008A0F57F774FF480794FF4405A5F
:10162000204601212A46CDE90366CDF814800197B2
:10163000ADF81C900296CDF818A001F0A3FA204650
:10164000022101F081FA284601F0F2FA40F2D85066
:10165000C2F2000003A981E84101204602212A4686
:101660008DF81E600197ADF81C90CDF818A001F020
:1016700089FA2046012101F043FA2046012101F0B8
:10168000B7FA2046022101F04DFA2046022101F06E
:10169000AFFAA4F5DC352846402105F0C1FE20460E
:1016A000022101F01BFA2846802105F0BFFE08B098
:1016B000BDE8F08780B5032888BF80BDDFE800F073
:1016C000020B050800F0A2FA80BDFFF741FD80BDC6
:1016D00000F072F880BD00F003FA80BD80B50328E9
:1016E00007D8DFE800F002080C10084600F0E4FA22
:1016F00080BD002080BD084600F048FA80BD084645
:10170000FFF77AFD80BD084600F084F880BD000038
:1017100010B50C46014692002046FEF797FD204684
:1017200010BD00002DE9F04F81B01D46914688465E
:101730008346EFF3108A72B601F0DCFB3C2001F027
:1017400083FB9DB100245E46304601F08DFB0746C9
:101750003C2001F079FB002F18BF0134013D06F554
:101760008066F1D1B4FA84F0400900E0012000283D
:1017700018BFB9F1000F0AD101F06CFB002F18BFA0
:10178000012738468AF3108801B0BDE8F08F0020A9
:10179000002400BF58F820100BEB800001F0BEFBC6
:1017A00007463C2001F050FB002FE5D10134A0B2E8
:1017B0004845EFD3E0E7000080B540F2036005F054
:1017C0008FF840F60040C4F2010048210322E023D4
:1017D00001F0F2FB40F2036005F082F880BD0000EA
:1017E00070B540F60044C4F201042046802101F0A7
:1017F0003FFC05462046402101F03AFC06462046C3
:10180000202101F035FC45EA460141EA8000C0B2E2
:1018100070BD000010B50446FFF7E2FF431E40F222
:101820005E6C052BC2F2000C0CD80022DFE803F03E
:10183000080305030307024602E0012200E0032239
:101840008CF800209CF800100120216010BD0000E1
:10185000F0B581B040F604570D46C2F200071446B9
:10186000B7F846106A1E92B28A4216D2014641F279
:10187000D000C2F200002A46FEF7E8FC07F1240679
:101880003046294604F06AFEB88D012805D130465D
:10189000214600F005F801B0F0BD002001B0F0BD18
:1018A00080B584B08DF804104189002240698DF81C
:1018B00005200091D0E90001CDF806006846CDF87A
:1018C0000A1000F067FA04B080BD0000B0B540F621
:1018D0000454C2F2000441F2781141F23C12002596
:1018E000C2F20001C2F2000220460C236561E561EC
:1018F00004F03CFC41F20C1141F2D00204F124004E
:10190000C2F20001C2F200020C23A563256404F0B8
:101910002DFC41F2700141F2040204F14800C2F2D0
:101920000001C2F200021823E565656604F01EFCA2
:10193000B0BD000070B540F604550E46C2F2000579
:10194000012102682981002402216A81AC81298257
:101950006969D0F80A20D0F806004A600860284675
:1019600004F08AFC032E0BD0022E0ED1E869298CDC
:1019700000F04AFD0446002818BF0124204670BD2F
:10198000E869298C00F028F80446204670BD000064
:10199000B0B540F60455C2F20005A5F85400E86D54
:1019A0004FF00113A5F8582092002B6505F148046B
:1019B000FEF74CFC204604F05FFC686EB5F868103A
:1019C00000F022FD002818BF0120B0BD80B5032221
:1019D000FFF73EFF80BD000080B545F2BC12C2F2A9
:1019E00000021278002A0CBF012005F089FE80BD9C
:1019F00070B540F26064C2F200042068002100F07B
:101A000007FC40F24C02C2F200021268801A71F127
:101A1000000038BF70BD40F2646540F24806C2F273
:101A20000005C2F2000628683168B0EB410F03D20E
:101A300089B200F011F802E0002000F039F82868BF
:101A4000316801300631B0EB410F28BF002028601B
:101A500000F0E8FB206070BD80B50022B1EB500FB4
:101A600088BF0122104000F023F880BD10B540F27D
:101A7000046004F035FF41F20004C4F20104204682
:101A80004FF4005101F096FA2046102101224FF444
:101A9000005301F091FA002000F00AF810BD000098
:101AA00041F21400C4F201004FF40051016070478C
:101AB000002841F21000C4F201004FF4005114BF9D
:101AC000416001607047000040F24C02C2F2000227
:101AD000106040F24800C2F2000001607047000050
:101AE0002DE9F04389B0002740F20260089704F026
:101AF000F7FE4FF4C06004F0F3FE40F20C6004F017
:101B0000EFFE40F60004C4F20104204610214FF01D
:101B1000100801F04FFA20461021032210234FF045
:101B2000030901F049FA204618210322A02301F0FD
:101B300043FA204604210322402301F03DFA04F534
:101B40002055284604F044FF01AE304604F084FFDF
:101B50004FF4827001904FF4006003904FF40070D6
:101B6000049008200790284631460297CDF8189037
:101B7000059704F057FF284604F01EFF08A8C4F894
:101B8000108000F003F809B0BDE8F0832DE9F043C0
:101B900081B043F2000540F610098046C4F2010509
:101BA000C4F20109102042F21174C9F8040000BF08
:101BB0002846022104F030FF064620B9013CF7D147
:101BC0004FF0FF3400E000242846002104F0FEFE20
:101BD00042F211772846012104F01EFF26B118B900
:101BE000013FF7D14FF0FF34284604F0EBFE1021FF
:101BF000002CC9F8001004BF8008C8F80000B4FA2F
:101C000084F0400901B0BDE8F08300002DE9F04305
:101C100089B0002740F20260089704F061FE4FF49B
:101C2000C06004F05DFE40F20C6004F059FE40F626
:101C30000004C4F20104204610214FF0100801F006
:101C4000B9F920461021032210234FF0030901F0B7
:101C5000B3F9204618210322A02301F0ADF9204654
:101C600004210322402301F0A7F904F5205528465A
:101C700004F0AEFE01AE304604F0EEFE4FF482708A
:101C800001904FF4006003904FF40070049008201E
:101C90000790284631460297CDF81890059704F032
:101CA000C1FE284604F088FE08A8C4F8108000F0A1
:101CB00003F809B0BDE8F0832DE9F04743F20005D1
:101CC00040F610098046C4F20105C4F20109102053
:101CD00042F21174C9F804002846022104F09CFE67
:101CE000064620B9013CF7D14FF0FF3400E0002454
:101CF000284648F2FF3148F2FF3A04F067FE42F20C
:101D0000117700BF2846012104F086FE26B118B9DC
:101D1000013FF7D14FF0FF34284604F053FE06464A
:101D200042F211772846022104F076FE002C08BF0B
:101D3000002803D1013FF5D14FF0FF340AF5F840F8
:101D400081B2284604F042FE42F211772846012172
:101D500004F062FE002C08BF002803D1013FF5D13A
:101D60004FF0FF34284604F02DFE1021C9F8001072
:101D700054B9F1B28A026FF00F0303EA901042EAFD
:101D800011110844C8F80000B4FA84F04009BDE815
:101D9000F087000080B5014640F2F000C2F200007A
:101DA00003F00EFE80BD000042F63443C4F201038E
:101DB000186059609A60704780B50A46014640F243
:101DC000F000C2F2000003F0EBF880BD70B58CB0FB
:101DD00040F2026004F084FD40F2036004F080FDF4
:101DE0004FF4C06004F07CFD40F20B6004F078FD1D
:101DF00042F60044C4F20104A4F510552846182107
:101E000003224FF4807301F0D7F8284618210322EB
:101E10004FF4007301F0D0F82846182103224FF444
:101E2000806301F0C9F8A4F5005528461821032263
:101E30004FF4005301F0C0F82846182103224FF454
:101E4000804301F0B9F82846182103224FF40043DB
:101E500001F0B2F8204605F025F908AD284605F056
:101E60005DFA4FF48000089040F6B73000260A90E3
:101E700020462946ADF82460ADF82C608DF82E6020
:101E800005F0C8F905AD284605F006F90120C0F2B5
:101E90000400CDE90506204600212A46079604F0F5
:101EA00093FF204601212A4604F08EFF204602219E
:101EB0002A4604F089FF204603212A4604F084FFC5
:101EC0002046002140F2DC5205F09CF8204600211B
:101ED000602205F079F820460021082205F098F8E4
:101EE0002046012140F2DC5205F08CF82046012109
:101EF000602205F069F820460121082205F088F8E3
:101F00002046022140F2DC5205F07CF820460221F6
:101F1000602205F059F820460221082205F078F8E1
:101F20002046032140F6B33205F06CF82046032129
:101F3000602205F049F820460321002205F068F8E8
:101F400001AD284604F01CFF20462946ADF810607C
:101F50000396CDE9016604F0FFFE20460021002231
:101F600005F074F820460121002205F06FF82046A4
:101F70000221002205F06AF820460021002204F028
:101F800005FF20460121002204F000FF2046022127
:101F9000002204F0FBFE2046012105F0B5F92046A1
:101FA00004F0D4FEFFF7E6FAFFF706F8FFF790F823
:101FB0000A20002100F0A6F8204605F01BF90CB01D
:101FC00070BD0000B0B582B042F20044C4F201041A
:101FD0002068002120F00400206040F25C60C2F222
:101FE000000005882046FEF743FFADF802002046BA
:101FF0000121FEF73DFFADF8040004F580600021EB
:10200000FEF736FFADF806000DF102012846FFF796
:10201000D3FE02B0B0BD000010B542F60044C4F2D9
:10202000010440F2DC506063A063E06320460021BD
:10203000002205F00BF820460121002205F006F8E9
:1020400020460221002205F001F82046002100224E
:1020500004F09CFE20460121002204F097FE204659
:102060000221002204F092FE2046012105F0C8F86A
:102070002046012105F0C8F80028F9D020460121AA
:1020800005F0BEF810BD000010B542F60044C4F2E1
:10209000010440F2DC506063A063E063204600214D
:1020A000012204F0D3FF20460121012204F0CEFFDB
:1020B00020460221012204F0C9FF2046002104220B
:1020C00004F064FE20460121042204F05FFE204655
:1020D0000221042204F05AFE2046012105F090F866
:1020E0002046012105F090F80028F9D02046012172
:1020F00005F086F810BD0000012080F31088FEF77F
:102100002DFB0000B0B50546084308BFB0BD0C4626
:10211000013D4FF47A704FF0000164F1000400F0CB
:1021200005F855EA0400F3D1B0BD00002DE9F04FE9
:1021300081B04EF2180240F20403CEF20002C2F265
:10214000000312681B6844F6D357C1F26207A3FB71
:1021500007744DF68367C4F21B37A3FB07370646A7
:10216000A0090D4600904FEA974800204FF0000963
:102170004FF0000A14E000BFA0FB0824331A01FB53
:10218000084465EB0107B9EB02096AEB040A801BFE
:1021900071EB05004FF000005A461E463D4634D212
:1021A0004EF21801CEF20001D1F800B0BBEB0201F3
:1021B0004FF00001814109D219EB020140EB0A0006
:1021C000B1EB0B0960F1000A12E000BFB2EB0B01AA
:1021D00070F100010CD219EB0201009A40EB0A00E9
:1021E000B1EB0B0160F1000011EB020940F1000AB4
:1021F0004846514642460023FDF7C6FF821B71EB5D
:102200000502B9D333462F46C1E701B0BDE8F08FD0
:1022100040F2D052C2F20002D2E90023101A63EB5E
:102220000101704740F2D050C2F20000D0E9000135
:10223000704700004EF2140040F20402CEF200009B
:10224000C2F200020168406812684DF68363C4F26E
:102250001B33A2FB0323081A0130990CB0FBF1F0E9
:1022600040F2D051C2F20001D1E900214FF47A735B
:102270005943E2FB03017047B0B50C460546FFF732
:10228000D9FF401BA141B0BD10B584B040F204009D
:10229000C2F20000006844F6D351C1F26201A0FB13
:1022A00001018809FEF774FA08B100BFFEE70220B9
:1022B000FEF73AFA4FF4E06004F012FB4FF0804072
:1022C00004F0F0FE6C46204605F028F877200090D8
:1022D00000204FF6FF71ADF804000291ADF80C003C
:1022E0004FF08040214604F095FF4FF0804004F00D
:1022F00081FF04B010BD000080B5FFF749FB80BD31
:10230000B0B54FF4C06004F0EBFA40F2036004F0A3
:10231000E7FA40F2127004F0E3FA44F60004C4F263
:10232000000404F544452846182103224FF4806335
:1023300000F042FE2846042103224FF4006300F01F
:102340003BFE204605F030F82046002105F0C0F89D
:1023500020464FF4005105F0ADF820464FF47A3195
:1023600004F0ECFF2046002105F096F820460021FD
:1023700005F06EF82046002105F064F8204604219F
:1023800005F092F82046082105F09CF8272003214B
:10239000012203F0CBFF20464FF4417105F05EF8B7
:1023A000204605F049F8B0BD10B544F60004C4F26B
:1023B000000440F20431C0F20401204605F05AF84E
:1023C000002808BF10BD60683024C4F202042068F1
:1023D0006FF07F0120F0010020606068081AC1B230
:1023E00040F2D850C2F2000000F008F8802060608F
:1023F000206840F00100206010BD000080B502227E
:10240000FFF726FA80BD00001C22C4F20202136806
:1024100023F001031360D0605160106844F614018A
:1024200040F001001060C4F20001086840F0800232
:1024300001200A607047000080B584B000904868B1
:102440000968CDF80A00CDF8061068460221ADF8FB
:102450000E20FFF76FFA04B080BD000080B584B095
:10246000009048680968CDF80A00CDF80610684663
:102470000321ADF80E20FFF75DFA04B080BD000027
:1024800046F20061C4F200010A6800F03F0042F029
:1024900001020A600A6822F47C520A600A6842EA71
:1024A00000200860086820F0010008607047000004
:1024B00010B546F20041C4F2000140F21A448842CD
:1024C00008BF40F21944204604F02AFA204604F0DE
:1024D00017FA10BDB0B546F20061C4F2000144899C
:1024E0000A684FF0010C42F001020A60CB690CFA55
:1024F00004F5AB43CB61C3896FEA050C012B10D007
:1025000023BBCB6803EA0C03CB60B0F806E043883A
:1025100043EA0E434FEAC40E01EBC40423640346AE
:102520000DE0CB682B43CB60B0F800E0438843EA72
:102530000E434FEAC40E01EBC4042364831D848858
:102540001B8843EA044301EB0E04636483894C68EF
:10255000002B44EA050208BF04EA0C024A60028923
:102560004B69002A43EA050408BF03EA0C044C61E6
:10257000007C012802D1C8692843C861086820F09E
:1025800001000860B0BD00002DE9F04186B088462A
:10259000054601A901201F461646012400F000F956
:1025A0004FF48030032EADF80E7004908DF8144077
:1025B00010D8DFE806F002101E3069010020ADF8E7
:1025C00004104FEA4811ADF80C00ADF80600ADF864
:1025D000081031E0FEE70120ADF80C006801ADF80D
:1025E000040000204FEA4811ADF80600ADF80810CD
:1025F00022E00020ADF80C00680BADF80400E80004
:102600000430ADF806004FEA5830ADF808004FEA44
:10261000C800043010E00120ADF80C00680BADF8E4
:102620000400E8000430ADF806004FEA5830ADF879
:1026300008004FEAC8000430ADF80A0001A8FFF70F
:1026400049FF06B0BDE8F0812DE9F041026840F293
:10265000010C22F0020202600268CFF6FF7C42F019
:1026600001026346026000BF426823B112F001021A
:1026700003F10103F8D04268D20704BF0020BDE88F
:10268000F081036ADA0724D143F0010202620A787A
:1026900091F801E08C789207CD7804F00F0804F0EF
:1026A00070046EF31C624E8942EA841205F007073B
:1026B00005F0180542EA0842013E42EA85226FF31E
:1026C0009F2642EA07523244C26123F001020262AD
:1026D0001DE00A7891F801E08F789207CE7807F034
:1026E0000F0507F070076EF31C624B8942EA8712F0
:1026F00006F0070406F0180642EA0542013B42EAEA
:1027000086226FF39F2342EA04521A44C261026890
:102710000B7922F080024F798E79CD79012B08BF99
:10272000803202600268012F22F0400208BF40326E
:1027300002600268012E22F0200208BF20320260EF
:102740000268012D22F0100218BF103202600A7ACE
:102750000368012A23F0080318BF08330360497A8D
:102760000268012922F0040208BF043202600168F5
:1027700021F00101016000BF42686146BCF1000F19
:1027800004D012F0010201F1010CF5D1002918BFAB
:1027900001210846BDE8F08142691143416170475B
:1027A00091B1042812D8B0B50C46DFE800F0031050
:1027B000192A35004FF08060A060002060604FF45F
:1027C00000302060B0BD00BFFEE700BFFEE7002084
:1027D0004FF480312074E16020606060A060B0BD83
:1027E0004FF48060A0824FF4007020820120A0741A
:1027F00000204FF48071A0702180C4E90100E060E6
:10280000B0BD04F10B004321FDF739FD0020C4F8F1
:102810000700C4E90000B0BD002504F10B00402111
:1028200084F84E50A4F84C50FDF729FD84F84B5025
:10283000C4E90055C4F80750B0BD0000022906D80D
:1028400049B213A252F821108068084000E000202D
:1028500040F2FF21C0F60001884209DC002804BFD5
:10286000022070470321C0F2004188420BD00CE0E7
:1028700040F20031C0F60001884204D00021C1F2CC
:102880000301884201D1012070470020704700BF3A
:1028900003000004000300080000031010B58121AC
:1028A000044605F04BFC2046032105F047FC20467A
:1028B000822105F043FC002010BD000080B501F02E
:1028C0007F02C2EBC20200EB8203D3F8DC2062B1CC
:1028D000B3F8D4C0B2FBFCF303FB1C222AB90022DC
:1028E000002305F05DFC002080BDD0F830040121FC
:1028F0000170002080BD0000B0B548F6AC35C0F6D0
:10290000000505F13C01044605F064FC05F13501C4
:10291000204605F05FFC05F12501204605F05AFC34
:1029200040F6A421C2F2000140F20110088000200C
:102930004FF47A32C1E91302A1F85400082081F85B
:1029400056000020C4F83014B0BD0000C1EBC10136
:1029500000EB8101D0F830240120D1F884125070AE
:102960000020D164704700004B78D0F83024212B30
:102970000ED0202B1AD1C988D0F82CC4C0F88812E8
:1029800002F14201C0F87C1200208CF8013070473F
:10299000116D42F8421F917CB2F81330117107217A
:1029A000A2F80530C0F8D820C0F8E4100020704725
:1029B000D0F82C144A78FF2A0ED0D0F83004D0F882
:1029C0004220B0F84730026590F84620A0F8553014
:1029D00080F85420FF2048700020704780B50178AF
:1029E000A52905D1FDF7B4FD00281CBF002080BD3E
:1029F000022080BD80ED000A9FED040A30EEC11A6E
:102A000021EE000A81ED000A704700BF3ACD133F66
:102A100051EC100B53EC112B61F31E0343EC100B24
:102A20007047000071B148F6044C0138C0F6000C44
:102A300010F8013F013983EA12635CF8233083EA1E
:102A40000222F5D110467047B0B540F6FC42C2F202
:102A5000000212780C46002A054608BF03F02CFB42
:102A6000002D4FF6FF7018BF002C11D040F6FC2C43
:102A7000691E0022C2F2000C11F8013F85B2C0B2FB
:102A800058403CF810000132A24280EA1520F3D3EE
:102A900080B2B0BD80B5024600284FF0000018BFDC
:102AA000002911D049F21C1C013A0020C0F6000C8C
:102AB000002300BF12F801EFC0B280EA0E001CF83C
:102AC000000001338B42F5D380BD0000006800EEAA
:102AD000100A70470068704700687047B0B50D462F
:102AE000044600F097F848B105EB850004EB800040
:102AF000816841F001018160B0BD00BFFEE70000C8
:102B0000B0B50D46044600F085F848B105EB8500E8
:102B100004EB8000816821F020018160B0BD00BF1E
:102B2000FEE70000B0B50D46044600F073F848B16A
:102B300005EB850004EB8000816841F02001816095
:102B4000B0BD00BFFEE70000B0B50D46044600F082
:102B500061F8A8B105EB850004EB8000816821F0E5
:102B60000101816000218160C16001614161A800B3
:102B70000F21626801FA00F010436060B0BD00BF31
:102B8000FEE7000070B514460E46054600F042F818
:102B900060B3216806EB860005EB80000161A16847
:102BA0004161218AC1608168626821F47C51E368D7
:102BB00066691143194331438160217E826801298E
:102BC00022F0400208BF40328260617E82680129A3
:102BD00022F0800208BF80328260A17E82680029D4
:102BE00022F0100218BF1032826070BDFEE70000B4
:102BF000B0B50D46044600F00DF848B105EB850070
:102C000004EB8000816821F480418160B0BD00BF89
:102C1000FEE7000040F20042C4F20202801A18BF30
:102C200001200022052938BF01221043704700000F
:102C300050B10021C0F81710C0E90011C0E902111D
:102C4000C0E90411704700BFFEE7000040F2084CE5
:102C5000C4F2010C5CF8083C012923EA00034CF89B
:102C6000083C5CF8043C23EA00034CF8043CDCF824
:102C7000003023EA0003CCF80030DCF8043023EA0B
:102C80000003CCF8043019D021B95CF8081C0143CA
:102C90004CF8081C022A18D0012A6FEA000118D04B
:102CA000002A18BF7047DCF800201043CCF8000061
:102CB000DCF804000840CCF8040070475CF8041C01
:102CC00001434CF8041C022AE6D1DCF80010014351
:102CD00002E0DCF800201140CCF80010DCF8041011
:102CE0000843CCF80400704740F20041C4F20101EF
:102CF0000A6810430860704740F21441C4F20101B1
:102D000008607047B0B50C46054605F02BFE9FEDF8
:102D1000362A9FED341A20EE024AB5EE400A20EE24
:102D2000013AF1EE10FA20EE044A02DA33EE044AD8
:102D300001E033EE444AB5EE404AF1EE10FA85ED7B
:102D4000004A02DA24EE445A01E024EE045A9FEDD0
:102D5000273A35EE445A25EE035A34EE054A9FEDE4
:102D6000245A85ED004A30EE054A9FED220A9FED78
:102D7000225A34EE000AB4EE454AF1EE10FAC8BF0A
:102D8000B0EE404A24EE010A24EE021AB5EE404AA3
:102D9000F1EE10FA24EE011A0DDA30EE010AB5EE6A
:102DA000400AF1EE10FA84ED000AACBF20EE001AE2
:102DB00020EE401A0CE030EE410AB5EE400AF1EE8A
:102DC00010FA84ED000AACBF20EE001A20EE401A83
:102DD00031EE401A21EE031A30EE010A84ED000AAA
:102DE000B0BD00BF83F9A23F7B81CF3E6666663EE1
:102DF000DB0FC93FDB0FC9C0DB0F494080B503F0D3
:102E000069FB002818BF80BD00F074F803F06AFB6E
:102E100003F0D8FABB2003F019FB03F00DFB00F020
:102E200019F84FF4FA700021FFF76CF9012080F3D4
:102E30001088FDF781FC000010EE101A0160704749
:102E400010EE101A0160704742F20C01C4F2020148
:102E50000860704742F21000C4F20200016841F0BD
:102E60008001016070470000B0B5044600F018F81A
:102E7000002818BFB0BD42F21005C4F20205286850
:102E800040F0020028606C60286840F04000286034
:102E900000F006F8296821F002012960B0BD0000A9
:102EA00010B50124CFF6F07400F00AF8012803D120
:102EB000002C04F10104F7D1012808BF052010BD42
:102EC00042F20C00C4F202000168C9071CBF0120D5
:102ED00070470168C90644BF04207047016849076C
:102EE00044BF0220704700680321000701EAE07038
:102EF0007047000042F20400C4F20200C1680906F3
:102F000058BF704740F22311C4F26751016048F680
:102F1000AB11CCF6EF5101607047000070B50C4664
:102F20000546FFF7BDFF002818BF70BD42F210062E
:102F3000C4F20206306840F0010030602C60FFF7F8
:102F4000AFFF316821F00101316070BD80B52DED1A
:102F5000028B9FED098AF0EE480A05F047FDB5EEB9
:102F6000400A30EE081AF1EE10FAB8BFB0EE410A8E
:102F7000BDEC028B80BD00BFDB0FC94080B52DEDDD
:102F8000028BB0EE608A05F031FDB5EE400A30EEFE
:102F9000081AF1EE10FAB8BFB0EE410ABDEC028B90
:102FA00080BD00000C2101EB800080B27047000062
:102FB00041617047016170472DE9F047CF0601F08C
:102FC0000F0C09D5042A05D1C26B4CF0030C1A432F
:102FD000C26301E04CEA020C00F1100E00F1140A89
:102FE00000244FF001094FF00F0800270EE000BF4A
:102FF000166008FA04F225EA02020CFA04F52A43E4
:1030000002600137082F04F104040CD009FA07F21A
:1030100012EA0306F5D0056828295246E8D0482967
:10302000E7D17246E4E7082400254FF001094FF08C
:103030000F080FE0176008FA05F226EA02020CFA00
:1030400005F6324342600134102C05F1040508BF37
:10305000BDE8F08709FA04F212EA0307F3D04668E4
:1030600028295246E6D04829E5D17246E2E7000019
:103070008068084018BF012070470000B0B50422E6
:10308000C4F20102134602F1180E002848BF73462D
:103090001C6800F44013B3F5401F1FFA80FC06D1F2
:1030A000156824F0E06325F0E064146015E0C302C5
:1030B0000AD46FF00F0303EA50430CFA03F324EA37
:1030C000030343F0E06308E0C0F30343032505FA7C
:1030D00003F324EA030343F0E0636FF00F0404EA10
:1030E000504400290CFA04F518BF2B43002848BFB0
:1030F00072461360B0BD000090ED0E0AB5EE400AB6
:10310000F1EE10FA1EDD90ED061AB4EE410AF1EE72
:1031100010FA1EDD90ED072A31EE022AB4EE420AC3
:10312000F1EE10FA30DA90ED042A90ED0A3A30EE22
:10313000410A20EE020A33EE000A9FED2A1A80EDC2
:103140000B0A49E0016890ED022A9FED261AC16240
:1031500042E090ED023A90ED002A90ED031A20EE45
:10316000034A32EE042AB6EE004A21EE044A20EE6B
:10317000005A25EE044A32EE042A20EE010A80EDC0
:103180000B2A33EE002A27E090ED092AB4EE420A1A
:10319000F1EE10FA14DA90ED051AB6EE004A30EEB0
:1031A000420A90ED013A21EE044A20EE002A22EE76
:1031B000042A33EE022A80ED0B2A20EE012A0BE0CE
:1031C000B4EE420AF1EE10FAB8BF70479FED052A3F
:1031D0004168B0EE421AC16280ED0C2A80ED0D1AF2
:1031E000704700BF000000002DE9F0412DED108B6D
:1031F000B0EE418A21EE01FA32EEA21A8FEE011AE8
:103200000446B0EE62DAB0EE42CAB0EE61EAB0EE69
:10321000609AB0EE40AA70EE608A11EE100AFDF7D7
:1032200062F841EC1B0B18EE100AFDF75CF841EC5C
:10323000110BB0EE4B0AF0EE6B0AFFF7E9FB51EC15
:10324000100BFDF763F800EE100A38EEC00A03F029
:10325000A5FBB0EE40BA20EE0C2A2BEE0E1A84ED40
:10326000032A2BEE082A2BEE013A20EE4D0AB4EE8B
:10327000432A84ED041AF1EE10FA84ED050AC2BF68
:10328000B1EE4B2A22EE0C2A84ED032A94ED032A98
:1032900031EE483A83EE024AB1EE413A83EE005AEB
:1032A000B6EE00DA31EE086A24EE0D3A26EE033A65
:1032B00025EE0D6A21EE066A36EE033A28EE8B6A99
:1032C0002BEE037AB4EE476AF1EE10FA84ED064A6B
:1032D00084ED085A65DA32EE023A20EE033A2FEE18
:1032E000001A28EE833A31EE031A30EE420A81EEDC
:1032F000000A10EE100AFCF7F6FF9FED410B07469F
:1033000056EC108B424633460D46FCF7C3FF0028AF
:1033100004BF3546474638462946FCF7F7FF00EE1E
:10332000100AB1EEC0CAB4EE4CCAF1EE10FA62D681
:103330002BEE0C0A94ED031A30EE482A82EE011AA5
:1033400094ED05EA84ED040A11EE100AFCF7CBFFB8
:103350004246334605460F46FCF79CFF002804BF53
:103360003746454628463946FCF7D0FF2BEE4C0A37
:1033700080EE0E0AA06110EE100AFCF7B4FF424680
:10338000334605460F46FCF785FF002804BF374645
:10339000454628463946FCF7B9FF9FED1B0A2062D7
:1033A00003E038EEC30A80EE010A94ED062A94ED9C
:1033B000083A84ED070A94ED031A32EE000A30EE63
:1033C000030A84ED090A22EE080A21EE0D1A22EE04
:1033D000022A30EE090A22EE011A30EE010A84EDCB
:1033E000009A84ED01AA84ED028A84ED0A0ABDECFC
:1033F000108BBDE8F08105F09EFBB0EE40CA97E768
:1034000000000000000000000000000010B52DEDDD
:10341000088B82B09FED592AB7EE00BA20EE020A5F
:103420008BEE000AB0EE61AA044620EE209A20EE50
:10343000018A29EE090A28EE081A30EE011AB1EEC7
:10344000C10AB4EE400AF1EE10FA80F191809FEDCE
:103450004C1A01A881EE000A694629EE001AB4EE62
:103460004B0A28EE002AF1EE10FABCBFB0EE428AF9
:10347000B0EE419AB0EE490AF0EE480AB0EE4A1AB0
:1034800002F0B4FE9DED010ADDED000A04F1240016
:1034900004F1280104F12C0203F0E6FAD4F89C00B0
:1034A0000068411C21D001283FD194ED192A94EDE8
:1034B000090AB8EE422A94ED0A1A20EE020ABDEE7D
:1034C000C00A94ED0B3A10EE100A21EE020ABDEE8E
:1034D000C00A10EE101A23EE020AD4F8A030BDEE96
:1034E000C00A10EE102A98473EE094ED192A94ED98
:1034F000090AB8EE422A94ED0A1A94ED0B3A20EE2E
:10350000020ABDEEC00A21EE021A10EE101A23EED6
:10351000020AD4F8A030BDEEC11ABDEEC00A11EE09
:10352000100A10EE102A98471EE094ED192A94ED27
:10353000090AB8EE422A94ED0A1A20EE020ABDEEFC
:10354000C00A94ED0B3A10EE100A21EE020ABDEE0D
:10355000C00A10EE101A23EE020AD4F8A030BDEE15
:10356000C00A10EE102A984702B0BDEC088B10BDBF
:10357000B0EE410A05F0DFFA69E700BFABAA2A3FC7
:10358000AC5C313FB0B50446806A002584F8245015
:10359000FDF724F8A562B0BD2DE9F04F81B02DED07
:1035A000028B84B0D0E9D6618346D0F838A4D0F835
:1035B000408400F556793046FCF787FE00EE100A8D
:1035C0009BEDCF2A9BF84C0322EE001A13288BEDBB
:1035D000D51A00F20A850BF54A77DFE810F01400DF
:1035E0001900260043004D005A009C00C600DF0071
:1035F0000C01340150017A01AB01E001F80129020C
:103600009F02210351030020C9E9000000F0EDBC36
:10361000404601F0B3FE0020C9E90000C9E90200FC
:1036200002208BF84C0300F0E0BC9BEDD20A002096
:10363000B4EE401A0121F1EE10FACAF82802CAF8D5
:103640001410CBE9DA00CBF87003CBF8740340F325
:10365000CC84C9E90000C9E9020003208BF84C03BF
:1036600000F0C3BC0020C9E90000C9E90200042041
:103670008BF84C0300F0B9BC404601F085FC0020FB
:10368000C9E90000C9E9020005208BF84C0300F0ED
:10369000ACBC9BEDCA0A9BED061A22EE000A9AED1D
:1036A0008B2A9BEDDA3A32EE411A20EE010A73EED4
:1036B000000ACBEDDA0A9AED8C0AF4EE400AF1EE3C
:1036C00010FA00F30883B1EE400AF4EE400AF1EE7E
:1036D00010FAC0F200839FEDD31A9BED050A5846FD
:1036E000F0EE411AFFF792FE9BEDCB0A9BEDD51A47
:1036F000B4EE401AF1EE10FAC0F27784404601F0C1
:103700003DFE0020C9E90000C9E9020006208BF84F
:103710004C0300F06ABCDBE9D81051EA000200F06B
:10372000E7829BEDD20AB4EE401AF1EE10FAC0F235
:103730005C849AED010A02AE00273046C9F8007099
:10374000C9F80470FFF778FBDAF87C1240460122D2
:10375000334602F059FA002800F047840720CBE9ED
:10376000D8778BF84C0300F040BC404601F00CFCCD
:103770000020CBE9DC009AED8C0AB1EE400A8BED1B
:10378000DA0ADAF83012C9E90000C9E902000820B3
:10379000CBF86C138BF84C0300F027BC06F001004B
:1037A0000BEB80009BED061A90EDDC2A9BED050AE1
:1037B00031EE021A80EDDC1A9FED9A1AD0EDDA0A8A
:1037C0005846F0EE411AFFF721FE9BEDCC0A9BED27
:1037D000D51AB4EE401AF1EE10FAC0F20684404653
:1037E00001F0CCFD0020C9E90000C9E90200092070
:1037F0008BF84C03F9E3DBE9D801084300F08A8237
:103800009BEDD20AB4EE401AF1EE10FAC0F2ED834D
:103810009AED020A02AE00273046C9F80070C9F8D6
:103820000470FFF709FBDAF87C12404602223346A7
:1038300002F0EAF9002800F0D8830A20CBE9D87713
:103840008BF84C03D1E3404601F09EFB9AED010A50
:103850009AED8B1A002021EE000AB0EE081A20EE35
:10386000010AB6EE001A20EE010AC9E90000C9E912
:1038700002000B208BEDDA0A8BF84C03B5E39BEDCD
:10388000DA0A9BEDCD2A21EE000AC0EE020A9FED76
:10389000651A9BED050A5846F0EE411AFFF7B6FD92
:1038A0009BEDCD0A9BEDD51AB4EE401AF1EE10FA5D
:1038B000C0F29B839BED2D0A0020B8EEC00AC9E937
:1038C0000000C9E902000C208BEDE20A8BF84C03E2
:1038D0008BE39BEDD12A9BED050ADBEDDA0A61EE65
:1038E000021A9FED501A5846FFF790FD9BEDCD0A46
:1038F0009BEDD51AB4EE401AF1EE10FAC0F27583C2
:103900009BED2D1A9BED050AB8EEC11A8BEDE31A5B
:103910009FED441ADBEDDA0A5846F0EE411AFFF744
:1039200075FD0020C9E90000C9E902000D208BF8EF
:103930004C035AE3DBE9D87657EA060000F012821E
:103940009BEDD20AB4EE401AF1EE10FAC0F20F83EA
:1039500087F0020100203143C9F80000C9F80400D3
:1039600000F0EF8287F00100304340F00083DAF886
:10397000000002AE314602F019FCDAF87C12404633
:103980000322334602F040F9002800F0F082DBE920
:10399000D801013041F10001CBE9D80125E34046CF
:1039A00001F0F2FA9AED010A9AED8B1A002021EE4D
:1039B000000AB7EE081A20EE010AC9E90000C9E9B9
:1039C00002000F208BEDDA0A8BF84C030DE39BED20
:1039D000DA0A9BEDCE2A21EE000AC0EE020A9FED24
:1039E000111A9BED050A5846F0EE411AFFF70EFD3D
:1039F0009BEDCE0A9BEDD51AB4EE401AF1EE10FA0B
:103A0000C0F2F382DBF8A4000021CBE9DE01102034
:103A1000CBE9E011C9E90011C9E902118BF84C03A7
:103A2000E3E200BF00000000DB0FC94000000043DC
:103A30009BEDD11A9BEDE13A22EE011A9BED050AAE
:103A4000DBEDDA0A73EE011A1FED0A1A5846CBEDC8
:103A5000E11AFFF7DBFC9BEDD50A9BEDE01AB4EE13
:103A6000410AF1EE10FA3CDD9AED003A1FED124AE0
:103A70009BEDE12AB8EEC33A23EE043A82EE032A24
:103A8000DBF8E400DBF8A42003EE100AB8EE433ABA
:103A9000DBF87C3322EE032ABDEEC22A12EE101AA6
:103AA0009BEDD12A1FED1F3A511A22EE032A84EE14
:103AB000022A00EAE170DBF85023084442F82300B0
:103AC000DBF87C03DAF80020411CCBF87C13B1EB67
:103AD000C21FB8BF0846CBF87C0331EE021A8BED4B
:103AE000E01A9AED001A1FED302AB8EEC11A9BEDCC
:103AF000D13A21EE021A81EE031AB4EE410AF1EE38
:103B000010FAC0F272820020CBF88003C9E90000ED
:103B1000C9E9020011208BF84C0366E29BEDD11A33
:103B20009BEDE13A22EE011A9BED050ADBEDDA0A84
:103B300073EE411A1FED451A5846CBEDE11AFFF717
:103B400065FC9BEDD50A9BEDE01AB4EE410AF1EE5F
:103B500010FA3DDD9AED003A1FED4D4A9BEDE12A4A
:103B6000B8EEC33A23EE043A82EE032ADBF8E4000F
:103B7000DBF8A41003EE100AB8EE433ADBF87C330E
:103B800022EE032ABDEEC22A12EE102A9BEDD12AA4
:103B90001FED5A3A891A22EE032A84EE022ADBF834
:103BA000502300EAE17052F823703944084400EBD6
:103BB000D070401042F82300DBF87C03411E02283D
:103BC00031EE021AB8BF0021CBF87C138BEDE01A5E
:103BD0009AED001A1FED6C2AB8EEC11A9BEDD13A8E
:103BE00021EE021A81EE031AB4EE410AF1EE10FA48
:103BF000C0F2FB81404601F0C1FBDBF8A400DBF81A
:103C00007813084400EBD0704010CBF87803002004
:103C1000C9E90000C9E9020012208BF84C03E4E175
:103C2000DBE9D83253EA020000F0CD809BEDD20AE6
:103C3000B4EE401AF1EE10FAC0F2D78183F0010120
:103C400000201143C9F80000C9F8040040F0F980D1
:103C5000DAF8180002AE314602F0A8FADAF87C125F
:103C600040460522334601F0CFFF002800F0BD8119
:103C7000DBE9D801013041F10001CBE9D801B4E121
:103C80009BEDD20AB4EE401AF1EE10FAC0F2AD810B
:103C9000DBE9D81200201143CBF85803CBF85C03C2
:103CA00000F0AB8058460021002701F041FC9BF852
:103CB0004D0302AE314603F03DFBDAF87C1240467C
:103CC0000722334601F0A0FF00281CBFCBE9D877BC
:103CD0008BF84C7389E1404601F050FB0020C9E9A4
:103CE0000000C9E9020040F21310ABF84C037CE17C
:103CF0009BEDDA0A9AED8B1A013180EE010A9FEDF5
:103D0000C11A40F10000CBE9D81020EE010A8AED7B
:103D1000010A6AE19BEDDC0A9BEDDD1A9BEDCC2AE2
:103D200031EE400AB6EE001A22EE011A80EE010AC8
:103D30009AED8C1A504681EE000A9FEDB21A20EEE1
:103D4000010A8AED020A01F081FBDBE9D8120020AA
:103D5000CBF85C03CBF85803481C42F10001CBE9D7
:103D6000D80142E19BEDE20A9BEDE31A9BED392A73
:103D700031EE400ABDEEC01AB8EEC10AB8EE422AD2
:103D800080EE020AB0EE002A9BEDD08A11EE108A76
:103D9000B0EEC00A82EE000A04F080FEBDEEC00A5A
:103DA000B8EEC01AB4EE418AF1EE10FA8AED000ABC
:103DB00041DA0020C9E90000C9E9020040F21320FD
:103DC000ABF84C0311E1DAF800C09846BCF1010FE2
:103DD00001925ADBDAF800C0DBF850234FEACC1727
:103DE00000200021002600BF52F826300136C018FE
:103DF00041EBE371BE42F7DB49E09BF84D0302AEB5
:103E0000314603F097FA404601F0B8FADAF87C122E
:103E100040460022334601F0F7FE002800F0E5801E
:103E20003846FFF7AFFBDBE9D801013041F1000173
:103E3000CBE9D801D9E0B8F10A0F40F3A7800120FF
:103E4000A9E0991E62F10002D1F17F039041C0F018
:103E5000AE800AEB8100006A02AE314602F0A6F99C
:103E6000DBF86003DAF87C1200F1080240463346C2
:103E700001F0CAFE002800F0B880DBE9D80101306B
:103E800041F10001CBE9D801AFE0002000214FEA69
:103E9000CC124CF30063FCF7A8F9DAF82412CAF844
:103EA000180002F033FA00EE100ADBF87803DBF8B2
:103EB000E410C001B0FBF1F0B8EEC00AB6EE001A93
:103EC000CBF87803DBF8500330EE010A00218AEDCD
:103ED000070A00BFDAF800206FF03F06D30102FBAB
:103EE00001F70022BD195C429D42B8BF0024002D9D
:103EF00048BF1C463D19354450F825500136402E28
:103F00002A44EFD1DBF87873D31702EB53627B18A6
:103F1000DAF818707F2BC8BF803B0131C7EBE21283
:103F20000AEB830380291A62D4D1019A18F10101A6
:103F30004FF0000042F10002CBE9D600CBE9D812E5
:103F400053E0DAF8140002AE314602F02FF9DAF845
:103F50007C1240460422334601F056FE38B1DBE9BC
:103F6000D801013041F10001CBE9D8013DE0DBE9A6
:103F7000D801033871F1000037D30020C9E90000EF
:103F8000C9E902000E208BF84C032EE018F10B0F4C
:103F900003DC4FF0FF30CAF81400791C4FF000002A
:103FA00046F10002CBE9D600CBE9D8121DE0012092
:103FB000CAF8280258460021002501F0B9FA9BF8FA
:103FC0004D0302AE314603F0B5F9DAF87C124046F3
:103FD0000722334601F018FE002838461CBFCBE903
:103FE000D8558BF84C53FFF7CDFAD9E900010130D1
:103FF00041F10001C9E9000104B0BDEC028B01B040
:10400000BDE8F08FABAA2A3F10B50446806A80B99C
:1040100094ED060A9FED0C1A20EE010AB1EE001A8B
:1040200020EE010ABCEEC00A10EE100AFCF7FCFA02
:10403000A0620020C4E90C00C4E91000C4E9120029
:104040000120A08410BD00BF0000004370B50446ED
:10405000D4F84054D0F80C042A69D4F8386400210C
:104060009047193871F1000020D3E8688047C4F800
:104070000C0404F22C4001F07BFB80B270B10022F2
:10408000012100BF4B1E20FA03F3DB070BD10E2AE0
:1040900002F1010201F10101F4D907E06A6BD6F8DF
:1040A0007C12FA2001E06A6B7D20904794F82C0482
:1040B000032854D094F82D04032850D0D6F8840255
:1040C000F8B195F85410022903D1092806DC0A201A
:1040D00002E0012802DC0220C6F884022A69D4F832
:1040E000140400219047D6F88422801A71EBE27004
:1040F00007D3204601F0D8FD18B1E8688047C4F81E
:104100001404D6F8800270B12A69D4F81004002192
:104110009047D6F88022801A71EBE27003D32046D4
:10412000002101F005FA95F85400022817D0D6F8BE
:104130008C02A0B12A69D4F8180400219047D6F85F
:104140008C22801A71EBE27009D3204600F00AFD40
:10415000002808BF70BDE8688047C4F8180470BD27
:104160002DE9F04F83B005464FF0000BD0F838949E
:10417000D0F840A4881D1E4614460F46CDE901BB69
:10418000FEF7AAFC0246009002A801A901F012FC69
:10419000DDF80880A8F10100202800F23D82DFE868
:1041A00010F021002F003D004B0059006A007B00F9
:1041B0008C009A00A800B600C400D200E000F7000E
:1041C0000501130121012F013D0154016B0179010A
:1041D0008701A001AE01BC01CA01D801E601FD01C1
:1041E0000D021B022EB107F10A00FEF773FCC9F89D
:1041F0000000D9F8000004F10A0101F0D9FF0BE238
:104200002EB107F10A00FEF761FC89ED010A99ED74
:10421000010A04F10A00FEF713FEFDE12EB107F1D9
:104220000A00FEF753FC89ED020A99ED020A04F137
:104230000A00FEF705FEEFE12EB107F10A00FEF7D6
:1042400045FC89ED030A99ED030A04F10A00FEF723
:10425000F7FDE1E146B107F10A00FEF73BFCC9F8C2
:104260001000002085F80001D9F8100004F10A01BF
:1042700001F09EFFD0E146B107F10A00FEF72AFCEB
:10428000C9F82002002085F80001D9F8200204F1C5
:104290000A0101F08DFFBFE146B107F10A00FEF708
:1042A00019FCC9F82402002085F80001D9F824027D
:1042B00004F10A0101F07CFFAEE12EB107F10A0022
:1042C000FEF708FCC9F82802D9F8280204F10A010F
:1042D00001F06EFFA0E12EB107F10A00FEF7F6FB38
:1042E00089ED8B0A99ED8B0A04F10A00FEF7A8FD0F
:1042F00092E12EB107F10A00FEF7E8FB89ED8C0A86
:1043000099ED8C0A04F10A00FEF79AFD84E12EB1C2
:1043100007F10A00FEF7DEFBC9F83402D9F83402CF
:1043200004F10A0101F044FF76E12EB107F10A0021
:10433000FEF7CCFB89ED8E0A99ED8E0A04F10A0096
:10434000FEF77EFD68E12EB107F10A00FEF7BEFB25
:1043500089ED8F0A99ED8F0A04F10A00FEF770FDCE
:104360005AE176B107F10A00FEF7B0FB99ED961A13
:1043700089ED900AB4EE410AF1EE10FAC8BF89ED5A
:10438000901A99ED900A04F10A00FEF759FD43E1F5
:104390002EB107F10A00FEF799FB89ED910A99ED1C
:1043A000910A04F10A00FEF74BFD35E12EB107F149
:1043B0000A00FEF78BFB89ED920A99ED920A04F14F
:1043C0000A00FEF73DFD27E12EB107F10A00FEF7D6
:1043D0007DFB89ED930A99ED930A04F10A00FEF73B
:1043E0002FFD19E12EB107F10A00FEF76FFB89EDF1
:1043F000940A99ED940A04F10A00FEF721FD0BE1FD
:104400002EB107F10A00FEF761FB89ED950A99EDDF
:10441000950A04F10A00FEF713FDFDE076B107F1FD
:104420000A00FEF753FB99ED901A89ED960AB4EE57
:10443000401AF1EE10FAC8BF89ED900A99ED960A7C
:1044400004F10A00FEF7FCFCE6E076B107F10A0091
:10445000FEF73CFB95ED181A89ED970AB4EE410A78
:10446000F1EE10FAC8BF89ED971A99ED970A04F199
:104470000A00FEF7E5FCCFE02EB107F10A00FEF7D7
:1044800025FB89ED980A99ED980A04F10A00FEF7D8
:10449000D7FCC1E02EB107F10A00FEF717FB89ED4A
:1044A000990A99ED990A04F10A00FEF7C9FCB3E0F4
:1044B00086B107F10A00FEF70DFB6428D8BF64201F
:1044C000B0F5FA6FA8BF4FF4FA60C9F86802484621
:1044D00000F0CEFFD9F8680204F10A0101F068FE8D
:1044E0009AE02EB107F10A00FEF7F0FA89ED9B0A77
:1044F00099ED9B0A04F10A00FEF7A2FC8CE02EB1B4
:1045000007F10A00FEF7E2FA89ED9C0A99ED9C0A90
:1045100004F10A00FEF794FC7EE02EB107F10A00D8
:10452000FEF7D4FA89ED9E0A99ED9E0A04F10A007D
:10453000FEF786FC70E02EB107F10A00FEF7C6FA1E
:1045400089ED9D0A99ED9D0A04F10A00FEF778FCB9
:1045500062E02EB107F10A00FEF7BCFAC9F87C024E
:10456000D9F87C0204F10A0101F022FE54E076B190
:1045700007F10A00FEF7AEFA0146B0F5FA7FB8BFC0
:104580004FF4FA71002808BF0146C9F88012D9F823
:10459000800204F10A0101F00BFE3DE0B6B307F121
:1045A0000A00FEF797FAC9F8840278B39AF8541013
:1045B000022926D1092829DC0A2025E02EB107F19D
:1045C0000A00FEF787FAC9F88802D9F8880204F1D0
:1045D0000A0101F0EDFD1FE066B107F10A00FEF7E8
:1045E00079FA01460A28B8BF0A21002808BF014607
:1045F000C9F88C12D9F88C0204F10A0101F0D8FD37
:104600000AE0012802DC0220C9F88402D9F88402F9
:1046100004F10A0101F0CCFD6A4640460021CDF8C4
:1046200004B001F0CDF80098A11D02F085FEDAF883
:1046300048200AF154002146904703B0BDE8F08FAE
:10464000EFF3108072B67047EFF3108072B67047C8
:1046500080F310887047000080F3108870470000D6
:104660002DE9F0412DED048BD0F8387490ED319A9E
:1046700090ED328A0E46054600F21C44052900F5ED
:10468000806800F25C81DFE816F0060028008400F4
:10469000A6000A010F0197ED970A95EDEB1AB1EE0E
:1046A000402AB4EE421AB0EE423AF1EE10FAC8BF18
:1046B000B0EE413AB4EE430AF1EE10FAB4EE421A0B
:1046C000BCBFB0EE401AB0EE412AF1EE10FAC8BFFE
:1046D000B0EE412A85EDEE2A31E197ED971A95ED7E
:1046E000EB2AB1EE413AB4EE432AB0EE434A97EDDD
:1046F0008E0AF1EE10FAC8BFB0EE424AB4EE441A88
:10470000B0EE434AF1EE10FAB4EE432AB8BFB0EE71
:10471000412AB8BFB0EE424AF1EE10FAC8BFB0EE7F
:10472000424A94ED0B2A95EDEE5A22EE000AB0EEC5
:10473000C00A34EE452AB1EE404AB4EE442AF1EE06
:1047400010FAC8BFB0EE424AB4EE440AF1EE10FAD5
:10475000B8BFB0EE404A35EE040AB4EE430AB0EEFC
:10476000432AF1EE10FAC8BFB0EE402AB4EE421A66
:10477000F1EE10FAB4EE430ABCBFB0EE410AB0EE5F
:10478000403AF1EE10FAC8BFB0EE403A85EDEE3A8D
:10479000D5E097ED960A95EDEA1AB1EE402AB4EE0F
:1047A000421AB0EE423AF1EE10FAC8BFB0EE413A0A
:1047B000B4EE430AF1EE10FAB4EE421ABCBFB0EE0A
:1047C000401AB0EE412AF1EE10FAC8BFB0EE412A0D
:1047D00085EDED2AB3E097ED960A95EDEA3AB1EE54
:1047E000402AB4EE423AB0EE425A97ED8F1A95ED58
:1047F000ED4AF1EE10FAC8BFB0EE435AB4EE450AE6
:10480000B0EE425AF1EE10FAB4EE423AB8BFB0EE52
:10481000403AB8BFB0EE435A94ED0B6AF1EE10FA8D
:1048200026EE011AC8BFB0EE435AB0EEC11A35EEFB
:10483000443AB1EE415AB4EE453AF1EE10FAC8BF2F
:10484000B0EE435AB4EE451AF1EE10FAB8BFB0EE2E
:10485000415A85EE061A97ED033A34EE054AB4EE56
:10486000424AF1EE10FA23EE011A85EDEE1AB0EE8F
:10487000421AC8BFB0EE441AB4EE410AF1EE10FA83
:10488000B4EE424ABCBFB0EE404AB0EE442AF1EE6C
:1048900010FAC8BFB0EE442A85EDED2A4FE0D5F8F6
:1048A000A403C5F8B0034AE095F80804A0B107F5E1
:1048B000107095EDE90AD5EDEC0A95EDFF1AD0ECF4
:1048C000031A05F56F70FEF78FFC0020C5F8F4039E
:1048D00085F8F80385F8080495F8F80378BB95ED9A
:1048E000F80A95EDFD1AB4EE401AF1EE10FA1ADA54
:1048F00005F56F70FEF700FCD5E9FA0195EDFC1A9D
:10490000C5F8B003C5F8FC1397ED030A95EDFD2A31
:1049100021EE000A94ED0B1A88ED000A31EE020A2E
:1049200085EDFD0A0BE0D5F8A403C5F8B00300201F
:10493000C5F8FC03C8F80000012085F8F803042E30
:104940002ADB95EDEC0A97ED932A95EDFF1A30EEF0
:10495000490A97ED963A20EE020A31EE000AB1EECE
:10496000431AB4EE410AB0EE412AF1EE10FAC8BF84
:10497000B0EE402AB4EE423AF1EE10FAB4EE410A3B
:10498000BCBFB0EE430AB0EE401AF1EE10FAC8BF59
:10499000B0EE401A85EDED1A022E40DB95EDED0AE2
:1049A00097ED942A30EE481A98ED014A22EE012A3A
:1049B00098ED005A32EE042A97ED953A32EE052A28
:1049C00094ED0B5A97ED970A85EDEE2A23EE052A12
:1049D00021EE021AB6EE083A34EE011A20EE032A4E
:1049E00020EE433AB4EE431AF1EE10FAC8BFB0EE2F
:1049F000413AB4EE432AF1EE10FA88ED011A0CDBCD
:104A0000BEEE082A20EE020AB4EE401AB0EE412AA9
:104A1000F1EE10FAD8BFB0EE402A88ED012A012E3F
:104A2000DCBF0020C8F8040097ED971A95EDEE4A18
:104A3000B1EE415AB4EE454AB0EE456A97ED000A30
:104A400095ED322A95ED343AF1EE10FAC8BFB0EE8A
:104A5000446AB4EE461AF1EE10FAB4EE454ABCBF11
:104A6000B0EE414AB0EE445A9FED121AB8EEC00AB9
:104A700022EE011AF1EE10FAC8BFB0EE445A21EE50
:104A8000000A94ED0B1AB7EE082A21EE021A20EE66
:104A9000011A33EE011A85EDEE5A84ED005A84EDC9
:104AA000010A84ED023A204684ED031ABDEC048B22
:104AB000BDE8F081DB0FC94080EDE90A80F80814F9
:104AC0007047000010B590ED310A04460021C0F88F
:104AD000041480EDE90AC0E9EA1180EDEC0A00F562
:104AE0006D7084F808145021FBF7C9FB012084F88D
:104AF000F80310BD10B590F801E0BEF1030F0AD81D
:104B000084460120DFE80EF00802090E0CF10400D3
:104B100000F00EF810BD002010BD0CF11C0000F0DC
:104B200007F810BD0CF1340000F002F810BD0000D1
:104B3000F0B581B006461546006872691C460F46FE
:104B400090477168884202D2002001B0F0BD306900
:104B50008047F3683060384629462246984701B0BE
:104B6000F0BD000080B598B0D0E90C3103AF0093E0
:104B7000D0F8B833D0E906CECDE90113D0E9E7315A
:104B800090EDE60A87E80250D0F8B4139FED211AA1
:104B9000CDE90731D0F8C810026A099190EDEC2AEE
:104BA000D0F8D01020EE010A00F57A7306928DED50
:104BB0000A0A22EE010A0D910ECB8DED0B0A90ED43
:104BC0002D0A0DF1440C90ED312A90ED383A90ED1C
:104BD000394A8CE80E00D0F84024D0F83804B8EEFA
:104BE000C00A8DED0E0AB8EE430AD2F84CC0B0F8F8
:104BF0007C1222EE011A8DED0F0AB8EE440A02F182
:104C000054006A4614238DED0C1A8DED100AE0470E
:104C100018B080BD0000B44370B50446C06B666D2B
:104C20000621801B01F07AFB0328C8BF0638A16D5E
:104C300020650D1830440621A56501F06FFB216C3D
:104C40006065284601F06AFBA06570BD10B504469A
:104C5000C06E0068FCF72EFDE06E006804280FD8D7
:104C6000DFE800F00319242F3600606E4FF4802136
:104C7000016012202164A0640B204FF400312DE06C
:104C8000606E4FF48021016012202164A0640B202B
:104C90004FF4003122E0606E4FF4804101600E203D
:104CA0002164A06407204FF4005117E0606E4FF4B8
:104CB000804101600E202164A06407204FF4005160
:104CC0000CE0606E016800202164A064490805E0E2
:104CD000606E016800202164A0644908E0642046F9
:104CE000616400F001F810BD10B504460C302821B5
:104CF000FBF7C5FAD4F87402B5EE002A90ED000A6D
:104D000040F20110B8EEC00A30EE000A20EE001AA0
:104D100021EE021A84ED0D0A84ED0E1AA4F85C004F
:104D200010BD00002DE9F0412DED048B0446C06E4E
:104D30000068042807D0032803D12046FFF76CFF42
:104D400000E0E06B2060D4F87C02006818B1E06EEF
:104D50000068032801D127681EE02068E16C626FBB
:104D600040FA01F35E1CF51706EB556525F07F054B
:104D7000761B52F8237052F826208B40D21BC31AA0
:104D80005A43266C42FA01F1C01B401A06EAE07150
:104D9000B04288BF71420F18E068266C381A31465D
:104DA000676001F0BBFA656C8046A842206988BF45
:104DB000A8EB060894ED180A94ED062A94ED051A5E
:104DC00094ED073A20EE022A08EB000631EE020AC3
:104DD00032EE038AC4E9037684ED050A84ED078A7E
:104DE00003F0CCFDBDEEC00A10EE100A301A00EE42
:104DF000100AB8EEC09AB0EE480A03F0BFFDBDEE4F
:104E0000C00A10EE100A381A00EE100A01EE105A0D
:104E1000B8EEC00AF8EE410A03F094FDB0EE408A05
:104E200094ED180A94ED0D3A94ED051A94ED072AC5
:104E300094ED104A20EE030A20EE093A28EE000A0B
:104E400031EE031A30EE020AF8EE440A84ED051A38
:104E500084ED070AFEF792F894ED181A94ED0E3AD5
:104E600094ED064A21EE035A28EE055AF6EE000AA2
:104E700034EE054A21EE201AB0EEC48A21EE039AE0
:104E800094ED103A94ED052A9FED3D1AB4EE498A4F
:104E9000F1EE10FAB8BFB0EE414AB8EE431A82EE16
:104EA000012A84EE013A80EE011A84ED070A94ED9E
:104EB0000A0A84ED064A84ED082A84ED093A31EEA7
:104EC000400A84ED0A1A03F03DFDA16EE06891ED01
:104ED000000AB4EE498AF1EE10FA03DA4FF07C5181
:104EE000216328E0B8F1010F02DB0021216322E0F9
:104EF000B8F1FF3F1CDD94ED061A94ED182A94EDED
:104F00000C3A22EE011A33EE011AB7EE002AB4EE83
:104F1000421AF1EE10FAC8BFB0EE421AB5EE401ACE
:104F2000F1EE10FA84ED0C1ABCBF0021216302E0FF
:104F30004FF07E51216394ED101A9FED122AB8EEC6
:104F4000411A82EE011A02EE100AD4F87802B8EE85
:104F5000C22A32EE400A94ED0C2A90ED003A30EE6F
:104F6000020AB8EEC32A21EE021A20EE010A03F06B
:104F7000FDFC84ED0B0ABDEC048BBDE8F08100BFA5
:104F800000000000DB0FC94010B50446FFF758FBD6
:104F9000216B044688472046FFF75AFB10BD0000EE
:104FA000B0B5044694ED162A03EE101A138894ED5A
:104FB000151AB8EE433A94ED050A22EE032AB7EE2D
:104FC000003AC0E9001333EE413A94F86D1050886E
:104FD000928823EE000A22EE011A31EE000AC4E99B
:104FE000020284ED042A84ED050AA9B300202146BB
:104FF00041F8E00F91F8200068B1D4F84004D4F8EB
:105000003824836B106904F1A405984784F80101E2
:105010002846FFF787FED4F838044069411C2ED09B
:105020000128606C6268A16CA368A2EB000001EE2D
:10503000100AA3EB010094ED170A02EE100AB8EE75
:10504000C11AB8EEC22A20EE011A20EE022A84ED1F
:10505000061A84ED072A2AE094F86C10002947D03C
:10506000D4F88050D4E91CC1AC452FD219446167F3
:10507000D4E91E130844A0679818E06735E0D4E926
:105080001101D4E9012394ED170A101A01EE100A58
:10509000581A02EE100AB8EEC11AB8EEC22A20EE73
:1050A000011A20EE022A84ED062A84ED071AE06830
:1050B000E16C401A01EE100AB8EEC11A20EE010AA6
:1050C000204684ED080A00F099FA11E0B1FBF5F0F2
:1050D000D4E91E1204F14403B1FBF5F1B2FBF5F281
:1050E00007C34FF48070A4F86C000CF10100206736
:1050F000204600F0CBFAB0BD80B540F2F000C2F21D
:105100000000FEF7A3FF80BD10B52DED0A8B86B021
:105110000446183090EC030A05A804A9FDF76AFCC0
:105120009DED050ADDED040A94ED231A03A802A9FA
:1051300001F0ECF994ED140AB7EE00AA94ED0C3AE4
:105140009DED036A3AEE401A94ED0D4A21EE033AC2
:1051500020EE067A33EE073A9DED027A94ED052AA9
:1051600021EE041A9FED7F4A20EE070A31EE000A75
:1051700022EE041A8AEE011A84ED0D0A94ED210A3A
:10518000D4F8940084ED0C3A94ED222A30EE46CA0D
:1051900090ED000A94ED0F5A32EE47BA94ED103AB2
:1051A0002CEE002A2BEE000A32EE052A30EE030A1E
:1051B00022EE019A20EE018A29EE090A28EE081A49
:1051C00030EE011AB1EEC10AB4EE400AF1EE10FA67
:1051D00080F1C2809FED641A81EE000AB4EE4A0AA3
:1051E000F1EE10FA10DA20EE099A20EE088A94ED1A
:1051F0000F0A9FED5E1A94ED102A20EE010A84ED4D
:105200000F0A22EE010A19E0D4F8980094ED1A1A58
:1052100090ED000A94ED0F2A20EE010A2CEE000A10
:1052200032EE000A84ED0F0A90ED000A94ED102A88
:1052300021EE000A2BEE000A32EE000A84ED100A7D
:1052400094ED0C0A94ED0D1A29EE000A28EE011ACD
:1052500030EE010A94ED241A84ED0E0A01A8694685
:10526000B0EE490AF0EE480A00F0C0FF9DED010AD9
:10527000DDED000A04F1240004F1280104F12C0200
:1052800001F0F2FBD4F89C000068411C21D00128F9
:105290003FD194ED192A94ED090AB8EE422A94ED13
:1052A0000A1A20EE020ABDEEC00A94ED0B3A10EE87
:1052B000100A21EE020ABDEEC00A10EE101A23EE0B
:1052C000020AD4F8A030BDEEC00A10EE102A9847AA
:1052D0003EE094ED192A94ED090AB8EE422A94EDC5
:1052E0000A1A94ED0B3A20EE020ABDEEC00A21EE36
:1052F000021A10EE101A23EE020AD4F8A030BDEE06
:10530000C11ABDEEC00A11EE100A10EE102A98471D
:105310001EE094ED192A94ED090AB8EE422A94EDA4
:105320000A1A20EE020ABDEEC00A94ED0B3A10EE06
:10533000100A21EE020ABDEEC00A10EE101A23EE8A
:10534000020AD4F8A030BDEEC00A10EE102A984729
:1053500006B0BDEC0A8B10BDB0EE410A03F0EBFBCA
:1053600038E700BFABAA2A3FAC5C313FA4707D3F59
:105370000021C0E90C11C0E90F11704710B50446B7
:10538000FFF75EF9E16A044688472046FFF760F9B7
:1053900010BD0000B0B500F587650446284600F052
:1053A000B3FD28B1284600F0D7FD284600F0C2FD25
:1053B000D4F84004002142691420904704F1A4006D
:1053C000FFF744FCD4F84004406A8047D4F8400416
:1053D000FFF7D4FFD4F8400400214269052090472C
:1053E000204600F057F894F86D0048B9D4F840040E
:1053F000002142690220904794F86D000028F5D002
:10540000D4F84004C06B8047D4F8400400214269BE
:105410000520904740F2F005C2F20005284606211B
:1054200000F086F8D4F84004002142690520904736
:105430002846002100F07CF8B0BD000080B540F2A5
:10544000F000C2F20000FFF7A5FF80BD90ED9A1AB0
:1054500090ED010A90ED022AB8EEC11A22EE012A5F
:1054600020EE010A80ED982A80ED990A704700002D
:1054700090ED9A1A90ED010A90ED022AB8EEC11A49
:1054800022EE012A20EE010A80ED982A80ED990A89
:10549000704700000121A0F86C100021C0E91C1128
:1054A000C0E91E1170470000818841F02001818011
:1054B0007047000010B5044690F82C0403280DD066
:1054C000022818BF10BD2046FFF7FCFA2046FFF760
:1054D0004FFFD4F84004FFF757FD10BD04F54A70A4
:1054E000FEF792FD10BD000010B5044690F82C04A4
:1054F000032888BF10BDDFE800F00216090ED4F8BB
:105500004004C0688047C4F810040CE0D4F840049C
:10551000FFF734FF07E0D4F84004FFF72FFF04F54E
:105520004A70FEF72FF8012084F82E0410BD000009
:10553000B0B5044659B104F22C400278032A09D8C8
:10554000DFE802F0020A21264FF0FF30B0BD012053
:10555000A4F82D040020B0BD013906294FF0FF3515
:1055600018D8DFE801F0041717191F324800B4F803
:1055700030040028E8D1D4F83804D0F828020028F4
:10558000E2D00220E4E7481E18BF4FF0FF30B0BD64
:105590004FF0FF352846B0BDB4F830040028D3D111
:1055A0000320D5E704F5876000F0C4FCD4F840146C
:1055B00005464A690A2000219047D4F8400400219A
:1055C0004269322090472846B0BD00F0C7F8204617
:1055D000FFF778FA2046FFF7CBFE204600F056F89A
:1055E000B4F830040028B5D0D4F84004FFF7C6FE64
:1055F0004FF0FF30B0BD0420AAE70000B0B504466C
:1056000090F82C0494F82D14D4F8385481420CD01E
:105610002046FFF769FF94F82E0430B194F82D046A
:1056200084F82C042046FFF745FF94F82C04022848
:1056300005D0032829D12046FDF7AEFFB0BDD5F82F
:1056400034122046FFF70CF80021C4F884100168DA
:10565000C4F888108168C4F88C10C068C4F8900041
:105660002046FFF751FD94ED320A95ED9D1AB0EEFC
:10567000C00AB4EE410AF1EE10FAD8BFB0BDB4F8DA
:10568000300440F00400A4F83004B0BDF0B581B09F
:10569000D0F8387490ED050A97ED9C1A0446B4EEE4
:1056A000410AF1EE10FA05DBB4F8300440F00100D5
:1056B000A4F8300497ED9B1AB4EE410AF1EE10FA0B
:1056C00005DCB4F8300440F00200A4F8300494ED96
:1056D0000D0A97ED9E1AB0EEC00AB4EE410AF1EE43
:1056E00010FA05DDB4F8300440F00800A4F83004E6
:1056F00094F80001012803D194F80101012808D091
:10570000B4F83014002084F8000141F01000A4F82F
:105710003004B4F83004B4F8321488421BD004F2D8
:105720002C4530B1D4F84004FFF728FE0120A4F83E
:105730002D04D4F84064D7F87C72284600F028F88D
:1057400002463046394600F041FB00281CBFB4F841
:105750003004A4F8320401B0F0BD000010B50446D6
:10576000FEF772FF00216160FEF776FF10BD0000BA
:10577000808870470078704740F2F000C2F2000065
:1057800090F82C14B0F8300440EA01407047000053
:105790000178808840EA01407047000001788088E5
:1057A00040EA014070470000012262F31F100860C8
:1057B0007047000000F00F0040EA011010607047D1
:1057C000C0EA0140106070472DE9F04184B0064600
:1057D00000200390CDE90100D6F84074881D1446DE
:1057E000FDF77AF90246019003A802A900F0E2F859
:1057F000039D082D54D8DFE805F0051153262C37FA
:105800003D4349003046002100F05CF896ED310A36
:10581000029004F10A00FDF713FB41E0304601213C
:1058200000F050F896ED310A029004F10A00FDF7FD
:1058300007FB96ED310A304686EDE60A86EDE90A69
:1058400000F00AFB2CE03046062100F03BF8029005
:1058500026E00020029006F22C40FFF79FFF04F1A3
:105860000A0101F069FD1BE03046042100F02AF82E
:10587000029015E03046002100F024F802900FE07D
:105880003046052100F01EF8029009E03046002164
:1058900006F5876800F016F80290404600F05CFBC1
:1058A000029901AA2846FFF78BFF0198A11D01F07C
:1058B00043FDBA6C07F154002146904704B0BDE89F
:1058C000F081000080B5FFF733FE002818BF0120EB
:1058D00080BD0000B0B52DED028B044600F22C40D7
:1058E000B0EE408A0D46FFF745FF022858D1052D3E
:1058F00056D80120A840810729D110F00C0F4DD0B7
:10590000D4F8380490ED960AB1EE401AB4EE481A75
:10591000B0EE412AF1EE10FAB8BFB0EE482AB4EE6C
:10592000420AB0EE482AF1EE10FAB8BFB0EE402AB3
:10593000B4EE481AB8BFB0EE421AF1EE10FAB8BF92
:10594000B0EE421A84EDE71ABDEC028BB0BDD4F87C
:10595000380490ED970AB1EE401AB4EE481AB0EE52
:10596000412AF1EE10FAB8BFB0EE482AB4EE420A6E
:10597000B0EE482AF1EE10FAB8BFB0EE402AB4EE0D
:10598000481AB8BFB0EE421AF1EE10FAB8BFB0EE46
:10599000421A84EDE81ABDEC028BB0BD84EDE68AB4
:1059A000BDEC028BB0BD000002F00F0303601009D4
:1059B0000860704793B20360100C086070470000E5
:1059C0002DE9F04389B00E460546D1E90020C968AB
:1059D000B368CDE905200820CDE90731D5F8384472
:1059E000D5F84094ADF8220003A804A9FFF7DCFF26
:1059F000039828B1D4F87C12884201D00024ACE08E
:105A000095F86D0070B1049FA7F10D0004280BD824
:105A1000284600210024FFF755FF05F22C40FFF730
:105A200043FD9AE0002498E0C84618F8540F0C2F64
:105A300002D008B9002490E020B13179884201D029
:105A400000248AE0022807D1D5F83804D0F88C0267
:105A5000002801DD002480E0D4F8800220B1D9F8CC
:105A60000C008047C5F81004142F00F27080DFE8A6
:105A700007F00B176E1E2B38475059627880886EDE
:105A80006E6E6E6EA9B8C60028460021FFF71AFF99
:105A9000B11D01F051FC95ED310A05A80A3054E022
:105AA00005AA28463146FFF78FFE012455E0B01DB8
:105AB000FDF70CF828460421FFF70CFF284600F0FC
:105AC000CBF995EDE60A18E0B01DFCF7FFFF28467C
:105AD0000221FFF7FFFE284600F0BEF995EDE70A28
