:020000040800F2
:10000000E098002061020008476F00087562000850
:10001000456F0008550B000819B1000800000000EA
:10002000000000000000000000000000A101000826
:100030005511000800000000FD010008A58B000814
:100040007B0200087B0200087B0200087B0200089C
:100050007B0200087B020008571100087B020008A1
:100060007B0200085D110008631100087B02000894
:10007000ED0B00087B0200087B0200087B020008F1
:100080007B0200087B0200087B0200087B0200085C
:10009000590B00087B0200087B0200086911000868
:1000A0007B0200086D8C00087B0200087B020008C0
:1000B0007B0200087B0200087B0200087B0200082C
:1000C0007B0200087B0200087B0200087B0200081C
:1000D0007B020008759500087B02000881950008E6
:1000E0007B0200087B0200087B0200087B020008FC
:1000F0007B0200087B0200087B0200087B020008EC
:100100007B0200087B0200087B0200087B020008DB
:100110007B0200087B0200087B0200087B020008CB
:100120007B0200087B020008F90B0008A5100008FC
:100130007B0200087B0200087B0200087B020008AB
:10014000650B00087B0200087B020008496F00086D
:100150007B0200087B0200087B0200084196000831
:100160007B0200087B0200087B0200087B0200087B
:100170007B0200087B0200087B02000800000000F0
:100180007B0200087B020008DFF810D000F0C6FBFD
:1001900000480047B9D70008AFF30080E09800207E
:1001A0002C4B19680868B0E8F04F80F30988BFF35A
:1001B0006F8F4FF0000080F311887047000000003F
:1001C00008480068006880F308884FF0000080F35A
:1001D000148862B661B6BFF34F8FBFF36F8F00DF35
:1001E00000BF00BF08ED00E0DFF80C00016841F43B
:1001F00070010160704700BF88ED00E0EFF30980F7
:10020000BFF36F8F134B1A681EF0100F08BF20ED5D
:10021000108A20E9F04F106009B44FF0500080F3CD
:100220001188BFF34F8FBFF36F8F0EF043FB4FF07A
:10023000000080F3118809BC19680868B0E8F04F25
:100240001EF0100F08BFB0EC108A80F30988BFF3CE
:100250006F8F70477C000020EFF30580704700002F
:100260000648804706480047FEE7FEE7FEE7FEE750
:10027000FEE7FEE7FEE7FEE7FEE7FEE7518C00083B
:10028000890100082DE9F05F0546002092469B4653
:1002900088460646814640241BE02846414647469C
:1002A000224600F0C4F953465A46C01A914110D371
:1002B00011461846224600F0ABF92D1A67EB0108EB
:1002C0004F4622460120002100F0A2F917EB000959
:1002D0004E41201EA4F10104DFDC484631462A4687
:1002E0004346BDE8F09F10B540EA01040346A40769
:1002F00003D009E010C9121F10C3042AFAD203E088
:1003000011F8014B03F8014B521EF9D210BDD2B2C5
:1003100001E000F8012B491EFBD270470022F6E7EE
:1003200010B513460A4604461946FFF7F0FF20466B
:1003300010BD2DE9FE4F804681EA0300C00F0C4638
:10034000009021F0004123F00045B8EB0200A941E4
:1003500005D24046214690461C460B46024623F0F5
:100360000040104347D0270DC7F30A00C3F30A51DA
:100370000290401A019040286BDAC3F3130040F456
:10038000801B0098924620B10023D2EB030A63EB56
:100390000B0B01985946C0F14002504600F038F965
:1003A00006460D4650465946019A00F050F910EBAA
:1003B00008006141002487EA115284EAE7731A4376
:1003C00040D0009A62B3019A012A4FEA075215DC25
:1003D000001B61EB02014FF0004202EA0752CDE937
:1003E0000042001C41F5801132462B4600F087F98F
:1003F00003B0BDE8F08F40462146F9E7001B61EBF2
:100400000201001C41F5801300185B412018A2F581
:10041000001747EB030140EAD570B6196D4111E0B2
:100420006D084FEA360645EAC0754FEA0752001BD1
:1004300061EB0201001C41F5801149084FEA3000D0
:100440000019514132462B4603B0BDE8F04F00F091
:1004500047B90098012240000023D0EB020263EB71
:10046000E073009821464FEAE074B8EB000061EBBE
:100470000401E9E783F000435BE781F0004158E7BE
:100480002DE9FE4F81EA030404F0004421F000410D
:1004900000944FF0000B23F0004350EA01045ED0BB
:1004A00052EA03045BD0C3F30A54C1F30A552C4447
:1004B000A4F2F3340194A0FB0254C1F3130141F4FC
:1004C0008011C3F3130343F4801301FB024400FBC8
:1004D000034E840A970A44EA815447EA8357A4FBEF
:1004E000076802958D0A05FB07854FEA932C04FBEC
:1004F0000C542705029D4FEA065847EA1637B5EB1C
:1005000008056EEB070C870E920E47EA811742EA48
:100510008312A7FB0201B6EB0B0164EB00042B0D69
:1005200043EA0C335E1844EB1C50DA465146E7FBB5
:100530000201C5F313044FEA0B3343EA14534FEAA5
:100540000432019C43EA0603A4F10C040294009CCB
:10055000CDE900B400F0D3F803B0BDE8F08F00207F
:100560000146F9E730B4044696230800214604D03A
:10057000B62330BC002200F085B820460021F8E701
:1005800000F0004230F000400AD0C10D01F560716A
:10059000C0F3160042EA0151C208400711437047F8
:1005A000002001467047000030B5041E71F10004C0
:1005B00004DB4FF00044404264EB0101141E73F170
:1005C000000405DB1C464FF00043524263EB04037A
:1005D0008B4208BF824230BD01F0004330B421F0AD
:1005E000004150EA010206D00A0DA2F56072C1F383
:1005F0001301002A02DC30BC00207047440F44EA9B
:10060000C104C100E01830BC00EBC25000F031B8AA
:10061000202A04DB203A00FA02F1002070479140C2
:10062000C2F1200320FA03F3194390407047202AB7
:1006300004DB203A21FA02F00021704721FA02F38C
:10064000D040C2F120029140084319467047202A49
:1006500006DBCB17203A41FA02F043EAE07306E0EA
:1006600041FA02F3D040C2F12002914008431946FA
:1006700070470029A8BF7047401C490008BF20F000
:100680000100704710B4B0FA80FC00FA0CF050EA98
:10069000010404BF10BC704749B1CCF1200421FA19
:1006A00004F411FA0CF118BF012121430843A3EB14
:1006B0000C01CB1D4FEA00614FEA102042BF002021
:1006C00010BC704700EBC35010440029A4BF10BCFD
:1006D0007047401C490008BF20F0010010BC704763
:1006E00010B5141E73F1000408DA401C41F100013A
:1006F00092185B411A4301D120F0010010BD2DE991
:10070000F04D92469B4611B1B1FA81F202E0B0FA87
:1007100080F220329046FFF77BFF04460F4640EA06
:100720000A0041EA0B0153465A46084313D01146CA
:1007300053EA010019D0C8F140025046FFF777FF95
:1007400005460E46504659464246FFF761FF0843AC
:1007500005D0012004E020463946BDE8F08D002098
:10076000054346EAE0762C4337430A986305E40ADA
:10077000A0EB08000022FD0A44EA47540A3002D5E3
:1007800000200146E9E7010510196941DDE9084546
:1007900000196941BDE8F04DA2E72DE9F04D81EA6D
:1007A000030404F0004B21F0004514464FF0000A0A
:1007B00023F0004150EA050220D054EA01021DD086
:1007C000C5F30A570246C5F31303C1F31300C1F37F
:1007D0000A5640F4801543F48013A7EB0608101B5B
:1007E000D64608F2FD3873EB050002D308F1010884
:1007F00001E092185B41B8F1000F03DA00200146D6
:10080000BDE8F08D00204FF48011064684460EE0CE
:10081000171B73EB050705D3121B63EB0503064398
:100820004CEA010C49084FEA300092185B4150EA4B
:100830000107EDD152EA030012D082EA040083EAF4
:100840000501084305D0101BAB4106D2012200234D
:1008500006E000224FF0004302E06FF00102531067
:100860001AEB06004CEB085110EB0A0041EB0B01B0
:10087000BDE8F04DFFF734BF2DE9F04D00231A46D7
:100880001B1A8A4103DB00200146BDE8F08DC1F34D
:100890000A52C1F3130141F480154FF0000BD10748
:1008A00002D100186D41521E0027044640F2FF118C
:1008B000384601EB620A3E468046024600204FF46D
:1008C0008011FFF7B4FEC2197141BB1846EB01005D
:1008D000B4EB030C75EB000C04D3E41A65EB0005D4
:1008E00017460E46241908F101006D418046342850
:1008F000E3DDF91946EB0600091BA84103D24FF0CE
:10090000FF32134601E0002213461BEB070046EBC3
:100910000A51BDE8F04DFFF7E3BE0000064C074D5D
:1009200006E0E06840F0010394E8070098471034BF
:10093000AC42F6D3FFF72CFCBCFE0008DCFE00083E
:1009400070B58C1810F8015B15F0070301D110F891
:10095000013B2A1106D110F8012B03E010F8016BBE
:1009600001F8016B5B1EF9D12B0705D40023521E41
:100970000DD401F8013BFAE710F8013BCB1A921CA9
:1009800003E013F8015B01F8015B521EF9D5A142A7
:10099000D8D3002070BD000010B504464E48416811
:1009A00021F4403141604168626811434160206830
:1009B000416821F48071416020684168226941EA00
:1009C000022141602068416821F040714160206847
:1009D0004168A268114341602068816821F4006188
:1009E000816020688168E26811438160A06A6FF0CD
:1009F0007061C84214D02068816821F07061816004
:100A000020688168A26A114381602068816821F0B2
:100A10004051816020688168E26A1143816009E089
:100A20002068816821F0706181602068816821F010
:100A3000405181602068816821F002018160206856
:100A40008168227E41EA4201816094F82000D0B1A1
:100A5000606A401E072804D940F2A6711FA00BF05F
:100A600047FA2068416841F40061416020684168AC
:100A700021F46041416020684268616A491E42EA8F
:100A80004131416004E02068416821F40061416027
:100A90002068C16A21F47001C1622068C26AA18B1A
:100AA000491E42EA0151C1622068816821F4007147
:100AB00081602068816894F8302041EA4221816099
:100AC0002068816821F480618160206881686269A2
:100AD00041EA8221816010BD002301402E2E2F4467
:100AE0007269766572732F53544D33324634787879
:100AF0005F48414C5F4472697665722F5372632F71
:100B000073746D3332663478785F68616C5F6164EA
:100B1000632E630001221021014802F041B9000058
:100B20000000024000221021014802F039B9000003
:100B30000000024001221146014802F031B90000D4
:100B40000004024000220121014802F029B90000FE
:100B500000040240FEE70000014801F055B9000022
:100B600094110020014801F04FB90000BC11002091
:100B700010B588B00C460290002004900590082023
:100B80000690064801F02AF90028FAD001AB224667
:100B900002A9024800F09EFE08B010BDBC11002062
:100BA00004284FF0000070470020704710B5002265
:100BB0000449054808F074FE0449034808F066FE3D
:100BC000002010BDFC28002004160020FC2000207E
:100BD00010B50146034808F059FE024808F035FEFA
:100BE000002010BD0416002000207047014801F0CD
:100BF000B3BC0000A41500202DE9F05FFA48FB4AC1
:100C0000FA4DC06CFA4EF94F0068DFF8E4C3DFF824
:100C1000DC83DFF8DC93DFF8D4A3DFF8D4B3DFF8AC
:100C2000CCE3F34C483D60361837D1140CF1180C66
:100C3000A8F1300809F178090AF1300A0BF1300BFC
:100C4000AEF1180E90423ED9E84A543A1368A042D9
:100C500001D1202235E0A84201D1202231E0B0426A
:100C600001D120222DE0B84201D1202229E06045A7
:100C700001D10A4625E0404501D10A4621E0484518
:100C800001D10A461DE0504501D10A4619E05845F8
:100C900002D14FF4001214E0704502D14FF400125B
:100CA0000FE0D34A9032904202D14FF4001208E094
:100CB000CE4A4832904202D14FF4001201E04FF088
:100CC00000621340C3E0CA4AA83290423ED9C74AE4
:100CD000583A1368A04201D1202235E0A84201D140
:100CE000202231E0B04201D120222DE0B84201D1D2
:100CF000202229E0604501D10A4625E0404501D186
:100D00000A4621E0484501D10A461DE0504501D17F
:100D10000A4619E0584502D14FF4001214E070451C
:100D200002D14FF400120FE0B14A9032904202D14A
:100D30004FF4001208E0AD4A4832904202D14FF41D
:100D4000001201E04FF00062134080E0A84A4832F0
:100D500090423ED9A64A103A5368A04201D12022BF
:100D600035E0A84201D1202231E0B04201D1202259
:100D70002DE0B84201D1202229E0604501D10A4688
:100D800025E0404501D10A4621E0484501D10A4607
:100D90001DE0504501D10A4619E0584502D14FF4F3
:100DA000001214E0704502D14FF400120FE0904A97
:100DB0009032904202D14FF4001208E08B4A483240
:100DC000904202D14FF4001201E04FF00062134054
:100DD0003DE0874A103A1368A04201D1202235E055
:100DE000A84201D1202231E0B04201D120222DE0E1
:100DF000B84201D1202229E0604501D10A4625E010
:100E0000404501D10A4621E0484501D10A461DE08E
:100E1000504501D10A4619E0584502D14FF400125D
:100E200014E0704502D14FF400120FE0704A903286
:100E3000904202D14FF4001208E06C4A48329042CE
:100E400002D14FF4001201E04FF000621340002B7A
:100E500072D0664A904235D9A04201D120212DE0BE
:100E6000A84201D1202129E0B04201D1202125E072
:100E7000B84201D1202121E060451FD040451DD05E
:100E800048451BD0504519D0584502D14FF40011A8
:100E900014E0704502D14FF400110FE05449903135
:100EA000884202D14FF4001108E05049483188428D
:100EB00002D14FF4001101E04FF000614B484C3873
:100EC0000160ADE04A4AA832904236D9A04201D131
:100ED00020212DE0A84201D1202129E0B04201D1FA
:100EE000202125E0B84201D1202121E060451FD01A
:100EF00040451DD048451BD0504519D0584502D11A
:100F00004FF4001114E0704502D14FF400110FE0CE
:100F100037499031884202D14FF4001108E033493B
:100F20004831884202D14FF4001101E04FF00061D6
:100F30002E485038016073E0A8E02D4A48329042B4
:100F400035D9A04201D120212DE0A84201D1202194
:100F500029E0B04201D1202125E0B84201D1202171
:100F600021E060451FD040451DD048451BD050456D
:100F700019D0584502D14FF4001114E0704502D148
:100F80004FF400110FE01A499031884202D14FF41A
:100F9000001108E015494831884202D14FF4001190
:100FA00001E04FF0006112481038C16038E0A04203
:100FB00001D1202131E0A84201D120212DE0B04211
:100FC00001D1202129E0B84201D1202125E060454E
:100FD00023D0404521D048451FD050451DD058450D
:100FE00008D14FF4001118E0481200205864024064
:100FF00010600240704502D14FF400110DE0244909
:10100000884202D14FF4001107E02249884202D100
:101010004FF4001101E04FF000611D48A0388160DD
:101020001D4C207880070CD5207820F0020020701D
:10103000207840F00400207001221146174801F08A
:10104000AFFE6078164D80070CD5607820F0020066
:101050006070607840F00400607001221021284622
:1010600001F09EFEA07880070CD5A07820F0020049
:10107000A070A07840F00400A07001221021284642
:1010800001F08EFEBDE8F05F0CF09CB9BDE8F09F6A
:10109000A0600240A0640240F80100200004024069
:1010A00000000240014801F057BA00005813002028
:1010B0000168CAB2103A1823B2FBF3F2064B9B5CEC
:1010C000C3656FF30901032A02D9091D816500E098
:1010D0008165806D70470000D0F6000810B50146AC
:1010E00000208A6A8B694FF0C074002B0ED0B3F5D4
:1010F000005F1AD062B3012A2AD0022A28D0032A1C
:1011000003D1C96AC90100D5012010BD1AB1012A55
:1011100006D0022AF9D1C96AC901F6D5012010BD4D
:10112000C96AA142FBD1012010BD52B1012A0AD0E7
:10113000022A06D0032AF7D1C96AA142F4D10120BC
:1011400010BD012010BDC96AC901FBD5012010BD29
:10115000012010BD7047012001F098BC082001F06B
:1011600095BC102001F092BC202001F08FBC70478C
:1011700010B50B480168001D0468001D0068084494
:1011800000280BD00822074905F075F805492046CC
:101190000422BDE81040103105F06DB810BD00000C
:1011A000107AFF1F42000020F8B505460C460026C5
:1011B00000962068122804D940F2896160A00AF0E4
:1011C00097FE6068401E0F2804D940F28A615CA037
:1011D0000AF08EFEA06890B1012810D002280ED02F
:1011E00003280CD004280AD0052808D0062806D0E9
:1011F000072804D040F28B6151A00AF079FE95F8DF
:101200003C00012819D0012085F83C002068072205
:10121000092814D92968CB680A3800EB40008240BD
:101220009343CB602078A1680A3800EB40008140EE
:101230002868C2681143C16011E00220F8BD296826
:101240000B6900EB4000824093430B612078A1685A
:1012500000EB400081402868026911430161606829
:101260001F22072813D229684B6B401E00EB800019
:10127000824093434B63208881B22079401E00EB6B
:10128000800081402868426B1143416328E00D28AB
:1012900013D229680B6BC01F00EB80008240934380
:1012A0000B63208881B22079C01F00EB8000814051
:1012B0002868026B1143016312E02968CB6A0D387C
:1012C00000EB800082409343CB62208881B220797A
:1012D0000D3800EB800081402868C26A1143C1626A
:1012E000254826492A688A4206D12268122A03D153
:1012F000426842F4800242602A688A421BD1216817
:10130000102901D0112916D1416841F40001416032
:10131000206810280FD11A481A490068B0FBF1F074
:1013200000EB80004000009002E00098401E00901A
:1013300000980028F9D185F83C600020F8BD000035
:101340002E2E2F447269766572732F53544D3332AB
:10135000463478785F48414C5F4472697665722FF5
:101360005372632F73746D3332663478785F6861BB
:101370006C5F6164632E6300002301400020014024
:10138000F800002040420F000068C06C7047000069
:101390002DE9F04704460025002C7DD072492068D5
:1013A00088420AD07149884207D07149884204D0E6
:1013B00040F243116FA00AF09BFD606868B1B0F580
:1013C000803F0AD0B0F5003F07D0B0F5403F04D0D1
:1013D0004FF4A27167A00AF08BFD4FF08076A068F1
:1013E00077004FF0407850B1B04208D0B84206D0F4
:1013F000404504D040F245115EA00AF079FD206915
:1014000030B1012804D04FF4A3715AA00AF070FD46
:10141000207E30B1012804D040F2471155A00AF0D7
:1014200067FDDFF88891A06A80B3B0422ED0B84241
:101430002CD040452AD0B0F1806F27D0B0F1A06FFA
:1014400024D0B0F1C06F21D0B0F1E06F1ED0B0F168
:10145000006F1BD0B0F1106F18D0B0F1206F15D015
:10146000B0F1306F12D0B0F1406F0FD0B0F1506FCB
:101470000CD0B0F1606F09D0B0F1706F06D0484564
:1014800004D04FF4A4713BA00AF032FDE06848B1EB
:10149000B0F5006F06D000E043E040F2491135A0FE
:1014A0000AF026FDE069401E0F2804D94FF4A5710B
:1014B00030A00AF01DFD94F8300030B1012804D0AE
:1014C00040F24B112BA00AF013FD6069012807D0F0
:1014D00030B1022804D04FF4A67126A00AF008FD0E
:1014E00094F8200030B1012804D040F24D1121A021
:1014F0000AF0FEFCA06A48450FD0E06A68B1B0F17E
:10150000805F0AD0B0F1005F07D0B0F1405F04D037
:1015100040F2511117A00AF0EBFC206C002618B124
:1015200008E00120BDE8F087204600F041F866643D
:1015300084F83C60206CC00610D4206C20F48850E5
:1015400040F0020020642046FFF726FA6664206C13
:1015500020F0020040F00100206400E0012584F842
:101560003C602846DEE700000020014000210140E9
:10157000002201402E2E2F447269766572732F531C
:10158000544D3332463478785F48414C5F44726939
:101590007665722F5372632F73746D3332663478AD
:1015A000785F68616C5F6164632E63000100000F07
:1015B00010B586B00446142101A8FEF7AFFE174B04
:1015C000206800221649984209D1086840F48070CA
:1015D0000860086800F48070009006B010BD114BE0
:1015E0009842FAD1086840F480600860086800F406
:1015F000806000900A481438016841F020010160C1
:10160000006800F02000009018150190032002905F
:10161000039201A9044801F045FADEE700200140E9
:101620004438024000220140001402402DE9F041FC
:1016300004460D46206881684FF0000749050BD528
:101640008068C00508D5206C40F02000206484F834
:101650003C700120BDE8F08101F0DAFB064613E0A2
:10166000681C11D025B101F0D3FB801BA8420BD917
:1016700020680068800707D4206C40F004002064D4
:1016800084F83C700320E5E7206800688007E7D510
:1016900021686FF012000860206C40F40070206434
:1016A0002068816811F0405F13D1217E89B9C16A39
:1016B00011F4700F02D0806840050AD4206C20F429
:1016C00080702064206CC00403D4206C40F00100C2
:1016D00020640020BEE7000038B5044600250095D0
:1016E000207E002806D0012804D040F2D32147A054
:1016F0000AF0FEFBE06A68B1B0F1805F0AD0B0F199
:10170000005F07D0B0F1405F04D04FF435713FA0C7
:101710000AF0EEFB94F83C00012807D0012084F881
:101720003C0020688168C90702D014E0022038BD5F
:10173000816841F001018160424843490068B0FB83
:10174000F1F000EB4000009002E00098401E009095
:1017500000980028F9D120688168C9074BD0216C16
:1017600040F20162914341F480712164416849056E
:1017700005D5216C21F4005141F480512164216C84
:10178000C90404D5616C21F00601616400E0656460
:1017900084F83C502D496FF02202026048682C49C1
:1017A000C00607D0206888422DD1816811F0405FC3
:1017B0001CD028E0206888420FD0264A904203D1EE
:1017C000D1F80423D20608D0234A90421BD1D1F885
:1017D000041301F01F01102915D2816811F0405F38
:1017E00011D1816841F0804181600CE0816841F055
:1017F0008041816007E0206C40F010002064606C44
:1018000040F001006064002038BD00002E2E2F44FF
:101810007269766572732F53544D3332463478783B
:101820005F48414C5F4472697665722F5372632F33
:1018300073746D3332663478785F68616C5F6164AD
:10184000632E6300F800002040420F000023014097
:1018500000200140002101400022014070B50446F3
:101860000E4694F820500C48864204D94FF4D061BB
:101870000AA00AF03DFB012D07D0022D05D0606AB9
:1018800040F480206062012070BD206841693143CE
:101890004161002070BD00007F8F03002E2E2F4479
:1018A0007269766572732F53544D333246347878AB
:1018B0005F48414C5F4472697665722F5372632FA3
:1018C00073746D3332663478785F68616C5F63611E
:1018D0006E2E63002DE9F04704460D4616469946E4
:1018E00094F8208020688768A868002806D004281B
:1018F00004D040F2E94155A00AF0FAFAE86830B1A4
:10190000022804D040F2EA4150A00AF0F1FA286916
:10191000082804D940F2EB414CA00AF0E9FAA86883
:1019200000281ED06868B0F1005F04D340F2F24195
:1019300046A00AF0DDFA287D30B1012804D040F23B
:10194000F44142A00AF0D4FAB8F1010F13D0B8F173
:10195000020F10D0606A40F4802060620120BDE870
:10196000F0872868B0F5006FE5D340F2EE4137A06C
:101970000AF0BEFADFE707F0806007F00061084375
:1019800001D1F8005CD5C7F30160022805D9606A6F
:1019900040F4000060620120E1E701218140C9F8C4
:1019A0000010A9684FF4C07399B1EA6803EB0017FF
:1019B00011436A6841EAC2012268D1514FF4C271F1
:1019C000276801EB00112A697A502A7D012A09D083
:1019D0000DE02A88E96803EB001741EA42512268CA
:1019E000D151EBE72268555845F48075555031794F
:1019F000F279757941EA0261B279120442EA05226C
:101A000011434FF4C675226805EB0015515131782A
:101A1000F278757841EA0261B278120442EA05224E
:101A200011434FF4C475226805EB0015515121682C
:101A300003EB00100A5842F001020A5000208EE722
:101A4000606A40F400106062012088E72E2E2F4467
:101A50007269766572732F53544D333246347878F9
:101A60005F48414C5F4472697665722F5372632FF1
:101A700073746D3332663478785F68616C5F63616C
:101A80006E2E630070B50C4690F82010012907D027
:101A9000022905D0416A41F480214162012070BDD4
:101AA00020684FF48035A84204D34FF4547163A0EA
:101AB0000AF01EFA6068A84204D340F251315FA0D8
:101AC0000AF016FAA068A84204D340F252315BA093
:101AD0000AF00EFAE068A84204D340F2533157A04E
:101AE0000AF006FAA06930B1012804D04FF455710C
:101AF00052A00AF0FDF9E06930B1012804D040F2AB
:101B000055314EA00AF0F4F9206930B1012804D013
:101B100040F2563149A00AF0EBF9206A30B10128B1
:101B200004D040F2573145A00AF0E2F9514D606906
:101B30001B2804D940F2723140A00AF0D9F9606A3A
:101B40001B2804D940F273313CA00AF0D1F905F505
:101B50000075286840F001002860286820F47C5057
:101B600028602868616A40EA01202860207D00F032
:101B70001F0101208840E9698143E961A5F50075ED
:101B8000E169B1B9D5F80C128143C5F80C12A289EC
:101B9000616862F31F41626905EBC202C2F840123C
:101BA0002289216862F31F41626905EBC202C2F813
:101BB0004412E169012916D1D5F80C120143C5F888
:101BC0000C122288616862F31F41626905EBC20250
:101BD000C2F840122289E16862F31F41626905EB95
:101BE000C202C2F84412A16979B1D5F804120143C6
:101BF000C5F80412216971B1D5F814120143C5F872
:101C00001412216A01290CD010E0D5F80412814386
:101C1000C5F80412EEE7D5F814128143C5F8141282
:101C2000EFE7D5F81C120143C5F81C12D5F80002E5
:101C300020F00100C5F80002002070BD2E2E2F44B8
:101C40007269766572732F53544D33324634787807
:101C50005F48414C5F4472697665722F5372632FFF
:101C600073746D3332663478785F68616C5F63617A
:101C70006E2E630000640040704700002DE9F041C3
:101C800004460D4617461E4694F82080002D06D0C7
:101C9000012D04D04FF4BE6142A00AF029F9B8F139
:101CA000010F09D0B8F1020F06D0606A40F480201D
:101CB00060620120BDE8F08125B1206800698007DD
:101CC0005FD003E02068C068800754D04FF4D8701C
:101CD000216800EB0510095801F00401B960E9B36F
:101CE00021680958C90879602168085800F0020085
:101CF000F8604FF4DA70216800EB0510095801F024
:101D00000F01396121680958C1F30721B9612168C0
:101D10000858000C78614FF4DC70216800EB051066
:101D20000958317021680958090A717021680958E9
:101D3000090CB17021680858000EF0704FF4DE7085
:101D4000216800EB05100958317121680958090A0A
:101D5000717121680958090CB17100E017E0216820
:101D60000858000EF071BDB12068016941F02001F2
:101D7000016100209EE7606A40F40010606201206B
:101D800098E7606A40F400106062012092E72168E1
:101D90000958490D3960A7E72068C16841F0200162
:101DA000C160E6E72E2E2F447269766572732F5359
:101DB000544D3332463478785F48414C5F44726901
:101DC0007665722F5372632F73746D333266347875
:101DD000785F68616C5F63616E2E6300024600206D
:101DE00092F82010012901D002290CD111688A68CB
:101DF000520100D501208A68120100D5401C896873
:101E0000C90000D5401C70472DE9F05F054600244D
:101E100028684669D0F804908768D0F80CA0D0F8FC
:101E200010B0D0F81880F10748D0F90714D001217C
:101E30008160B80703D5284600F02FFB0CE0780737
:101E400002D54FF4006407E0380702D54FF4805400
:101E500002E0284600F020FBF80516D529684FF46B
:101E600080708860B80503D5284600F018FB0CE0A8
:101E7000780502D544F4005407E0380502D544F44F
:101E8000804402E0284600F009FBF80316D52968D3
:101E90004FF480308860B80303D5284600F001FB7A
:101EA0000CE0780302D544F4004407E0380302D57F
:101EB00044F4803402E0284600F0F2FA300707D5F7
:101EC0005FEACA6004D544F4007429681020C86031
:101ED00070074FF0080707D55FEA0A7004D5286835
:101EE000C760284600F096FAB00706D52868C06893
:101EF000800702D0284600F08EFA700607D55FEA08
:101F0000CB6004D544F48064296810200861B006D1
:101F100007D55FEA0B7004D528680761284600F0F2
:101F20008CFAF00606D528680069800702D028469A
:101F300000F084FAB00308D55FEAC96005D52968C6
:101F400010204860284600F07AFAF00307D55FEACF
:101F5000097004D528684760284600F0A3FA3004C9
:101F600046D55FEA497040D5F00504D55FEAC870F0
:101F700001D044F00104B00504D55FEA887001D5B2
:101F800044F00204700504D55FEA487001D544F0BE
:101F90000404300529D518F0700F26D008F0700021
:101FA000402815D006DC102809D020280AD0302877
:101FB00016D10AE050280ED0602811D10EE044F06E
:101FC00008040DE044F010040AE044F0200407E0A7
:101FD00044F0400404E044F0800401E044F48074E0
:101FE0002868816921F070018161296804204860B6
:101FF000002C05D0686A204368622846FFF73CFE43
:10200000BDE8F09F70B50446002C7CD0B149206833
:10201000884207D0B049884204D040F21D11AFA0D9
:1020200009F066FF207E30B1012804D04FF48F7193
:10203000AAA009F05DFF607E30B1012804D040F213
:102040001F11A6A009F054FFA07E30B1012804D0D2
:102050004FF49071A1A009F04BFFE07E30B1012850
:1020600004D040F221119DA009F042FF207F30B141
:10207000012804D04FF4917198A009F039FF607FD6
:1020800030B1012804D040F2231194A009F030FFB0
:10209000A06868B1B0F1804F0AD0B0F1004F07D00E
:1020A000B0F1404F04D04FF492718CA009F020FFA2
:1020B000E06868B1B0F1807F0AD0B0F1007F07D04E
:1020C000B0F1407F04D040F2251184A009F010FF48
:1020D000206998B3B0F5803F30D0B0F5003F2DD0E7
:1020E000B0F5403F2AD0B0F5802F27D0B0F5A02F13
:1020F00024D0B0F5C02F21D0B0F5E02F1ED0B0F520
:10210000002F1BD000E043E0B0F5102F16D0B0F543
:10211000202F13D0B0F5302F10D0B0F5402F0DD0B8
:10212000B0F5502F0AD0B0F5602F07D0B0F5702F62
:1021300004D04FF4937169A009F0DAFE6069C8B168
:10214000B0F5801F16D0B0F5001F13D0B0F5401FBA
:1021500010D0B0F5800F0DD0B0F5A00F0AD0B0F5BB
:10216000C00F07D0B0F5E00F04D040F227115BA0FC
:1021700009F0BEFE6068401EB0F5806F04D34FF4D6
:10218000947156A009F0B4FE94F8200010B104E058
:10219000012070BD204600F0BDF82068016841F0C4
:1021A0000101016000F034FE054605260CE000F058
:1021B0002FFE401B0A2807D9606A40F40030606295
:1021C00084F82060012070BD20684068C007EED010
:1021D0002068016821F00201016000F019FE054647
:1021E0000CE000F015FE401B0A2807D9606A40F495
:1021F0000030606284F82060012070BD2068406873
:102200008007EED4207E01283FD02068016821F0AD
:1022100080010160607E01283DD02068016821F0C6
:1022200040010160A07E01283BD02068016821F0B8
:1022300020010160E07E012839D02068016841F06A
:1022400010010160207F012837D02068016821F04B
:1022500008010160607F012835D02068016821F005
:1022600004010160D4E902010843D4E904121143D6
:1022700008436168491E08432168C8610020606204
:10228000012084F82000002070BD2068016841F022
:1022900080010160BEE72068016841F040010160F3
:1022A000C0E72068016841F020010160C2E72068B2
:1022B000016821F010010160C4E72068016841F065
:1022C00008010160C6E72068016841F0040101606F
:1022D000C8E7000000640040006800402E2E2F4434
:1022E0007269766572732F53544D33324634787861
:1022F0005F48414C5F4472697665722F5372632F59
:1023000073746D3332663478785F68616C5F6361D3
:102310006E2E63002DE9F04186B00446142101A819
:10232000FDF7FCFF364B374ADFF8D080186821688C
:10233000344C03260227401C103200254FF0090CB4
:10234000414527D11860012807D1106840F000707E
:102350001060106800F000700090206840F00800E5
:102360002060206800F00800009001960297039515
:102370000496CDF814C001A9234800F093FB002275
:102380000521142000F074FF142000F03DFF06B07A
:10239000BDE8F081DFF874804145F8D1116841F063
:1023A00080611160116801F080610091186001285E
:1023B00007D1106840F000701060106800F00070E5
:1023C0000090206840F002002060206800F00200C9
:1023D000009060200190029703950496CDF814C0F8
:1023E00001A90B4800F05EFB00220521402000F00F
:1023F0003FFF402000F008FFC9E7000000640040F4
:102400000800002030380240000C02400068004004
:1024100000040240704700B58BB00DF122036A46FC
:102420000021FFF72BFC009807900820ADF82A0048
:1024300007A80BF007F90BB000BD70477047704755
:1024400070B5044694F82000012805D0606A40F475
:1024500000206062012070BD022084F82000206806
:10246000016821F00101016000F0D2FC05460DE099
:1024700000F0CEFC401B0A2808D9606A40F4003006
:102480006062052084F82000012070BD206840684B
:10249000C007EDD1606270BD7047704770477047EC
:1024A0007047704770472DE9F0410446A76D00F072
:1024B000AFFC054694F835000026022806D080209F
:1024C000606584F834600120BDE8F081206801680F
:1024D00021F0160101602068416921F0800141610D
:1024E000206C08B9A06C20B12068016821F00801B7
:1024F00001602068016821F0010101600BE000F03B
:1025000087FC401B052806D9202034342062032094
:1025100060702670D8E720680068C007EFD13434B7
:102520003F2094F828108840B86001206070267021
:102530000020C9E790F83510022903D080214165B9
:1025400001207047052180F835100068016821F0EE
:1025500001010160002070472DE9F84304464FF067
:102560000009CDF800906F484FF416510068B0FB99
:10257000F1F7A56D2E6894F85C00082202FA00F1CC
:10258000314210D02068016849070CD5016821F05C
:102590000401016094F85C0002FA00F1A960606D2A
:1025A00040F00100606594F85C104FF0010808FAF3
:1025B00001F0304208D021684969090604D5A860B5
:1025C000606D40F00200606594F85C100420884063
:1025D000304208D021680968890704D5A860606D79
:1025E00040F00400606594F85C1010208840304290
:1025F00020D02168096809071CD5A86020680168F7
:1026000049030CD50068000304D4216C91B1204625
:1026100088470FE0A16C69B1204688470AE001684D
:10262000C90503D4016821F008010160216C09B1DA
:102630002046884794F85C102020884030424CD0D7
:1026400021680968C90648D5A86094F835000528AE
:102650000BD020680168490330D50068000328D4F6
:10266000616C51B32046884737E02068016821F04B
:10267000160101602068416921F080014161206CF0
:1026800008B9A06C20B12068016821F00801016040
:1026900094F85C103F208840A86084F8358084F866
:1026A0003490216D00293BD001B02046BDE8F043B5
:1026B0000847E16B09B1204688470EE00168C9056B
:1026C00007D4016821F01001016084F8358084F896
:1026D0003490E16B09B120468847606D00281FD017
:1026E000606DC00714D0052084F8350020680168AB
:1026F00021F0010101600098401C0090B84203D80D
:1027000020680068C007F6D184F8358084F83490DA
:10271000E16C002904D001B02046BDE8F043084731
:10272000BDE8F883F80000202DE9F041044600F0F0
:102730006FFB0546002C7CD0A149206888423ED022
:102740009F49183188423AD09D493031884236D06D
:102750009B494831884232D09949603188422ED015
:102760009749783188422AD095499031884226D0BD
:102770009349A831884222D0924988421FD091497A
:10278000183188421BD08F493031884217D08D498B
:102790004831884213D08B49603188420FD0894933
:1027A000783188420BD087499031884207D08549DB
:1027B000A831884203D0B82183A009F099FB606852
:1027C000C0B1B0F1007F15D0B0F1806F12D0B0F180
:1027D000C06F0FD0B0F1006F0CD0B0F1206F09D0F6
:1027E000B0F1406F06D0B0F1606F03D0B92176A090
:1027F00009F07EFBA06838B1402805D0802803D0BE
:10280000BA2171A009F074FBE068B0F5007F04D034
:1028100018B1BB216CA009F06BFB2069B0F5806F8B
:1028200004D018B1BC2168A009F062FB606958B1FE
:1028300000E070E0B0F5006F06D0B0F5805F03D027
:10284000BD2161A009F054FBA06948B1B0F5005F5B
:1028500006D0B0F5804F03D0BE215BA009F048FB45
:10286000E06940B1B0F5807F05D0202803D0BF21BA
:1028700055A009F03DFB206A60B1B0F5803F09D05A
:10288000B0F5003F06D0B0F5403F03D0C0214EA0C8
:1028900009F02EFB606A28B1042803D0C1214AA0A8
:1028A00009F026FB606A002829D0A06A48B10128F7
:1028B00007D0022805D0032803D0C62142A009F082
:1028C00017FBE06A60B1B0F5000F09D0B0F1807F6E
:1028D00006D0B0F1C07F03D0C7213BA009F008FBB0
:1028E000206B60B1B0F5001F09D0B0F5800F06D0A5
:1028F000B0F5C00F03D0C82133A009F0F9FA0220C7
:1029000084F83500002684F834602068016821F0DE
:10291000010101600DE00120BDE8F08100F078FACE
:10292000401B052805D920206065032084F8350068
:10293000F2E720680068C007F0D121680A683048D3
:102940000240D4E901031843D4E903352B4318436B
:1029500063691843A3691843E3691843236A18435A
:102960001043626A042A03D1D4E90B231A431043AB
:1029700008602068406920F00701656A28460D4319
:10298000012704280DD1A06A0543E06A48B120461A
:10299000FEF7A4FB28B14020606584F83570012063
:1029A000BAE7206845612046FEF782FB94F85C2078
:1029B0003F2191408160666584F835700020ABE767
:1029C00010600240106402402E2E2F44726976651A
:1029D00072732F53544D3332463478785F48414CEC
:1029E0005F4472697665722F5372632F73746D330F
:1029F00032663478785F68616C5F646D612E630065
:102A00003F8010F070B5044600F002FA0546601CE5
:102A100002D004480078044400F0FAF9401BA042B8
:102A2000FAD370BD700000201749102815D0202857
:102A300020D0082810D1C87840F00100C870C878AC
:102A400010F00100C87007D0C87820F00100C870ED
:102A5000C87840F00200C8707047487840F0010024
:102A60004870887840F00100887008790028F3D019
:102A70000AF0A8BC087840F0010008700879002826
:102A8000EAD00AF09FBC0000F801002010B504490C
:102A90000A68024202D00860FFF7C6FF10BD0000BE
:102AA000143C01402DE9F84F04460D46DFF884A29E
:102AB00054451BD0A048844218D0A048844215D069
:102AC0009F48844212D09F4884420FD09E4884423F
:102AD0000CD09E48844209D09D48844206D09D482F
:102AE000844203D0AC219CA009F002FA28680104BA
:102AF000090C01D0000C03D0AD2197A009F0F8F922
:102B00006868F8B101281DD011281BD0022819D0FF
:102B1000122817D0B0F5881F14D0B0F5041F11D0BB
:102B2000B0F5441F0ED0B0F5901F0BD0B0F5081FC4
:102B300008D0B0F5481F05D0032803D0AE2186A0E9
:102B400009F0D6F900264FF003084FF00F094FF0B7
:102B5000010B0BFA06FB2F6807EA0B075F457CD1D8
:102B6000287900F00300012801D002281DD1E8686F
:102B700048B1012807D0022805D0032803D0C0217E
:102B800075A009F0B5F9A168700008FA00F2914348
:102B9000EA6882400A43A260606820EA0B00297953
:102BA000C1F30011B140014361602879C04380073F
:102BB00012D0A86838B1012805D0022803D0D1214D
:102BC00065A009F095F9E168700008FA00F29143F8
:102BD000AA6882400A43E260287900F003000228D4
:102BE0002ED12869F8B109281DD001281BD0022850
:102BF00019D0032817D0042815D0052813D006288B
:102C000011D007280FD008280DD00A280BD00B2888
:102C100009D00C2807D00D2805D00F2803D0DE21BD
:102C20004DA009F065F9F00804EB80010A6A70070D
:102C3000C00E09FA00F39A432B69834013430B62D9
:102C40002168700008FA00F291432A7902F0030229
:102C500082400A432260686800E065E010F4403F6B
:102C600062D04C48016841F480410160006800F482
:102C700080400090484826F003010A18D2F808382E
:102C8000B007010F09FA01F08343544501D1002038
:102C900023E02948844201D101201EE027488442D4
:102CA00001D1022019E02648844201D1032014E01A
:102CB0002448844201D104200FE02348844201D1FA
:102CC00005200AE02148844201D1062005E0204881
:102CD000844201D1072000E0082088401843C2F850
:102CE00008082E490868B8436A68D20300D53843FB
:102CF00008602A49091D0868B8436A68920300D52C
:102D000038430860254908310868B8436A68D20228
:102D100000D53843086021490C310868B8436A6817
:102D2000920200D538430860761C102EFFF40FAFD6
:102D3000BDE8F88F00000240000402400008024095
:102D4000000C024000100240001402400018024033
:102D5000001C0240002002402E2E2F44726976652E
:102D600072732F53544D3332463478785F48414C58
:102D70005F4472697665722F5372632F73746D337B
:102D800032663478785F68616C5F6770696F2E6354
:102D9000000000004438024000300140003C014087
:102DA00070B506460C461546002C04D140F29D1124
:102DB00008A009F09DF835B1012D04D04FF4CF7172
:102DC00004A009F095F80DB1B46170BD2004B061A4
:102DD00070BD00002E2E2F447269766572732F53DA
:102DE000544D3332463478785F48414C5F447269C1
:102DF0007665722F5372632F73746D333266347835
:102E0000785F68616C5F6770696F2E630000000017
:102E100001488068704700007000002070B50446CB
:102E2000002C5FD08D49206888420AD08C498842A6
:102E300007D08C49884204D040F2BF118AA009F023
:102E400057F860689649401E884204D94FF4E071F3
:102E500085A009F04DF8A0684FF4804530B1A84234
:102E600004D040F2C11180A009F042F8E068800A65
:102E700004D04FF4E1717CA009F03AF82069A8422F
:102E800007D0B0F5404F04D040F2C31176A009F04E
:102E90002FF8606930B1012804D04FF4E27172A0BC
:102EA00009F026F8A06930F0FE0004D040F2C51108
:102EB0006DA009F01DF8E06930B1402804D04FF44E
:102EC000E37169A009F014F8206A30B1802804D0B9
:102ED00040F2C71164A009F00BF894F83D000025FA
:102EE00010B106E0012070BD84F83C50204600F08F
:102EF000E1F8242084F83D002068016821F00101F8
:102F000001602068016841F40041016020680168A7
:102F100021F40041016000F0FBFF624B61689942BF
:102F200003D86149884203D304E06049884201D252
:102F3000012070BD5E49B0FBF1F12268566826F0B1
:102F40003F060E43566062689A4201D8491C07E06A
:102F50004FF4967251434FF47A72B1FBF2F1491C6F
:102F60002268166A26F03F06314311626168994271
:102F700010D84900401EB0FBF1F2521CC2F30B0204
:102F8000042A01D2042022E0B0FBF1F0401CC0F37F
:102F90000B001CE0A268EAB301EBC10303EB0116CE
:102FA000431EB3FBF6F35B1C43F480431B0549D07F
:102FB0008AB301EBC10202EB0111401EB0FBF1F03C
:102FC000401CC0F30B0040F4804040F400402168F6
:102FD000CA694CF6FF739A431043C861D4E90710DD
:102FE00001432068026822F0C00211430160D4E965
:102FF000030101432068826848F2FF339A4311437A
:103000008160D4E9051001432068C26822F0FF0204
:10301000114301E00FE017E0C1602068016841F052
:10302000010101602564202084F83D00256384F8B7
:103030003E50002070BD01EB4106431EB3FBF6F38A
:103040005B1CB3E70120C2E701EB4101401EB0FB6E
:10305000F1F0401CC0F30B00B7E700000054004043
:1030600000580040005C00402E2E2F4472697665A7
:1030700072732F53544D3332463478785F48414C45
:103080005F4472697665722F5372632F73746D3368
:1030900032663478785F68616C5F6932632E6300F2
:1030A0007F1A0600A086010080841E0000093D00F2
:1030B00040420F00F0B587B00446142102A8FDF786
:1030C0002DF91D492068884233D11C48016841F020
:1030D00004010160016801F004010191016841F0FF
:1030E00001010160006800F0010001904FF40070E0
:1030F00002901227039701240494032605960425C1
:10310000069502A90E48FFF7CDFC20020290039716
:1031100004940596069502A90A48FFF7C3FC0748E0
:103120001030016841F400010160006800F4000003
:10313000019007B0F0BD0000005C00403038024054
:1031400000080240000002400248816802781144F1
:10315000816070477000002010B50B48016841F491
:1031600000710160016841F480610160016841F40F
:1031700080710160032000F0CBF80F2000F006F80A
:1031800000F026F8002010BD003C024070B5044657
:103190000D4D4FF47A712878B1FBF0F00B490968B6
:1031A000B1FBF0F001F0C8FC08B1012070BD102C9B
:1031B00007D200222146501E00F05AF86C60002011
:1031C00070BD012070BD000070000020F8000020DC
:1031D00082B00C48016841F480410160006800F44D
:1031E000804001900748001F016841F08051016054
:1031F000006800F08050019000220F21901E02B064
:1032000000F036B84438024010B50446002C03DA0A
:10321000BE2108A008F06CFE002C09DB04F01F01A1
:10322000012088406109890001F1E021C1F8000115
:1032300010BD00002E2E2F447269766572732F53D5
:10324000544D3332463478785F48414C5F4472695C
:103250007665722F5372632F73746D3332663478D0
:10326000785F68616C5F636F727465782E630000CD
:103270002DE9F04107460D461646102E03D3AA212C
:1032800013A008F035FE102D03D3AB2110A008F0D9
:103290002FFE1E480068C0F30223C3F10704042C6C
:1032A00000D90424181D072801D2002300E0DB1EEA
:1032B000012000FA04F1491E294099409840401E1F
:1032C000304001433846BDE8F04107F051BF0000EF
:1032D0002E2E2F447269766572732F53544D3332FC
:1032E000463478785F48414C5F4472697665722F46
:1032F0005372632F73746D3332663478785F68610C
:103300006C5F636F727465782E6300000CED00E0F3
:1033100010B50446072C0BD0062C09D0052C07D07D
:10332000042C05D0032C03D0922108A008F0E0FD66
:1033300004F00701144A10684FF6FF03184040EAF2
:10334000012012490843106010BD00002E2E2F44AA
:103350007269766572732F53544D333246347878E0
:103360005F48414C5F4472697665722F5372632FD8
:1033700073746D3332663478785F68616C5F636F45
:10338000727465782E6300000CED00E00000FA0511
:103390007047006841620020704770B50368586A42
:1033A000002907D09C6A00EB144400204FF482757A
:1033B000491E0AE040EA024098620DE005EB8006F3
:1033C0009E5904EB1644401CC0B28842F6D305EB6C
:1033D000810144EA02405850002070BDD0F8040436
:1033E00006F0D3BDC1EBC10200EB8202D0F80404A9
:1033F000926C06F035BDC1EBC10200EB8202D0F841
:103400000404D2F8082206F089BDD0F8040406F0BE
:10341000BEBD70B504460B0601F00F00C0EBC00145
:1034200004EB81014FF001024FF0000502D53C3161
:103430004A7002E001F5FE714D70087094F8BC030B
:10344000012808D084F8BC23206807F0BDF984F86F
:10345000BC53002070BD022070BD70B5044601F061
:103460000F006268904201D9012070BD0B0601F087
:103470000F01C1EBC10104EB81014FF001024FF0DC
:10348000000502D53C314A7002E001F5FE714D7035
:103490008D70087094F8BC03012808D084F8BC2310
:1034A000206807F083FB84F8BC53002070BD022025
:1034B00070BD01F00F01C1EBC10100EB8100D0F83C
:1034C000140270472DE9F04104460F0601F00F0089
:1034D000C0EBC00104EB81014FF001064FF0000585
:1034E00002D53C314E7002E001F5FE714D7008705E
:1034F0008A60CB704A7802B1C880022B00D10D716E
:1035000094F8BC03012809D084F8BC63206807F054
:10351000A9F8284684F8BC53BDE8F0810220FBE7F7
:1035200070B50D4605F00F04C4EBC40100EB81013A
:1035300001F5FE71CA604B6100238B614B700C700A
:103540000369012B00D10A612A0705D0027C0068BB
:1035500007F084FB002070BD027C006807F072FA5F
:10356000F8E770B504460D46616805F00F00884223
:1035700001D9012070BD29064FF000064FF001026D
:1035800006D5C0EBC00104EB81013C314A7006E076
:10359000C5EBC50104EB810101F5FE714E708A7027
:1035A000087094F8BC03012807D084F8BC23206875
:1035B00007F028FB280702D007E0022070BD217C1D
:1035C00004F57172206807F0C7FA84F8BC63002024
:1035D00070BD70B50D4605F00F04C4EBC40100EBDF
:1035E00081013C31CA604B6100238B6101234B7028
:1035F0000C700369012B00D10A612A0705D0027CF7
:10360000006807F02BFB002070BD027C006807F00B
:1036100019FAF8E72DE9F84F04462568284607F01F
:1036200057FC00287ED1206807F07EFC002879D066
:10363000206807F079FC800704D52068416901F013
:1036400002014161206807F06FFCC10604F571704A
:10365000009035D52068816921F0100181612F6AC1
:1036600007F00F00C0EBC00004EB800606F5FE7605
:10367000C7F34340022802D0062812D01BE047F6C9
:10368000F070074217D0C7F30A1217462846F168B0
:1036900007F04EFCF0683844F060B0693844B0611F
:1036A00009E008222846009907F042FCB069C7F3F8
:1036B0000A110844B0612068816941F010018161FC
:1036C000206807F031FC00034FF001084FF00809B3
:1036D0004FF0100A3ED50026206807F004FC834610
:1036E00035E05FEACB702FD0F1B2206807F014FC10
:1036F0000746F80707D005EB4610C0F8088B31469F
:10370000204603F04BFC380707D505EB4610C0F800
:10371000089B3146204603F01DFCF80605D505EB55
:10372000461000E06AE1C0F808ABB80604D505EB26
:1037300046112020C1F8080BB80405D505EB461149
:103740004FF40050C1F8080B761C4FEA5B0BBBF13D
:10375000000FC6D1206807F0E7FB400359D5206869
:1037600007F0BAFB8346002650E05FEACB704AD0F0
:10377000F1B2206807F0BEFB0746F80723D006F039
:103780000F0108FA01F0D5F834188143C5F8341850
:1037900005EB4610C0F80889206901280FD1C6EB57
:1037A000C60004EB8000D0E911211144816436B9D0
:1037B000206D20B920680121009A07F0CDF9F1B2FF
:1037C0002046FFF70FFE380703D505EB4610C0F87B
:1037D0000899F80603D505EB4610C0F808A9780645
:1037E00004D505EB46114020C1F80809B80704D5F7
:1037F00005EB46110220C1F80809380603D5314609
:10380000204603F03DFC761C4FEA5B0BBBF1000F3A
:10381000ABD1206807F088FB002811DAD5F804083E
:1038200020F00100C5F8040894F8F403012829D019
:10383000204600F0E2F92068416901F00041416151
:10384000206807F071FB00050BD5D5F80808C00704
:1038500002D0204600F016FA2068416901F40061A8
:103860004161206807F060FBC00466D5D5F8040804
:1038700020F00100C5F804081021206807F002FBC1
:10388000002125E0002084F8F40300212046FFF702
:103890007FFDD0E705EB411000F510604FF67F3259
:1038A0008260036823F400130360036843F000633D
:1038B0000360C0F80822D0F8002222F40012C0F8F9
:1038C0000022D0F8002242F00062C0F80022491C19
:1038D00060688842DED8D5F81C0840F00110C5F8B1
:1038E0001C08206B60B1D5F8840840F00B00C5F8C7
:1038F0008408D5F8440840F00B00C5F844080CE0F3
:10390000D5F8140842F22B010843C5F81408D5F87D
:10391000100840F00B00C5F81008D5F8000820F496
:10392000FE60C5F80008217C2068009A07F014F9B1
:103930002068416901F480514161206807F0F4FA80
:10394000800415D5206806F0CFFE206807F0B0FA95
:10395000E06000F0D7FA0146227B206807F04EFBBA
:10396000204600F033F92068416901F400514161BB
:10397000206807F0D9FA000707D5204600F041F982
:103980002068416901F008014161206807F0CCFA24
:10399000C00208D50021204600F032F820684169B5
:1039A00001F480114161206807F0BEFA800208D559
:1039B0000021204600F028F82068416901F4001138
:1039C0004161206807F0B0FA400007D52046FFF7B4
:1039D00005FD2068416901F080414161206807F0E0
:1039E000A3FA40070AD520684568680702D5204633
:1039F000FFF70BFD2068416829434160BDE8F88F5F
:103A0000D0F8040406F014BBD0F8040406F021BB7F
:103A10002DE9F0418AB00446002C10D02068B0F1A6
:103A2000A04F06D03949884203D0872138A008F03A
:103A30005FFA266894F8BD03002520B108E0012054
:103A40000AB0BDE8F08184F8BC53204600F07CF851
:103A5000032084F8BD03F06BC00500D42561206805
:103A600006F0EAFF04F11001282288466846FCF7B8
:103A70003AFC94E80F0006F045FE022718B184F8DE
:103A8000BD730120DCE70021206807F070FA0021F7
:103A900001260DE0C1EBC10004EB80003C30467014
:103AA0000170C180C5708560C5604561491CC9B29F
:103AB00060688842EED800210DE0C1EBC10004EB44
:103AC000800000F5FE7045700170C5708560C560AE
:103AD0004561491CC9B260688842EED82822414637
:103AE0006846FCF700FC94E80F0006F0EDFE18B104
:103AF00084F8BD730120A3E784F8385084F8BD63CF
:103B0000206806F0D3FE00209AE700000000044081
:103B10002E2E2F447269766572732F53544D3332B3
:103B2000463478785F48414C5F4472697665722FFD
:103B30005372632F73746D3332663478785F6861C3
:103B40006C5F7063642E630010B586B00446142168
:103B500001A8FCF7E3FB2068B0F1A04F2FD10021B2
:103B60001848026842F001020260006800F001009B
:103B700000904FF4C0500190022002900391032066
:103B800004900A20059001A90F48FEF78BFF0D480D
:103B9000001D016841F0800101600A48143001688D
:103BA00041F480410160006800F4804000900022F0
:103BB00005214320FFF75CFB4320FFF725FB06B000
:103BC00010BD0000303802400000024070B50446CD
:103BD0000125E06800280ED0022801D0FDF7C7FAC1
:103BE0002946D4F8040406F0A3FAD4F80404BDE886
:103BF000704006F054BA0025F2E7D0F8040406F04D
:103C00007CBAD0F8040406F082BA10B5044694F8E1
:103C1000BC0301280BD0012084F8BC0384F83810C1
:103C2000206807F0D4F9002084F8BC0310BD0220FE
:103C300010BDD0F8042400F57171104606F084BA66
:103C400010B50446206894F8BC13012906D0012160
:103C500084F8BC13A16A012902D008E0022010BD3B
:103C6000A169012903D0816B41F48031816320680F
:103C700007F0EEF8206806F00BFE002084F8BC0385
:103C800010BD000010B50446D4F8040406F09EFAF6
:103C90002068D0F8001E41F00101C0F8001E206A23
:103CA000002804D00248016841F00601016010BDFF
:103CB00010ED00E02DE9F04704460D46002C30D011
:103CC0002068401E0E2804D94FF417717AA008F01E
:103CD0000FF995B1012D10D0022D0ED0032D0CD06F
:103CE000042D0AD0052D08D0062D06D0072D04D0AE
:103CF00040F25D2170A008F0FBF8DFF8F481D8F8FD
:103D00000000EFB200F00700A8420CD288F8007063
:103D1000D8F8000000F00700A84204D00120BDE858
:103D2000F0870120FBE72068724E810729D5400704
:103D300003D5306840F4E05030602078000703D5A8
:103D4000306840F460403060A068A0B1802812D094
:103D5000902810D0A0280ED0B0280CD0C0280AD0AF
:103D6000D02808D0E02806D0F02804D04FF42071E5
:103D700051A008F0BDF83068A16820F0F0000843B9
:103D800030602078C0073ED0606850B1012808D06C
:103D9000022806D0032804D040F2872146A008F06C
:103DA000A7F8544960680839012808D002280BD0C8
:103DB000032809D0096889070BD40120AFE70968F7
:103DC000890306D40120AAE70968890101D40120EA
:103DD000A5E7316821F0030101433160FFF718F8CE
:103DE000814641F2883A07E0FFF712F8A0EB09009C
:103DF000504501D9032092E73068616800F00C005B
:103E0000B0EB810FF0D1D8F8000000F00700A84215
:103E100009D988F80070D8F8000000F00700A8421F
:103E200001D001207BE720784FF4805540074FF404
:103E3000A0574FF4C0584FF4E05914D5E06860B172
:103E4000A8420AD0B84208D0404506D0484504D020
:103E500040F2C52118A008F04BF83068E16820F462
:103E6000E050084330602078000715D5206960B124
:103E7000A8420AD0B84208D0404506D0484504D0F0
:103E80004FF433710CA008F033F83068216920F446
:103E9000604040EAC100306000F05AF83168164ACC
:103EA000C1F30311515CC84014490860144800680C
:103EB000FFF76CF9002032E72E2E2F4472697665E9
:103EC00072732F53544D3332463478785F48414CE7
:103ED0005F4472697665722F5372632F73746D330A
:103EE00032663478785F68616C5F7263632E63005A
:103EF000003C024008380240D8F60008F8000020D4
:103F0000740000200148006870470000F80000209D
:103F100000B5FFF7F7FF04490968044AC1F382219D
:103F2000515CC84000BD000008380240E8F60008B7
:103F300000B5FFF7E7FF04490968044AC1F34231BD
:103F4000515CC84000BD000008380240E8F6000897
:103F500010B51748006810F00C01164816D0164B23
:103F6000042912D0082911D1114C241F216801F015
:103F70003F02216849020AD52068C0F38810A0FBDF
:103F800003010023FCF77EF909E0184610BD216803
:103F90000023C1F38811A1FB0001FCF773F921682C
:103FA000C1F30141491C4900B0FBF1F010BD000014
:103FB000083802400024F400001BB7002DE9F84F38
:103FC0000446002C27D020680F2803D9E821F3A04D
:103FD00007F08EFF2078FF4FC007A7F1040561D0DE
:103FE00060684FF480364FF4A02838B1B04205D055
:103FF000404503D0ED21E9A007F07AFFF548001D08
:104000000168C1F3810101290BD00068C0F3810070
:10401000022803D00CE00120BDE8F88F3868400288
:1040200006D5286880033DD5606860BB0120F3E7B2
:104030006068B04204D1286840F48030286012E003
:10404000404508D1286840F480202860286840F462
:104050008030286007E0286820F4803028602868D5
:1040600020F480202860606870B1FEF7D1FE06461B
:1040700006E0FEF7CDFE801B642801D90320CBE7C4
:1040800028688003F5D50DE0FEF7C2FE064606E07F
:10409000FEF7BEFE801B642801D90320BCE7286818
:1040A0008003F5D42078CC4E80074FF000095AD514
:1040B000E06830B1012804D040F21F11B7A007F02A
:1040C00017FF20691F2804D94FF49071B3A007F09F
:1040D0000FFFC048001D016811F00C0F07D00068E9
:1040E000C0F38100022812D1386840020FD428683A
:1040F000800704D5E068012801D001208CE72868FA
:10410000216920F0F80040EAC10028602BE0E06857
:10411000C0B101203060FEF77BFE804607E0FEF76D
:1041200077FEA0EB0800022801D9032074E7286875
:104130008007F4D52868216920F0F80040EAC10022
:10414000286010E0C6F80090FEF762FE804607E0A7
:10415000FEF75EFEA0EB0800022801D903205BE712
:1041600028688007F4D42078000734D5606930B11E
:10417000012804D04FF4B07188A007F0B9FEDFF831
:1041800054829649606908F1700890B10120086076
:10419000FEF73EFE824607E0FEF73AFEA0EB0A007D
:1041A000022801D9032037E7D8F800008007F3D5AB
:1041B00011E0C1F80090FEF72BFE824607E0FEF703
:1041C00027FEA0EB0A00022801D9032024E7D8F833
:1041D00000008007F3D42078400772D54FF0000824
:1041E000A06840B1012806D0052804D04FF4C6715C
:1041F0006AA007F07DFE77483C300068C0000BD411
:1042000074483C30016841F080510160006800F062
:10421000805000904FF00108DFF8C4B1DBF80000D7
:10422000C00515D4DBF8000040F48070CBF8000026
:10423000FEF7EEFD824607E0FEF7EAFDA0EB0A007E
:10424000022801D90320E7E6DBF80000C005F3D51A
:10425000DFF880B1A0680BF16C0B012813D00528A2
:1042600018D0DBF8000020F00100CBF80000DBF8EC
:10427000000020F00400CBF80000A06838B3FEF77F
:10428000C7FD82461EE0DBF8000040F00100CBF8DD
:104290000000F2E7DBF8000040F00400CBF800007B
:1042A000DBF8000040F00100CBF80000E5E7FEF786
:1042B000AFFDA0EB0A0141F28830814202D9032010
:1042C000AAE61FE0DBF800008007F0D511E0FEF75A
:1042D0009FFD824609E0FEF79BFDA0EB0A0141F23B
:1042E0008830814201D9032096E6DBF80000800780
:1042F000F1D4B8F1010F05D136483C30016821F006
:1043000080510160A06940B1012806D0022804D084
:1043100040F2CF1121A007F0EBFDA06900286FD07B
:104320002C49091D09684FF0FF38C1F381010229AA
:1043300067D0022805D0C6F86090FEF769FD0446F4
:1043400093E0E06938B1B0F5800F04D04FF4EC7120
:1043500012A007F0CDFD206A3F2804D940F2D91100
:104360000EA007F0C5FD606A3238B0F5BF7F04D9F2
:104370004FF4ED7109A007F0BBFDA06A02280AD036
:10438000042808D0062806D0082804D040F2DB1103
:1043900002A007F0ADFDE06A801E23E02E2E2F4420
:1043A0007269766572732F53544D33324634787880
:1043B0005F48414C5F4472697665722F5372632F78
:1043C00073746D3332663478785F68616C5F7263E2
:1043D000632E63000438024000004742800E4742CB
:1043E000007000400D2805D94FF4EE71AFF2540073
:1043F00007F07EFDC6F86090FEF70AFD814609E0F1
:104400005EE036E0FEF704FDA0EB0900022801D9CA
:10441000032001E628688001F4D4D4E907010843A9
:10442000616AA26A890108EB520241EA024108432B
:1044300094F82C1040EA0160386001203066FEF7E5
:10444000E7FC044606E0FEF7E3FC001B022801D966
:104450000320E1E528688001F5D531E0FEF7D8FCBE
:10446000001B022801D90320D6E528688001F5D475
:1044700026E0012822D03868E26900F480019142E8
:104480001AD1226A00F03F01914215D147F6C0715E
:10449000626A0140B1EB821F0ED1A26A00F4403182
:1044A00008EB5202B1EB024F06D194F82C1000F049
:1044B0007060B0EB016F03D00120ADE50120ABE5EA
:1044C0000020A9E570B50446002C0BD00E492068E9
:1044D000884203D0A3210DA007F00AFD60790025D2
:1044E00010B105E0012070BD2571204600F02AF8CA
:1044F000022060712068016841F004010160012020
:104500006071A560002070BD000806502E2E2F445B
:104510007269766572732F53544D3332463478780E
:104520005F48414C5F4472697665722F5372632F06
:1045300073746D3332663478785F68616C5F726E65
:10454000672E630008B500680649884208D106480E
:10455000016841F040010160006800F040000090F7
:1045600008BD0000000806503438024070B504460B
:10457000002C7DD07F49206888420AD07E4988423D
:1045800007D07E49884204D04FF4A1717CA007F087
:10459000AFFC60684FF4827530B1A84204D040F29D
:1045A000431177A007F0A4FCA06850B1B0F5806F6C
:1045B00007D0B0F5004F04D04FF4A27170A007F0FF
:1045C00097FCE068B0F5006F05D020B140F24511CE
:1045D0006BA007F08DFCA069B0F5007F08D038B162
:1045E000B0F5802F04D04FF4A37165A007F080FCD4
:1045F000E06990B1082810D010280ED018280CD0EF
:1046000020280AD0282808D0302806D0382804D0FE
:1046100040F247115AA007F06BFC206A30B18028A5
:1046200004D04FF4A47156A007F062FC606A30B168
:10463000102804D040F2491151A007F059FC606ADB
:10464000002600B3E06990B1082810D010280ED0E1
:1046500018280CD020280AD0282808D0302806D0C6
:10466000382804D040F25B1145A007F041FC00E07F
:1046700007E026616661A66294F85100002830D0F8
:1046800034E0012070BD206930B1022804D04FF41D
:10469000A6713BA007F02CFC606930B1012804D062
:1046A00040F24D1136A007F023FC6068A84216D1F5
:1046B000E0690028DFD00828DDD01028DBD01828DA
:1046C000D9D02028D7D02828D5D03028D3D0382802
:1046D000D1D040F251112AA007F00AFCCBE7E661E5
:1046E000C9E784F85060204600F066F8022084F89C
:1046F00051002068016821F040010160A0882189F3
:1047000000F4827001F404410843A18901F40061BE
:104710000843217C01F002010843217D01F00101E1
:104720000843218B01F400710843217F01F0380117
:10473000084394F8201001F080010843218D01F412
:104740000051084321680860A069042101EA104073
:1047500094F8241001F01001084321684860206893
:10476000C16921F40061C1616665012084F85100CE
:10477000002070BD0030014000380040003C004087
:104780002E2E2F447269766572732F53544D333237
:10479000463478785F48414C5F4472697665722F81
:1047A0005372632F73746D3332663478785F686147
:1047B0006C5F7370692E63002DE9F04387B0054686
:1047C000142102A8FBF7AAFD494B29684948022495
:1047D0000327494A00264FF00508994266D145490A
:1047E00014310B6843F480530B60096801F4805165
:1047F0000191016841F002010160016801F00201CC
:104800000191016841F001010160006800F00100C0
:10481000019018200290039404960597CDF8188013
:1048200002A91046FEF73EF98020029003940496F8
:104830000597CDF8188002A93048FEF733F9314CBE
:104840002F4820604FF0C069C4F80490A660E6606D
:10485000071527616661A661E6614FF44038C4F828
:10486000208066622046FDF75FFF08B1FCF77FFC01
:10487000EC64A5632248234C183060342060C4F8EF
:1048800004904020A060E66027616661A661E66151
:10489000C4F8208066622046FDF746FF08B1FCF7A9
:1048A00066FCAC64A56307B0BDE8F083164B994283
:1048B000F9D1104910310B6843F480430B6009684B
:1048C00001F480410191016841F00201016000683A
:1048D00000F0020001904FF46040029003940496AF
:1048E0000597CDF8188002A91046FEF7DBF8DAE745
:1048F0000030014030380240000402400000024015
:1049000040640240F8120020003800402DE9F84FC2
:1049100004460A9E8A4693461F4601254FF000082A
:10492000A068002804D040F27E4175A007F0E0FAAC
:1049300094F8500001280ED0012084F85000FEF7B2
:1049400067FA814694F85100616801280DD0B1F5ED
:10495000827F07D102E00220BDE8F88FA16809B983
:10496000042802D04FF00208C3E0BAF1000F28D0AB
:10497000BBF1000F25D0380023D094F85100042853
:1049800002D0052084F8510000206065C4F838B0DA
:10499000E787A787C4F830A0E786A786206460640D
:1049A00020680168490603D4016841F040010160B4
:1049B000E068B0F5006F07D06068E8B3012F48D019
:1049C0007DE04FF0010894E0606808B1012F39D113
:1049D000206B21680088C860206B801C2063E08EFB
:1049E000401EE0862EE02068816889070DD5E18EA3
:1049F00059B1012D09D1216B0988C160206B801C40
:104A00002063E08E401EE086002520688168C9078B
:104A10000BD0E18F49B1C068A16B0880A06B801CEE
:104A2000A063E08F401EE0870125FEF7F1F9A0EBBF
:104A30000900B04206D300E00BE0701C02D04FF03A
:104A4000030856E0E08E0028CDD1E08F0028CAD1BF
:104A50003BE0206B216800780873206B401C2063CA
:104A6000E08E401EE0862AE02068816889070DD527
:104A7000E18E59B1012D09D1216B09780173206BA9
:104A8000401C2063E08E401EE0860025206881687F
:104A9000C9070BD0E18F49B1C068A16B0870A06B4A
:104AA000401CA063E08F401EE0870125FEF7B0F9AF
:104AB000A0EB0900B04201D3701C11D186B1E08E89
:104AC0000028D1D1E08F0028CED14A463146204679
:104AD00003F0D0FF38B14FF001082020606508E0F6
:104AE0004FF0030805E0A06818B92068C168806825
:104AF00000900120503460700020207040462BE769
:104B00002E2E2F447269766572732F53544D3332B3
:104B1000463478785F48414C5F4472697665722FFD
:104B20005372632F73746D3332663478785F6861C3
:104B30006C5F7370692E630010B5401EB0F1807F0A
:104B400001D3012010BD4FF0E02460610F216017F8
:104B500006F00EFB0020A06107202061002010BDA0
:104B6000704770472DE9F05F04460D46394E2068C6
:104B7000394FDFF8E880DFF8E890DFF8E8A04FF081
:104B8000804BB04215D0584513D0B84211D04045A3
:104B90000FD048450DD04FEAB641884209D032497E
:104BA000884206D0504504D040F2B1712FA007F0E2
:104BB0009FF9286890B1102810D020280ED03028F6
:104BC0000CD040280AD0502808D0602806D0702881
:104BD00004D040F2B27125A007F08AF968688028F5
:104BE00005D020B140F2B37120A007F081F994F80C
:104BF0003C0001282CD0012284F83C20022084F8BB
:104C00003D0020684368816823F0700C2B6843EAFC
:104C10000C0343602068B0420FD058450DD0B84215
:104C20000BD0404509D0484507D0504505D01E4B14
:104C3000984202D01D4B984204D121F0800369684C
:104C4000194381603C34627000202070BDE8F09F01
:104C50000220FBE700000140000400400008004083
:104C6000000C004000040140001400402E2E2F4490
:104C70007269766572732F53544D333246347878A7
:104C80005F48414C5F4472697665722F5372632F9F
:104C900073746D3332663478785F68616C5F746901
:104CA0006D5F65782E6300000040014000180040F1
:104CB00010B50446002C58D03A49206888422BD0C1
:104CC000B0F1804F28D03849884225D037498842F2
:104CD00022D0374988421FD0364988421CD03649F5
:104CE000884219D03549884216D03549884213D0B8
:104CF0003449884210D0344988420DD03349884223
:104D00000AD03349884207D03249884204D040F261
:104D1000131131A007F0ECF8A06860B110280AD098
:104D2000202808D0402806D0602804D04FF48A718B
:104D300029A007F0DDF8206950B1B0F5807F07D0D9
:104D4000B0F5007F04D040F2151123A007F0D0F891
:104D5000A06930B1802804D04FF48B711EA007F0F9
:104D6000C7F894F83D0010B107E0012010BD002005
:104D700084F83C00204600F04BF8022084F83D0007
:104D8000211D206803F080FF01203D3460726070B7
:104D9000A070E07020716071A071E07120722070CD
:104DA000002010BD00000140000400400008004049
:104DB000000C0040001000400014004000040140BE
:104DC00000400140004401400048014000180040FC
:104DD000001C0040002000402E2E2F447269766592
:104DE00072732F53544D3332463478785F48414CB8
:104DF0005F4472697665722F5372632F73746D33DB
:104E000032663478785F68616C5F74696D2E630018
:104E100008B500681C4A1D49904211D1086840F04D
:104E200001000860086800F00100009000220521E0
:104E30001920FEF71DFABDE808401920FEF7E4B975
:104E4000134A90420AD11148001F016841F008013D
:104E50000160006800F00800009008BD0D4A904213
:104E6000FBD1086840F400300860086800F40030A6
:104E70000090002205211920FEF7FAF9BDE808404C
:104E80001920FEF7C1B9000000000140443802407B
:104E9000000C0040004401402DE9F05F0446304D15
:104EA0002068304E304FDFF8C480DFF8C490DFF860
:104EB000C4A0DFF8C4B0A84226D0B0F1804F23D000
:104EC000B04221D0B8421FD040451DD04FEAB54175
:104ED000884219D02949884216D0484514D05045F7
:104EE00012D0274988420FD0264988420CD0584515
:104EF0000AD02549884207D02449884204D04FF47B
:104F0000CA7123A006F0F4FF94F83D00012802D0F6
:104F10000120BDE8F09F022084F83D002068A842EF
:104F20000ED0B0F1804F0BD0B04209D0B84207D0BC
:104F3000404505D0484503D0504501D0584509D1DA
:104F4000816801F00701062908D0016841F00101DC
:104F5000016003E0016841F0010101600020D8E731
:104F6000000001400004004000080040000C004028
:104F700000040140004001400018004000140040BF
:104F80000044014000480140001C00400020004057
:104F90002E2E2F447269766572732F53544D33321F
:104FA000463478785F48414C5F4472697665722F69
:104FB0005372632F73746D3332663478785F68612F
:104FC0006C5F74696D2E63002DE9F05F0446334D0C
:104FD0002068334E334FDFF8D080DFF8D090DFF811
:104FE000D0A0DFF8D0B0A84226D0B0F1804F23D0B7
:104FF000B04221D0B8421FD040451DD04FEAB54144
:10500000884219D02C49884216D0484514D05045C2
:1050100012D02A4988420FD0294988420CD05845DD
:105020000AD02849884207D02749884204D040F254
:10503000CF1126A006F05CFF94F83D00012802D0B5
:105040000120BDE8F09F022084F83D002068C1687F
:1050500041F00101C1602068A8420ED0B0F1804F3C
:105060000BD0B04209D0B84207D0404505D04845E2
:1050700003D0504501D0584509D1816801F007019E
:10508000062908D0016841F00101016003E00168D0
:1050900041F0010101600020D3E700000000014061
:1050A0000004004000080040000C004000040140E3
:1050B000004001400018004000140040004401403E
:1050C00000480140001C0040002000402E2E2F44CC
:1050D0007269766572732F53544D33324634787843
:1050E0005F48414C5F4472697665722F5372632F3B
:1050F00073746D3332663478785F68616C5F74699D
:105100006D2E63002DE9F84F05460C4600200090F7
:1051100095F83C00012842D0012085F83C0002208F
:1051200085F83D0020684FF48057B84216D0B0F59E
:10513000005F13D090B1102810D020280ED0302856
:105140000CD040280AD0502808D0602806D07028FB
:1051500004D041F2BB41D7A006F0CAFE286881689E
:1051600021F0770121F47F418160E14A2068DF4925
:10517000E04BDFF884C3DFF88493DFF88483DFF843
:1051800084B3D6134FF0804A50287DD00FDC2028FE
:1051900004D007DC0028FBD0102876D165E102207E
:1051A000BDE8F88F3028F9D04028F6D128E16028F2
:1051B0006CD0702874D0B84244D04FF400584045A9
:1051C000EBD1286888420ED050450CD090420AD0CE
:1051D000984208D0604506D0484504D041F2E641E7
:1051E000B4A006F085FEA06858B1B84209D0404589
:1051F00007D0B0F5405F04D041F2E941ADA006F020
:1052000077FE6068B04209D040B1022806D00A2873
:1052100004D041F2EA41A7A006F06AFEE0680F2838
:1052200004D941F2EB41A3A006F062FED4E90213D7
:105230006268286803F008FE2868816841F48041AC
:1052400081602FE128688842FBD05045F9D0904218
:10525000F7D09842F5D06045F3D0AB498842F0D002
:10526000AA498842EDD04845EBD04045E9D0A8494D
:105270008842E6D0A7498842E3D05845E1D0A64904
:105280008842DED0A54903E050E009E183E007E071
:105290008842D6D041F2C74186A006F029FE01E13E
:1052A0002868884212D0504510D090420ED09842C3
:1052B0000CD060450AD0484508D0404506D0584536
:1052C00004D041F2CE417BA006F012FEA06860B18E
:1052D000B8420AD0B0F5005F07D0B0F5405F04D007
:1052E00041F2D14173A006F003FE6068B04209D0DC
:1052F00040B1022806D00A2804D041F2D2416DA064
:1053000006F0F6FDE0680F2804D941F2D34169A008
:1053100006F0EEFDD4E902136268286803F094FDFC
:105320002868816841F077018160BBE02868884285
:1053300012D0504510D090420ED098420CD060450B
:105340000AD0484508D0404506D0584504D041F21F
:10535000FA4158A006F0CCFD6068B04209D040B1D7
:10536000022806D00A2804D041F2FD4151A006F0DF
:10537000BFFDE0680F2804D941F2FE414DA006F0C0
:10538000B7FDE2686168286803F02EFF50212868A5
:1053900003F064FD86E02868884212D0504510D0A2
:1053A00090420ED098420CD060450AD0484508D0B3
:1053B000404506D0584504D041F20A513DA006F0C0
:1053C00097FD6068B04209D040B1022806D00A2893
:1053D00004D041F20D5137A006F08AFDE0680F2895
:1053E00004D941F20E5133A006F082FDE2686168F3
:1053F000286803F00AFF6021286803F02FFD51E0C0
:105400002868884212D0504510D090420ED0984261
:105410000CD060450AD0484508D0404506D05845D4
:1054200004D041F21A5123A006F062FD6068B04238
:1054300009D040B1022806D00A2804D041F21D51FB
:105440001CA006F055FDE0680F2804D941F21E515A
:1054500018A006F04DFDE2686168286803F0C4FEFC
:105460004021286803F0FAFC1CE02868884212D02A
:10547000504510D090420ED098420CD060450AD0D2
:10548000484508D0404506D0584504D041F22D513A
:1054900008A006F02DFD2168286803F0DFFC01E07C
:1054A0000120009001203C35687000202870009891
:1054B00076E600002E2E2F447269766572732F53A4
:1054C000544D3332463478785F48414C5F447269BA
:1054D0007665722F5372632F73746D33326634782E
:1054E000785F68616C5F74696D2E63000000014035
:1054F0000004004000080040000C0040000401408F
:10550000004001400018004000100040001400401E
:105510000044014000480140001C004000200040C1
:10552000704770B50446206801694FF00005C94313
:10553000890716D4C168C943890712D4E91E0161DD
:105540000120207720688069800703D02046FFF77C
:10555000E7FF05E0204600F0F9F8204600F0F4FAF5
:10556000257720680169C943490718D4C168C94330
:10557000490714D46FF004010161022020772068EC
:10558000806910F4407F03D02046FFF7C9FF05E093
:10559000204600F0DBF8204600F0D6FA2577206898
:1055A0000169C943090717D4C168C943090713D45E
:1055B0006FF008010161042020772068C06980072E
:1055C00003D02046FFF7ACFF05E0204600F0BEF810
:1055D000204600F0B9FA257720680169C943C90659
:1055E00018D4C168C943C90614D46FF01001016111
:1055F000082020772068C06910F4407F03D020463F
:10560000FFF78EFF05E0204600F0A0F8204600F0EE
:105610009BFA257720680169C943C90708D1C16889
:10562000C943C90704D1891E0161204600F086FBE9
:1056300020680169C943090609D4C168C94309063C
:1056400005D46FF0800101612046FFF789FA2068D8
:105650000169C943490609D4C168C943490605D44B
:105660006FF040010161204600F07CFB2068016979
:10567000C94389060BD4C168C943890607D46FF0B2
:10568000200101612046BDE87040FFF76ABA70BD95
:1056900010B586B00446142101A8FAF73FFE206831
:1056A000234C0021234A0223A04213D1106840F06A
:1056B00008001060106800F0080000905803019086
:1056C000029303910491059301A91B48FDF7EAF9A0
:1056D00006B010BD194CA04213D1106840F08000F4
:1056E0001060106800F0800000904FF4E0500190CE
:1056F000029303910491059301A91148FDF7D2F992
:10570000E6E7104CA042E3D1106840F020001060A2
:10571000106800F020000090402001900293039157
:1057200004910320059001A90748FDF7BBF9CFE7D5
:105730000008004030380240000C0240000C0040DD
:10574000001C024000440140001402407047000069
:105750002DE9F05F04460D4616460027002E0CD0BA
:10576000042E0AD0082E08D00C2E06D03C2E04D0D1
:1057700041F2770179A006F0BBFB2868602806D0CB
:10578000702804D041F2780174A006F0B1FBA8683B
:1057900030B1022804D041F2790170A006F0A8FBD4
:1057A000286930B1042804D041F27A016BA006F0D8
:1057B0009FFB94F83C0001281DD0012084F83C0098
:1057C0007449754A754BDFF8D8C1DFF8D881DFF826
:1057D000D8A1DFF8D8B14FF0804976B1042E42D07D
:1057E000082E6BD00C2E7DD00127002084F83C00C1
:1057F0003846BDE8F09F0220FBE7206888421ED0B3
:1058000048451CD090421AD0984218D0604516D016
:10581000404514D0504512D0654988420FD06549A3
:1058200088420CD058450AD06349884207D0634962
:10583000884204D041F2840148A006F059FB294671
:10584000206803F013FB2068816941F00801816141
:105850002068816921F004018161206881692A69D9
:1058600011438161C1E72068884212D0484510D0B9
:1058700090420ED098420CD060450AD0404508D0E6
:10588000504506D0584504D041F2950133A006F0AA
:105890002FFB2946206803F05FFB2068816941F4F3
:1058A000006181612068816921F4806181612068E3
:1058B00081692A6941EA0221816196E7206888426C
:1058C0000ED048450CD090420AD0984208D060458E
:1058D00006D0404504D041F2A60120A006F008FB06
:1058E000294600E012E0206803F0B0FB2068C1699F
:1058F00041F00801C1612068C16921F00401C16162
:105900002068C1692A691143C1616EE72068884235
:105910000ED048450CD090420AD0984208D060453D
:1059200006D0404504D041F2B7010CA006F0E0FAE1
:105930002946206803F004FC2068C16941F4006135
:10594000C1612068C16921F48061C1612068C169B9
:105950002A6941EA0221C16147E700002E2E2F4447
:105960007269766572732F53544D333246347878AA
:105970005F48414C5F4472697665722F5372632FA2
:1059800073746D3332663478785F68616C5F746904
:105990006D2E63000000014000040040000800403C
:1059A000000C00400004014000400140001800408D
:1059B0000044014000480140001C0040002000401D
:1059C00010B50446002C58D03A49206888422BD0A4
:1059D000B0F1804F28D03849884225D037498842D5
:1059E00022D0374988421FD0364988421CD03649D8
:1059F000884219D03549884216D03549884213D09B
:105A00003449884210D0344988420DD03349884205
:105A10000AD03349884207D03249884204D040F244
:105A2000295131A006F064FAA06860B110280AD0AC
:105A3000202808D0402806D0602804D040F22A51FF
:105A400029A006F055FA206950B1B0F5807F07D043
:105A5000B0F5007F04D040F22B5123A006F048FAA5
:105A6000A06930B1802804D040F22C511EA006F06D
:105A70003FFA94F83D0010B107E0012010BD00206E
:105A800084F83C00204600F04BF8022084F83D00EA
:105A9000211D206803F0F8F801203D346072607029
:105AA000A070E07020716071A071E07120722070B0
:105AB000002010BD0000014000040040000800402C
:105AC000000C0040001000400014004000040140A1
:105AD00000400140004401400048014000180040DF
